:020000040800F2
:1000000010060020ED010008A3260008C722000802
:10001000A1260008F9020008B92E0008000000001F
:10002000000000000000000000000000A7260008FB
:10003000FB02000800000000A5260008A926000811
:10004000070200080702000807020008070200086C
:10005000070200080702000807020008070200085C
:10006000070200080702000807020008070200084C
:10007000070200080702000807020008070200083C
:10008000070200080000000007020008070200083D
:10009000070200080702000807020008070200081C
:1000A000070200080702000807020008070200080C
:1000B00007020008070200080702000807020008FC
:1000C00007020008070200080702000807020008EC
:1000D00007020008AD2E000807020008070200080A
:1000E00007020008070200080702000807020008CC
:1000F00007020008070200085D2700080000000052
:1001000000000000070200080000000007020008CD
:10011000070200080000000051270008070200083D
:10012000070200080702000807020008070200088B
:10013000070200080000000000000000070200089D
:10014000070200080702000800000000000000008D
:10015000000000000000000000000000000000009F
:10016000000000000000000000000000070200087E
:10017000070200080000000000000000000000006E
:10018000000000000702000800000000000000005E
:10019000000000000000000000000000000000005F
:1001A000000000000000000007020008070200082D
:1001B000070200080702000807020008000000000C
:1001C000000000000702000800000000000000001E
:1001D0000702000807020008DFF80CD000F07AF8E8
:1001E00000480047F92E0008100600200648804706
:1001F00006480047FEE7FEE7FEE7FEE7FEE7FEE70C
:10020000FEE7FEE7FEE7FEE735270008D901000814
:100210002DE9F05F0546002092469B46884606463B
:10022000814640241BE0284641464746224600F0CE
:1002300041F853465A46C01A914110D31146184608
:10024000224600F028F82D1A67EB01084F46224697
:100250000120002100F01FF817EB00094E41201E7D
:10026000A4F10104DFDC484631462A464346BDE896
:10027000F09FD2B201E000F8012B491EFBD270477B
:100280000022F6E710B513460A4604461946FFF762
:10029000F0FF204610BD202A04DB203A00FA02F1CC
:1002A000002070479140C2F1200320FA03F3194364
:1002B00090407047202A04DB203A21FA02F0002106
:1002C000704721FA02F3D040C2F120029140084366
:1002D00019467047064C074D06E0E06840F0010300
:1002E00094E8070098471034AC42F6D3FFF778FF44
:1002F0004C2F00086C2F0008FEE7704772B6FEE72F
:100300002DE9F047044690F858009CB00D464FF098
:100310000008012814D0012084F8580020684FF00C
:10032000A0474FF00009B8420ED1284E0096304643
:1003300001F0D8FF8246206801F0D4FF60B10EE0E2
:1003400002201CB0BDE8F087E16D41F02001E165BD
:1003500084F858900120F4E7BAF1000F0AD0E06D5C
:1003600040F02000E0654FF0010800BF84F858908D
:100370004046E6E716482A6840F61F71002A826860
:1003800022F4604215D094F8383042EA43326B6868
:100390001A438260BA68B36802F0010203F00103F5
:1003A0001A43E3D1AB682A681A4383688B431A4324
:1003B0000AE08260BA68B36802F0010203F0010348
:1003C0001A43D3D182688A438260CFE7000100508C
:1003D000000300502DE9F84F00270446009790F8DD
:1003E0005800DFF8DC930D46B846012811D00126ED
:1003F00084F85860206801F071FF60B1E06D40F052
:100400002000E0655FF0010784F858803846BDE8B9
:10041000F88F0220FBE7D5E900210C23206803EACE
:1004200091131844036B01F01F014FF01F0C0CFADD
:1004300001FCC2F3846223EA0C038A401343036382
:10044000206801F04BFF8246206801F043FF5AEA22
:1004500000003CD1AA6829682068B2F1004F37D06B
:1004600001F044FF2068416921F0004141612068AA
:100470006969C268C2F3C102520091402A69042A24
:1004800031D000EB82002B68026EDFF838C303F036
:10049000F84302EA0C020B431A4342F000410166A2
:1004A00022682869A96902EB8000026E22F080723E
:1004B0000A430266297F20682A69012910D0002199
:1004C00000EB8200026E22F000720A4302667DE0B9
:1004D000002201F00BFF2068416941F00041C5E7AF
:1004E0004FF00071ECE7002101F0EEFE40032068C0
:1004F0004FF0000172D001F0E7FE90FAA0F0B0FAE0
:1005000080F1286842036ED090FAA0F0B0FA80F033
:10051000814204D100221146206801F0F6FE01213B
:10052000206801F0D1FE400320684FF001015DD04A
:1005300001F0CAFE90FAA0F0B0FA80F128684203F8
:1005400059D090FAA0F0B0FA80F0814204D1002294
:100550000121206801F0D9FE0221206801F0B4FEDB
:10056000400320684FF0020148D001F0ADFE90FA40
:10057000A0F0B0FA80F12868420344D090FAA0F0CD
:10058000B0FA80F0814204D100220221206801F0FB
:10059000BCFE0321206801F097FE400320684FF065
:1005A000030133D001F090FE90FAA0F0B0FA80F190
:1005B000286842032FD090FAA0F0B0FA80F0814270
:1005C00004D100220321206801F09FFE2068816889
:1005D00011F0010F22D0ACE000E004E001F074FE65
:1005E000C0F384618DE7C0F3846091E701F06CFE95
:1005F000C0F38461A2E7C0F38460A6E701F064FE63
:10060000C0F38461B7E7C0F38460BBE701F05CFE30
:10061000C0F38461CCE7C0F38460D0E72A7B29680B
:1006200050F8B03FC1F3120C23EA0C0302F0180C8F
:10063000654A22FA0CF20A4013430360E96849450F
:1006400077D1286841031CD090FAA0F1B1FA81F16A
:10065000491C01F01F0109294FEA403132D8002915
:1006600012D000BF90FAA0F1B1FA81F101F10101BD
:1006700001F01F0106FA01F609D100BFC0F3846141
:1006800009E0C0F38461E3E7C0F38461EEE790FA28
:10069000A0F1B1FA81F101F1010101F01F0146EA77
:1006A000816102D1C0F3846003E090FAA0F0B0FA57
:1006B00080F000F1010000F01F0000EB400041EA73
:1006C000005132E000290ED090FAA0F1B1FA81F188
:1006D00001F1010101F01F0106FA01F606D100BF88
:1006E000C0F3846106E0C0F38461F1E790FAA0F101
:1006F000B1FA81F101F1010101F01F0146EA8161C6
:1007000002D1C0F3846003E090FAA0F0B0FA80F068
:1007100000F1010000F01F002C4A00EB400002EB4A
:10072000005041EA000141F00071AA68206801F020
:10073000DDFD27482A6802423FF466AE25488168FD
:10074000254B01F0E0719A4202D0244B9A421BD112
:100750000B0219D42268B2F1A04F7FF455AE826823
:1007600041F4000122F0E0720A4382601C481D49F6
:100770000068B0FBF1F000EB4000800000E0401E9C
:1007800000900028FBD13FE6174D184BAA4207D135
:10079000CD0105D422689A42F5D041F0807109E07C
:1007A000134DAA42EFD14A02EDD422689A42EAD010
:1007B00041F48001826822F0E0720A43826023E6FD
:1007C00000007F4000F0FF03FFFF0700000020FE55
:1007D0000000088000030050000021C31000C090FA
:1007E00010000020400D0300000052C7000100501F
:1007F000000084CBF8B54FF0000504002E460095AC
:1008000002D0E06D10B107E00120F8BD204600F0F5
:10081000EDF8266684F8586020688168C1F340715D
:1008200019B18168694A1140816020688168C1F30B
:10083000007179B98168664A114041F08051816048
:10084000644865490068B0FBF1F000E0401E00908C
:100850000028FBD120688168C1F3007141B9E16DC6
:1008600041F01001E165216E41F001012166012591
:1008700001F034FDE16DC90600D430B1E06D40F007
:100880001000E06501252846F8BDE06D20F4807079
:1008900040F00200E0652068806810F0010F11D17F
:1008A0004FF0A04080684D4900F00100896801F0D8
:1008B0000101084306D14A486168826822F47C122B
:1008C0000A438260E168E06B627F0843A16841EA05
:1008D0004231084394F8241040EA0140012904D130
:1008E000218D404A02EB41410843E16A29B101F4FC
:1008F0007871226B014342EA01002168CA683A4BD1
:100900001A400243CA6020680169626B21F04061AD
:1009100011430161206801F0E1FC0646206801F006
:10092000D9FC30432ED1207F94F83810800340EA60
:1009300041022068C16844F2020399431143C16037
:1009400020690028206801690AD041F480310161E2
:10095000206850F8C01F22696FF30D01114307E0B2
:1009600021F480310161206850F8C01F6FF30D0140
:10097000016094F8400001280CD02068016921F042
:1009800001010161606901282068016B21F00F01FC
:1009900011D013E0D4E911010843D4E91312114333
:1009A000084321680A6940F2FC739A43104340F0FF
:1009B00001000861E6E7226A521E11430163E06DFF
:1009C00020F0020040F00100E0655CE7C0FFFF5F3F
:1009D000C0FFFF7F10000020400D03000001005009
:1009E000000300500000FEFF0740F0FFF0B587B0A5
:1009F000044614216846FFF743FC214B2668002477
:100A00001A6803251F482049521CB6F1A04F06D092
:100A10001E4FBE4231D11A60012A16D01DE01A6065
:100A2000012A07D1CA6C42F40052CA64CA6C02F4AB
:100A300000520592CA6C42F00202CA64C96C01F00D
:100A4000020105914FF4805111E0CA6C42F400524A
:100A5000CA64CA6C02F400520592CA6C42F00202E7
:100A6000CA64C96C01F0020105914FF40041CDE95F
:100A700000150294694600F047F807B0F0BD000089
:100A80000000002000040048001002400001005057
:100A900070B590F82520002401212346022A07D0B2
:100AA0000422C26380F8251080F82430012429E054
:100AB0000268156825F00E0515600268156825F0B6
:100AC00001051560826C156825F48075156090F835
:100AD0004420056C02F01F0201FA02F26A60D0E9BC
:100AE00013255560426D32B1156825F48075156087
:100AF000D0E91625556080F8251080F82430816BE8
:100B000001B18847204670BD2DE9FC4FDFF8A0A158
:100B1000002301250AF1040B03244FF00F0C0BF105
:100B2000040EBDE005FA03F632406FD04F68012F86
:100B300005D0022F03D0112F01D0122F17D1D0F8DA
:100B400008905F0004FA07F829EA08090097D1F82D
:100B50000C8008FA07F848EA0908C0F808804768D6
:100B6000B7430E79C6F300169E403E434660C66802
:100B70004FEA430804FA08F7BE4301978F6807FA63
:100B800008F73743C7604E68022E01D0122E13D1EA
:100B9000DE0800EB86060096366A5F07FF0E0CFA49
:100BA00007F926EA0906D1F8109009FA07F949EA87
:100BB0000609009EC6F820900668019FBE430F7983
:100BC00007F0030707FA08F7374307604E68F60097
:100BD00065D5384E376E47F001073766366E23F01D
:100BE000030706F001060096334E3E44B146B66850
:100BF0009F074FEA17780CFA08F7BE43B0F1904F01
:100C000005D02E4FB84204D1012717E047E0002756
:100C100014E02B4FB84201D102270FE0294FB84210
:100C200001D103270AE0284FB84201D1042705E08B
:100C3000264FB84201D1052700E0062707FA08F73A
:100C40003743C9F80870DAF800605746D1F80480D5
:100C500096435FEAC83800D516433E60DBF8006073
:100C60005F46D1F8048096435FEA883800D5164382
:100C70003E60DEF800607746D1F8048096435FEA74
:100C8000C82800D516433E60094F0C373E68D1F89E
:100C9000048096435FEA882800D516433E605B1CBB
:100CA0000A6832FA03F67FF43DAFBDE8FC8F00001E
:100CB0000004014000100240000001400004004810
:100CC00000080048000C00480010004800140048CC
:100CD0000AB18161704781627047000001488068F5
:100CE00070470000040000200248816842681144F7
:100CF000816070470400002010B50024032000F03C
:100D000073F8002000F008F808B1012401E000F0B9
:100D100025F8204610BD000070B50E4E0546002493
:100D2000706898B14FF47A71B1FBF0F00A49096824
:100D3000B1FBF0F000F064FD40B9102D06D20022A6
:100D40002946501E00F030F8356000E001242046AE
:100D500070BD000004000020100000200A4882B08E
:100D6000016E41F001010166016E01F00101009187
:100D7000816D41F080518165806D00F08050009060
:100D800002B000F0A1B8000000100240002809DB0A
:100D900000F01F02012191404009800000F1E02095
:100DA000C0F8001170470000F0B40E4B1B680C46F1
:100DB000C3F30223C3F10705042D00D90425191D2F
:100DC000072901D2002300E0DB1E012606FA05F107
:100DD000491E214099409E40761E16403143F0BC8A
:100DE00002F06BB80CED00E0064900F0070208685D
:100DF0004FF6FF03184040EA0220034A1043086000
:100E0000704700000CED00E00000FA052B492C4B68
:100E10000A6832214A432B4940B1B0F5007F086887
:100E200029D020F4C06040F480602CE00868C0F352
:100E30004120022804D051F8800F20F4807022E075
:100E4000D1F8800020F48070C1F88000086820F498
:100E5000C06040F400700860B2FBF3F0401C00E09A
:100E6000401E4A69520501D50028F9D1486940055C
:100E70000AD503207047C0F34120022806D051F85C
:100E8000800F40F48070086000207047D1F8800027
:100E900040F48070C1F88000086820F4C06040F41D
:100EA00000700860B2FBF3F0401C00E0401E4A698D
:100EB0005205DBD50028F9D1D8E70000100000204A
:100EC00040420F00007000400248816841F48041B8
:100ED00081607047007000402DE9F84304460068C7
:100EE00000269D4D00035ED5A86D0027C00008D4E4
:100EF000A86D40F08050A865A86D012700F08050D3
:100F00000090DFF85892D9F8001041F48071C9F8C8
:100F10000010FFF7E3FE804606E000BFFFF7DEFEAD
:100F2000A0EB080002282BD8D9F80000C005F5D5A1
:100F3000D5F8900010F4407014D0216C814211D08B
:100F4000D5F89000D5F8901020F4407041F480312D
:100F5000C5F89010D5F8901021F48031C5F89010A4
:100F6000C5F89000C00711D0FFF7B8FE804641F2E7
:100F7000883907E0FFF7B2FEA0EB0801494501D927
:100F800003260BE0D5F890008007F3D5D5F8900044
:100F9000216C20F440700843C5F890001FB1A86D83
:100FA00020F08050A8652078C00707D0D5F88800C9
:100FB000616820F003000843C5F8880020788007A6
:100FC00007D5D5F88800A16820F00C000843C5F8C3
:100FD00088002078400707D5D5F88800E16820F020
:100FE00030000843C5F888002078000707D5D5F8F9
:100FF0008800216920F0C0000843C5F888002078E7
:10100000800607D5D5F88800616920F44060084360
:10101000C5F888002078400607D5D5F88800A16972
:1010200020F440500843C5F888002078000607D512
:10103000D5F88800E16920F440400843C5F88800ED
:101040002088C00507D5D5F88800216A20F44030F3
:101050000843C5F888002088800507D5D5F88800A2
:10106000616A20F440200843C5F8880020884005C4
:101070000FD5D5F88800A16A20F440100843C5F8C0
:101080008800A06AB0F5801F03D1E86840F48010A2
:10109000E860208800050FD5D5F88800E16A20F4C3
:1010A00040000843C5F88800E06AB0F5800F03D11E
:1010B000E86840F48010E8602088C0040FD5D5F8B7
:1010C0008800216B20F040700843C5F88800206B31
:1010D000B0F1807F03D1E86840F48010E860208898
:1010E0004FF0006180040ED5D5F88800626B20F0C7
:1010F00040601043C5F88800606B884203D1E868FF
:1011000040F48010E860208840040ED5D5F88800AF
:10111000A26B20F040601043C5F88800A06B8842A5
:1011200003D1E86840F48010E860208800040FD5FF
:10113000D5F88800E16B20F040500843C5F88800DE
:10114000E06BB0F1805F03D1E86840F48030E86084
:101150003046BDE8F88300000010024000700040F7
:101160002DE9F0470E4605004FF0000725D0DFF8C7
:10117000AC81D8F8000000F00F00B0420CD2D8F8D3
:10118000001021F00F013143C8F80010D8F800001A
:1011900000F00F00B04210D12968614CC80741F23D
:1011A000883A5AD06868DFF87C91032808D0022872
:1011B00020682DD0400500282CDB0120BDE8F087F9
:1011C00020688001F9D5E06800F00302E068C0F310
:1011D0000310401C032A19D0534A00BFB2FBF0F0A1
:1011E000E268C2F306225043E268C2F34162521C35
:1011F0005200B0FBF2F0484517D9A06810F0F00F8C
:101200000CD0880711D5A86840B10EE0474AE5E741
:101210008003D0E700F0B6F8484506D9A06820F072
:10122000F00040F08000A0608027A068696820F08E
:1012300003000843A060FFF751FD814606E000BFB0
:10124000FFF74CFDA0EB090151453AD8A068696849
:1012500000F00C00B0EB810FF2D12868810714D5A3
:10126000400703D5A06840F4E060A060287800073C
:1012700005D5A06820F4605040F4E060A060A0684C
:10128000A96820F0F000084304E0802F03D1A06893
:1012900020F0F000A060D8F80010404601F00F01E7
:1012A000B14216D9016821F00F0131430160FFF707
:1012B00015FD074607E000BFFFF710FDC11B5145B4
:1012C00001D903207AE7D8F8000000F00F00B042FF
:1012D000F2D12878400705D5A068E96820F4E060DD
:1012E0000843A0602878000706D5A068296920F483
:1012F000605040EAC100A06000F044F8A1680C4AC8
:10130000C1F30311515C01F01F01C8400949086095
:1013100009480068BDE8F047FFF7FEBC0020024026
:101320000010024000B4C4040024F40000366E0132
:10133000322F000810000020040000200548064954
:1013400000688968054AC1F30221515C01F01F0160
:10135000C84070471000002000100240422F0008D3
:101360000548064900688968054AC1F3C221515CF5
:1013700001F01F01C840704710000020001002401B
:10138000422F0008184910B58868C0F38102174839
:10139000012A0BD08A68164BC2F38102022A06D0BA
:1013A0008A68C2F38102032A03D0002010BD1846C8
:1013B00010BDCA6802F00304CA68C2F30312521CCB
:1013C000032C02D0B0FBF2F001E0B3FBF2F0CA68EC
:1013D000C968C2F306225043C1F34161491C490068
:1013E000B0FBF1F010BD0000001002400024F4003A
:1013F00000366E012DE9F84304007AD02078FA4DCA
:10140000C00747D0A868E96800F00C0001F00301AC
:101410000C2802D0082817D001E0032914D06068F6
:10142000B0F5803F17D0B0F5A02F286817D020F472
:1014300080302860286820F4802028606068E0B14F
:10144000FFF74CFC064614E02868800322D560684C
:101450000028D2D01EE0286840F48030EDE740F448
:1014600080202860F7E700BFFFF738FC801B642866
:1014700070D828688003F7D50CE0FFF72FFC0646EC
:1014800005E000BFFFF72AFC801B6428F0D828681D
:101490008003F7D4207880074CD5A868E96800F06D
:1014A0000C0001F003010C2802D004280DD001E04B
:1014B00002290AD0E068002828682BD040F4807008
:1014C0002860FFF70BFC064619E02868400502D5A6
:1014D000E068002891D06868217C20F0FE4040EA56
:1014E00001606860C1480068FFF716FC002800D161
:1014F00020E076E1FFF7F2FB801B0228B8D82868CD
:101500004005F7D56868217C20F0FE4040EA016084
:1015100068600FE020F480702860FFF7DFFB06466C
:1015200005E000BFFFF7DAFB801B0228A0D828687F
:101530004005F7D42078000729D560690028D5F840
:10154000940013D040F00100C5F89400FFF7C6FBEB
:10155000064606E090E000BFFFF7C0FB801B0228B4
:1015600086D8D5F894008007F6D510E020F0010069
:10157000C5F89400FFF7B2FB064604E0FFF7AEFBA8
:10158000801B022878D8D5F894008007F6D42078FC
:10159000400761D5A86D0026C00008D4A86D40F0B2
:1015A0008050A865A86D012600F0805000909048FA
:1015B0000168C90511D40168804641F48071016059
:1015C000FFF78CFB074604E0FFF788FBC01B0228EF
:1015D00052D8D8F80000C005F6D5A068012815D06B
:1015E0000528D5F8900016D020F00100C5F890002D
:1015F000D5F8900020F00400C5F89000A06841F2F2
:101600008838B8B1FFF76AFB07460EE0D5F89000BE
:1016100040F00100F0E740F00400C5F89000F5E765
:10162000FFF75CFBC11B414526D8D5F89000800729
:10163000F6D50CE0FFF752FB074604E0FFF74EFB40
:10164000C11B414518D8D5F890008007F6D41EB1CB
:10165000A86D20F08050A8652078800629D5A06963
:101660000028D5F8980013D040F00100C5F8980084
:10167000FFF734FB064606E077E000BFFFF72EFBDE
:10168000801B022877D8D5F898008007F6D510E09F
:1016900020F00100C5F89800FFF720FB064604E0A3
:1016A000FFF71CFB801B022865D8D5F8980080073F
:1016B000F6D4E069F0B3A968C1F38101032961D0D0
:1016C0000228286820F0807028600BD0E86820F09D
:1016D0000300E860E86847490840E860FFF7FEFA61
:1016E00004464BE0FFF7FAFA064604E0FFF7F6FA85
:1016F000801B02283FD828688001F7D4F4E908014C
:101700006FF00F0202EB01110843218A52044908CD
:1017100002EB4151A26841EA02210843217D4FF0CA
:101720007E42490802EB41610843217B40EAC160E7
:10173000E96800E062E0304A11400843E860286848
:1017400040F080702860E86840F08070E860FFF743
:10175000C5FA044605E000BFFFF7C0FA001B0228E7
:1017600009D828688001F7D548E004E0FFF7B6FA09
:10177000001B022802D90320BDE8F88328688001F5
:10178000F4D43BE00128F7D0E868226A00F00301B6
:10179000914226D1616A00F0F002090110399142AC
:1017A0001FD1A26A00F4FE41B1EB022F19D194F8C7
:1017B0002C2000F07841B1EBC26F12D1218E00F4E1
:1017C000C00249084905A1F50011914209D194F8D8
:1017D000341000F0C06049084906A1F1007181424F
:1017E0000CD00120C8E700000010024004000020D7
:1017F00000700040FFFFEEFE0C809F010020BBE761
:1018000010B5401EB0F1807F01D3012010BD4FF014
:10181000E02460610F21601701F04FFB0020A06100
:1018200007202061002010BD7047704770470000FE
:10183000F0B590F83C20012A4AD0012280F83C20E3
:10184000CA688B6822F440721A434B6822F48062A3
:101850001A430B6822F400621A430B6922F4805287
:101860001A434B6922F400521A430B6B22F4804254
:101870001A430B8B22F4702242EA0342154C036890
:101880000026154DA34201D0AB4203D1CF6922F00F
:1018900080523A43A34201D0AB4214D10F8D22F4BF
:1018A000700242EA07520F6A22F080723A434F6A8E
:1018B00022F000723A43A34201D0AB4203D1C96A7D
:1018C00022F000520A435A6480F83C600020F0BDC8
:1018D0000220F0BD002C01400034014070477047E9
:1018E00070470000F0B590F83C20012A3AD001255D
:1018F00080F83C50022280F83D2003685A689C68BA
:10190000194E1A4FB34201D0BB4204D122F4700CDD
:101910004A6842EA0C02DFF858C002EA0C02D1F829
:1019200000C04CEA020CC3F804C00268B2420DD0F9
:10193000B2F1804F0AD00F4B9A4207D00E4B9A4219
:1019400004D0BA4202D00D4B9A4204D1896824F0E7
:1019500080031943916080F83D50002180F83C10CD
:101960000846F0BD0220F0BD002C014000340140CB
:101970008FFFFFFD000400400008004000400140D0
:10198000704710B5040003D094F83D0010B107E093
:10199000012010BD002084F83C00204600F022F811
:1019A000022084F83D00211D206800F0DDFE0120AA
:1019B00084F8480084F83E0084F83F0084F8400032
:1019C00084F8410084F8420084F8430084F844001D
:1019D00084F8450084F8460084F8470084F83D0008
:1019E000002010BD10B586B0044614216846FEF7ED
:1019F00047FC1F4A21681F4891420ED1816D41F07A
:101A000010018165806D002200F0100005901146E4
:101A10003620FFF7C9F9362026E0174A914225D132
:101A2000016E41F400510166016E01F4005105910F
:101A3000C16C41F00101C164C06C002100F00100E3
:101A400005904FF4004000900220CDE90101CDE95E
:101A5000031069464FF09040FFF756F8002203212B
:101A60002E20FFF7A1F92E20FFF790F906B010BD48
:101A700000100040001002400034014070B50446E0
:101A800090F83C00012814D0012584F83C50022035
:101A900084F83D0022689068344B184020F47F4061
:101AA00090600868702827D010DC10F00F0F03D06A
:101AB0004AE04FF0020070BD4FEA2012072A43D2DD
:101AC000DFE802F05050505048313900284BC21A1C
:101AD000984247D009DCB0F5805F35D0B0F5005FA3
:101AE00015D0B0F1101F2FD13CE0102A3AD0202A97
:101AF00038D0502A28D135E0CB68D1E901212068BF
:101B000000F08AFE2068816841F0770109E0CB6827
:101B1000D1E90121206800F07FFE2068816841F44E
:101B20008041816010E0CA684968206800F0D8FEF2
:101B30005021206806E0CA684968206800F018FF54
:101B40006021206800F072FE84F83D50002084F887
:101B50003C0070BDCA684968206800F0C1FE4021A1
:101B60002068EFE7226801461046EBE788FFCEFFCA
:101B70002000100070472DE9F041054690F83C0028
:101B80000C46012836D0012085F83C008AB3042A8F
:101B900042D02868082A51D0D4E90023E168066AB7
:101BA00026F480560662C669076A26F4407646EA3D
:101BB00003234FF6FF7606EA013123F470431943FD
:101BC0004FF4204627F4204306EA02321A43C1614B
:101BD00002622868C16921F44061C1612868C16955
:101BE000A26841EA0221C161002085F83C00BDE8FD
:101BF000F08101E00220FAE7D4E90012E3682868E6
:101C000000F080FE2868816921F00C01816128685C
:101C10008169A26811430FE0D4E90012E3682868E3
:101C200000F0B8FE2868816921F44061816128686C
:101C30008169A26841EA02218161D5E7D4E90027E0
:101C4000267B016A21F480710162C169036A21F077
:101C50000301394321F0F00731074FF4206647EACA
:101C6000116123F4206306EA02221A43C161026271
:101C70002868C16921F00C01C1612868C169A268A6
:101C80001143B0E710B5040003D094F83D0010B143
:101C900007E0012010BD002084F83C00204600F041
:101CA00022F8022084F83D00211D206800F05CFD30
:101CB000012084F8480084F83E0084F83F0084F84E
:101CC000400084F8410084F8420084F8430084F81E
:101CD000440084F8450084F8460084F8470084F8FE
:101CE0003D00002010BD704770B5044600680169D2
:101CF0004FF00005C943890715D4C168C943890756
:101D000011D4E91E016101202077206880698007D5
:101D1000204602D0FFF72EFF04E000F0E3F8204653
:101D200000F0E1F8257720680169C943490717D415
:101D3000C168C943490713D46FF00401016102204F
:101D400020772068806910F4407F204602D0FFF79A
:101D500011FF04E000F0C6F8204600F0C4F8257733
:101D600020680169C943090716D4C168C943090736
:101D700012D46FF008010161042020772068C06947
:101D80008007204602D0FFF7F5FE04E000F0AAF835
:101D9000204600F0A8F8257720680169C943C906E4
:101DA00017D4C168C943C90613D46FF0100101618B
:101DB000082020772068C06910F4407F204602D0B8
:101DC000FFF7D8FE04E000F08DF8204600F08BF815
:101DD000257720680169C943C90708D1C168C9438B
:101DE000C90704D1891E0161204600F07DF82068F2
:101DF0000169C943090609D4C168C943090605D464
:101E00006FF0800101612046FFF70FFD2068016936
:101E1000C943C90509D4C168C943090605D46FF48B
:101E2000807101612046FFF7FFFC20680169C9430A
:101E3000490609D4C168C943490605D46FF0400179
:101E40000161204600F07CF820680169C9438906D9
:101E500009D4C168C943890605D46FF02001016126
:101E60002046FFF7E3FC20680169C943C90209D491
:101E7000C168C943C90205D46FF4801101612046CD
:101E8000FFF72DFD20680169C943890209D4C168A3
:101E9000C943890205D46FF4001101612046FFF7A0
:101EA0001DFD20680169C943490209D4C168C943BD
:101EB000490205D46FF4800101612046FFF710FD4F
:101EC00020680169C94309020BD4C168C9430902EA
:101ED00007D46FF4000101612046BDE87040FFF7B0
:101EE0004FBD70BD70477047704770B5044690F89D
:101EF0003C00012812D0012584F83C50022084F8CF
:101F00003D00204600F09CFC01004FF0000007D08F
:101F100084F83D5084F83C00012070BD022070BD63
:101F20002168CA6822F04002CA602168CA6822F4A7
:101F30008042CA6084F83D5084F83C00002070BDA7
:101F4000704790F87C10012918D0012180F87C108E
:101F50002421C0F8801050F8601B0A680B6823F039
:101F600001030B6022F000510022426050F8603CF7
:101F700019602021016202771046704702207047E5
:101F8000704770B5044690F87C0001281DD00120F0
:101F900084F87C002420C4F880002068056802686A
:101FA00022F0010202602068826822F060620A4327
:101FB0008260204600F00AFD206805602020C4F8F9
:101FC0008000002084F87C0070BD022070BD70B5D8
:101FD000044690F87C0001281DD0012084F87C0084
:101FE0002420C4F8800020680568026822F00102FD
:101FF00002602068826822F060420A4382602046C4
:1020000000F0E4FC206805602020C4F88000002077
:1020100084F87C0070BD022070BD70477047704727
:102020002DE9F04103680446D86919689A6840F6BA
:102030000F0528424FF0000509D186067ED501F034
:10204000200602F080573E4378D0E16E9EE0624E5B
:10205000624F16400F40374370D0C70709D0CF05F5
:1020600007D501271F62D4F8883043F00103C4F874
:10207000883083070AD5D30708D0276802233B623C
:10208000D4F8883043F00403C4F8883043070AD5F5
:10209000D30708D0276804233B62D4F8883043F084
:1020A0000203C4F8883003070CD501F02003334342
:1020B00008D0266808233362D4F8883043F0080338
:1020C000C4F8883003050BD54B0109D526684FF4B9
:1020D00000633362D4F8883043F02003C4F88830BA
:1020E000D4F88830002B34D0800609D501F02000C8
:1020F00002F08051084303D0E16E09B120468847C1
:10210000D4F8880021688968490602D410F0280FA5
:1021100021D0204600F02AFD20688168490615D5A7
:10212000816821F040018160A06F78B12C49816302
:10213000A06FFEF7ADFC00280BD000E011E0A06F0F
:10214000816B00E02046BDE8F04108472046FFF7DC
:1021500066FFBDE8F0812046FFF761FFC4F88850B4
:10216000F7E7C60209D5560207D54FF4801018626A
:102170002046BDE8F041FFF751BF060609D501F042
:10218000800602F40002164303D0216F0029D9D142
:10219000DFE742060DD54A060BD51968204621F027
:1021A000400119602021C4F88010256700F08AF8EA
:1021B000CFE7020206D54A0004D52046BDE8F0412B
:1021C000FFF72BBFC001C4D50029C2DA2046BDE805
:1021D000F041FFF7D5BE000001000010200100040F
:1021E000572B000810B5040003D0D4F8800010B1BC
:1021F00007E0012010BD002084F87C00204600F09C
:1022000027F82420C4F880002068016821F001012B
:102210000160204600F0BCFC0128EBD0A06A10B1A0
:10222000204600F005FC2068416821F4904141609F
:102230002068816821F02A0181602068016841F0EE
:10224000010101602046BDE8104000F055BC0000CF
:1022500010B586B0044614216846FEF711F81749F8
:102260002068884227D11648016E41F480410166FA
:10227000016E01F480410591C16C41F00101C1641E
:10228000C06C694600F0010005904FF4C0600090FA
:1022900002200190002002900390072004904FF04C
:1022A0009040FEF731FC002211462520FEF77CFD10
:1022B0002520FEF76BFD06B010BD00000038014080
:1022C000001002407047FEE700EB8100006E00F056
:1022D000F84070478068C0F3C00070478068C0F362
:1022E000800070478068C0F380007047042303EAD1
:1022F000D15310B518444369C1F3045107248C40ED
:10230000A3438A401343436110BD00EB8100016E7B
:1023100021F00041114301667047000030B58BB0D9
:10232000002408940994202168460A94FDF7A8FF28
:102330001D484FF0A041042501604FF48021C0E901
:102340000114C4600461C0E90545047744770121A4
:10235000016280F82440C462046380F83840C4639A
:1023600080F84040FEF746FA08B1FDF7C7FF08A91C
:102370000D480894FDF7C4FF08B1FDF7BFFF0B48F7
:10238000009006200190072002907F200594CDE95F
:10239000030569460448FEF71DF8002801D0FDF743
:1023A000ADFF0BB030BD0000140000200008302E3F
:1023B00030B589B020216846FDF762FF19481849F9
:1023C000002401608902C0E90114C460042504618D
:1023D000C0E90545047744770121016280F8244073
:1023E000C462046380F83840C46380F84040FEF75C
:1023F00001FA08B1FDF782FF0B480090062001901A
:10240000072002907F200594CDE903056946054821
:10241000FDF7E0FF002801D0FDF770FF09B030BDE7
:1024200000010050800000200080F03EF0B587B031
:1024300014216846FDF724FF2E48C16C41F00401C9
:10244000C164C16C01F004010591C16C41F020012F
:10245000C164C16C01F020010591C16C41F0010122
:10246000C164C16C01F001010591C16C41F0020130
:10247000C164C16C01F002010591C16C41F0080119
:10248000C164C06C1C4E00F008004FF47F440590FE
:10249000012221463046FEF71BFC184F0022042182
:1024A0003846FEF715FC0125CDE9004500240294CD
:1024B000694630460394FEF727FBCDE90054694690
:1024C0004FF090400294FEF71FFB0720CDE9000477
:1024D00069460B480294FEF717FB0420CDE900057E
:1024E0000220CDE9020469463846FEF70DFB07B02D
:1024F000F0BD00000010024000080048000C004839
:10250000000400483EB500240F48009401940D4992
:10251000029401604F21C0E9011440F2E731846167
:10252000C160FFF72EFA08B1FDF7E8FE0094694696
:1025300005480294FFF7D6F9002801D0FDF7DEFE2A
:102540003EBD000000100040EC00002010B59EB021
:10255000002419941A941B94142111A81C94FDF7BB
:102560008FFE1794189416940D940E940F943421A2
:1025700068461094FDF784FE2E482D4901604F21D6
:10258000C0E9011440F2E731C0E9031444618461F9
:10259000FFF7F7F908B1FDF7B1FE4FF4805019903D
:1025A00019A92448FFF76AFA08B1FDF7A7FE2148E8
:1025B000FFF768FB08B1FDF7A1FE04201190502041
:1025C000CDE9120411A91B481594FFF78EFC08B140
:1025D000FDF794FE1694179416A916481894FFF761
:1025E00081F908B1FDF78AFE0120CDE90D400F9475
:1025F00000220DA90F481094FFF7BDFA08B1FDF7AE
:102600007DFE02200D900E9004220DA90948FFF7CF
:10261000B2FA08B1FDF772FE0794694605480B94BB
:10262000FFF706F9002801D0FDF768FE1EB010BDC7
:102630000034014038010020184810B516490160E7
:102640004FF416514160002181600C22C160C0E945
:1026500004128161C161016241628162FFF7C2FDC2
:1026600008B1FDF74BFE00210C48FFF7B0FC08B1A4
:10267000FDF744FE00210948FFF783FC08B1FDF790
:102680003DFE0648FFF75DFC002803D0BDE8104082
:10269000FDF734BE10BD0000003801408401002069
:1026A000FEE7FEE770477047FEF71EBB10B5A4B00B
:1026B00038216846FDF7E4FD14211FA8FDF7E0FD71
:1026C00044210EA8FDF7DCFD4FF40070FEF79EFBE1
:1026D000012000900004019002200324CDE90704AA
:1026E0001421CDE90A100C900D9009946846FEF76C
:1026F00081FE08B172B6FEE70F20CDE91F04002469
:102700002194229402211FA82394FEF729FD08B1E9
:1027100072B6FEE748F20100CDE90E0440071D90B5
:102720000EA8FEF7D9FB002801D072B6FEE724B050
:1027300010BD00000548016841F4700101600349C3
:102740004FF00060803908607047000088ED00E0BD
:102750000148FFF7C9BA0000EC0000200148FFF76C
:10276000C3BA0000380100202DE9F0430268234B72
:10277000234D244E244C4FF08049984207D04845C1
:1027800005D0A84203D0B04201D0A04203D122F02C
:1027900070074A683A431D4FDFF874C0DFF8748051
:1027A00098420DD048450BD0A84209D0B04207D07E
:1027B000A04205D0B84203D0604501D0404503D1C6
:1027C00022F44075CA682A434D6922F080022A43E8
:1027D00002608A68C2620A688262984207D0A04298
:1027E00005D0B84203D0604501D0404501D1096908
:1027F000016301214161BDE8F0830000002C01402C
:102800000004004000080040003401400040014046
:10281000004401400048014010B5846842EA0322A8
:1028200024F47F440A432243826010BD8268034B34
:102830001A400A4342F00701816070478FFFCFFFC3
:1028400010B50468A268234B1A404B681343224A10
:1028500013400A681A43A2604A68602A32D006DC34
:10286000302A34DD402A0ED0502A30D124E01B4BD0
:102870009A422CDA702A2AD10B69D1E90221006828
:10288000FFF7CAFF23E00A68052A13D0B2F1011F3F
:1028900010D00268136A146A24F0010414620268FA
:1028A0009469096924F0F00444EA01119161006817
:1028B00003620CE0012010BD0A698968006800F01D
:1028C0000FF804E00A698968006800F051F80020F8
:1028D00010BD00008FFFCFFFF8FFFEFF300010009B
:1028E00010B5036A046A24F001040462846924F0C8
:1028F000F00444EA021423F00A020A4384610262EB
:1029000010BD000070B5046A24F0010404628469FB
:10291000056A124EB0420ED0B0F1804F0BD0104E6F
:10292000B04208D00F4EB04205D00F4EB04202D098
:102930000E4EB04203D124F00304144301E044F0EE
:1029400001041A0724F0F00444EA126225F00A0395
:1029500001F00A0119438261016270BD002C01403F
:1029600000040040000800400034014000400140E5
:1029700010B5036A23F0100303628369046A23F429
:10298000704343EA023224F0A00343EA011182615A
:10299000016210BD30B5046A24F010040462846939
:1029A000056A24F4407444EA022222F470444FF68B
:1029B000FF7202EA03322243A02425F0A00304EAB6
:1029C000011119438261016230BD00003FB514A1BD
:1029D000D1E90021CDE9002113A2D2E90012CDE90D
:1029E0000212416EB9B1026891689268C1F3426106
:1029F000520F1DF80240E50002ACA25CB5FBF2F2FA
:102A0000A0F86A201DF80120615CD200B2FBF1F150
:102A1000A0F868103FBD0121A0F86A10F8E7000097
:102A2000010101030701000008040204080101017B
:102A300090F82810C90706D001684A68C36A22F4D2
:102A400000321A434A6090F82810890706D50168B9
:102A50004A68036B22F480321A434A6090F82810C7
:102A6000490706D501684A68436B22F480221A435D
:102A70004A6090F82810090706D501684A68836BF8
:102A800022F400421A434A6090F82810C90606D57D
:102A900001688A68C36B22F480521A438A6090F8F6
:102AA0002810890606D501688A68036C22F4005252
:102AB0001A438A6090F82810490611D501684A68BF
:102AC000436C22F480121A434A60416CB1F5801FB6
:102AD00006D101684A68836C22F4C0021A434A6036
:102AE00090F82810090606D501684A68C06C22F4DF
:102AF000002202434A607047F8B500260446C0F839
:102B00008860FEF7EBF80546206800686FF07E47A6
:102B1000000708D52B4600224FF4001120460097ED
:102B200000F072F960B92068006840070AD52B46AA
:102B300000224FF480012046009700F065F908B1AB
:102B40000320F8BD2020C4F88000C4F8840084F875
:102B50007C600020F8BD10B5806A0021A0F85E10EE
:102B6000A0F85610FFF75BFA10BD000001680A6874
:102B700022F490720A6001688A68044B1A408A60E5
:102B80002021C0F884100021C1667047FEFFFFEFCE
:102B90002DE9F0410446026880682169E369084331
:102BA0006169002519430843616EDFF830C20143B3
:102BB00010688B4B18400843106020684168E26839
:102BC00021F44051114341602168A069614501D061
:102BD000226A10438A68834B1A4002438A60206845
:102BE000C16A626A21F00F011143C1627E49236804
:102BF0007E488B420DD1D0F8880010F0030006D03B
:102C0000012855D0022842D003283FD152E00120AC
:102C10003DE077498B420BD1D0F8880010F00C00D2
:102C200035D0042833D0082840D00C282ED141E0DC
:102C300070498B420BD1D0F8880010F0300026D0BC
:102C4000102835D0202831D030281FD132E06A49F1
:102C50008B420BD1D0F8880010F0C00017D040286C
:102C600026D0802822D0C02810D123E063450DD182
:102C7000D0F8880010F4406009D0B0F5806F17D00C
:102C8000B0F5006F12D0B0F5406F13D010205B4943
:102C90005B4F00264FF40042634539D160B10228F2
:102CA00013D004280BD0082831D10DE00220EEE724
:102CB0000420ECE70820EAE7FEF740FB01E0FEF71E
:102CC00061FB010001D17EE01146606A37F81020F7
:102CD0006768B1FBF2F007EB470383426FD8B0EBB4
:102CE000073F6CD8002308461946FDF791FA090200
:102CF00041EA106102027808101871413A46002337
:102D0000FDF786FA3F4AA0F54071914259D956E045
:102D1000E3694FF6EF7893422DD109284FD2DFE8CF
:102D200000F00508114E0D4E4E4E1000FEF706FB4A
:102D300001E0FEF715FB010004D144E0FEF722FBA1
:102D4000F9E71146606A37F81000B1FBF0F0410076
:102D5000606801EB5001B1FBF0F080B2A0F110010E
:102D600041452CD84FF6F0710140C0F342000143B9
:102D70002068C16027E0092821D2DFE800F00508BB
:102D800011200D2020201000FEF7D8FA01E0FEF7F8
:102D9000E7FA010004D116E0FEF7F4FAF9E711466C
:102DA000606A37F81000B1FBF0F1606801EB500188
:102DB000B1FBF0F080B2A0F11001414501D901252D
:102DC00001E02168C8600120A4F86A0024F8680FB7
:102DD00028466660A660BDE8F081000000800040E3
:102DE000F369FFCFFFF4FF110038014000100240EB
:102DF0000044004000480040004C00400024F40023
:102E00001A2F0008FFFC0F002DE9F0479A461746DD
:102E10000E4604464FF000094FF02008089D39E0A7
:102E2000681C37D0FDF75AFFA0EB0A00A84222D851
:102E30000DB32068016849072CD5C069C04300055F
:102E400028D421684FF4006008622068016821F4EA
:102E5000D07101602068816821F001018160C4F8AF
:102E60008080C4F88480C4F8888000BF84F87C9097
:102E70000320BDE8F0872068016821F4D07101606B
:102E80002068816821F001018160C4F88080C4F865
:102E90008480EBE72068C06936EA000004D0002097
:102EA000B842BDD00020E4E70120F9E70148FFF770
:102EB000B7B8000084010020FEE70907090E0028CA
:102EC00004DB00F1E02080F80014704700F00F00F0
:102ED00000F1E02080F8141D704702E008C8121FBE
:102EE00008C1002AFAD170477047002001E001C1F3
:102EF000121F002AFBD17047FDF7FEFEFFF7D6FB3D
:102F0000FFF794FAFFF798FBFFF708FAFFF750FA7C
:102F1000FFF7F8FAFFF71AFBFEE7010002000400D2
:102F2000060008000A000C0010002000400080008D
:102F30000001000000000000000001020304060779
:102F40000809000000000102030400006C2F0008C3
:102F50000000002014000000DA2E0008802F000876
:102F600014000020FC050000EA2E0008000000000C
:102F70001000000001000000000000000024F40028
:04000005080001D915
:00000001FF
