:020000040800F2
:1000000058060020ED010008C5340008432C000804
:100010007D340008F50800081944000800000000BD
:100020000000000000000000000000006D39000822
:10003000F708000800000000B53500086F39000817
:10004000070200080702000807020008070200086C
:10005000070200080702000807020008070200085C
:10006000070200080702000807020008070200084C
:10007000070200080702000807020008070200083C
:10008000070200080000000007020008070200083D
:10009000070200080702000807020008070200081C
:1000A000070200080702000807020008070200080C
:1000B00007020008070200080702000807020008FC
:1000C00007020008070200080702000807020008EC
:1000D000070200080D440008070200080702000894
:1000E00007020008070200080702000807020008CC
:1000F0000702000807020008393A00080000000063
:1001000000000000070200080000000007020008CD
:1001100007020008000000002D3A0008070200084E
:10012000070200080702000807020008070200088B
:10013000070200080000000000000000070200089D
:10014000070200080702000800000000000000008D
:10015000000000000000000000000000000000009F
:10016000000000000000000000000000070200087E
:10017000070200080000000000000000000000006E
:10018000000000000702000800000000000000005E
:10019000000000000000000000000000000000005F
:1001A000000000000000000007020008070200082D
:1001B000070200080702000807020008000000000C
:1001C000000000000702000800000000000000001E
:1001D0000702000807020008DFF80CD000F05CFA04
:1001E00000480047E14D00085806002006488047B7
:1001F00006480047FEE7FEE7FEE7FEE7FEE7FEE70C
:10020000FEE7FEE7FEE7FEE7113A0008D901000825
:100210002DE9F05F0546002092469B46884606463B
:10022000814640241BE0284641464746224600F0CE
:100230006AF853465A46C01A914110D311461846DF
:10024000224600F051F82D1A67EB01084F4622466E
:100250000120002100F048F817EB00094E41201E54
:10026000A4F10104DFDC484631462A464346BDE896
:10027000F09FD2B201E000F8012B491EFBD270477B
:100280000022F6E710B513460A4604461946FFF762
:10029000F0FF204610BD00F0004230F000400AD0D0
:1002A000C10D01F56071C0F3160042EA0151C208A8
:1002B00040071143704700200146704730B50B4698
:1002C000014600202022012409E021FA02F59D4286
:1002D00005D303FA02F5491B04FA02F52844151E5A
:1002E000A2F10102F1DC30BD202A04DB203A00FA41
:1002F00002F1002070479140C2F1200320FA03F37D
:10030000194390407047202A04DB203A21FA02F07A
:100310000021704721FA02F3D040C2F1200291403F
:100320000843194670472DE9FE4F804681EA0300D5
:10033000C00F0C46009021F0004123F00045B8EBBF
:100340000200A94105D24046214690461C460B4674
:10035000024623F00040104347D0270DC7F30A00A0
:10036000C3F30A510290401A019040286BDAC3F39C
:10037000130040F4801B0098924620B10023D2EB7A
:10038000030A63EB0B0B01985946C0F1400250463B
:10039000FFF7AAFF06460D4650465946019A00F05F
:1003A0008DF910EB08006141002487EA115284EABC
:1003B000E7731A4340D0009A62B3019A012A4FEAC8
:1003C000075215DC001B61EB02014FF0004202EA0C
:1003D0000752CDE90042001C41F5801132462B4600
:1003E00000F08DF903B0BDE8F08F40462146F9E7F3
:1003F000001B61EB0201001C41F5801300185B41FA
:100400002018A2F5001747EB030140EAD570B61992
:100410006D4111E06D084FEA360645EAC0754FEAB6
:100420000752001B61EB0201001C41F580114908D5
:100430004FEA30000019514132462B4603B0BDE867
:10044000F04F00F04DB90098012240000023D0EB9E
:10045000020263EBE073009821464FEAE074B8EBC8
:10046000000061EB0401E9E783F000435BE781F002
:10047000004158E72DE9FE4F81EA030404F00044EF
:1004800021F0004100944FF0000B23F0004350EAAC
:1004900001045ED052EA03045BD0C3F30A54C1F3F3
:1004A0000A552C44A4F2F3340194A0FB0254C1F386
:1004B000130141F48011C3F3130343F4801301FBD0
:1004C000024400FB034E840A970A44EA815447EA37
:1004D0008357A4FB076802958D0A05FB07854FEA41
:1004E000932C04FB0C542705029D4FEA065847EA5B
:1004F0001637B5EB08056EEB070C870E920E47EA30
:10050000811742EA8312A7FB0201B6EB0B0164EBF1
:1005100000042B0D43EA0C335E1844EB1C50DA4602
:100520005146E7FB0201C5F313044FEA0B3343EADC
:1005300014534FEA0432019C43EA0603A4F10C046D
:100540000294009CCDE900B400F0D9F803B0BDE8F6
:10055000F08F00200146F9E72DE9F04D81EA030410
:1005600004F0004B21F0004514464FF0000A23F040
:10057000004150EA050220D054EA01021DD0C5F323
:100580000A570246C5F31303C1F31300C1F30A5619
:1005900040F4801543F48013A7EB0608101BD646E1
:1005A00008F2FD3873EB050002D308F1010801E001
:1005B00092185B41B8F1000F03DA00200146BDE854
:1005C000F08D00204FF48011064684460EE0171B84
:1005D00073EB050705D3121B63EB050306434CEAD7
:1005E000010C49084FEA300092185B4150EA0107BC
:1005F000EDD152EA030012D082EA040083EA050139
:10060000084305D0101BAB4106D20122002306E0AF
:1006100000224FF0004302E06FF0010253101AEB8A
:1006200006004CEB085110EB0A0041EB0B01BDE852
:10063000F04D00F055B8C1F30A52C1F3130140F276
:10064000FF3341F480119A4202DA002001467047DC
:1006500040F233439A42A2F2334202DC5242FFF7A5
:1006600052BEFFF741BE000030B5041E71F1000418
:1006700004DB4FF00044404264EB0101141E73F1AF
:10068000000405DB1C464FF00043524263EB0403B9
:10069000994208BF904230BD064C074D06E0E06825
:1006A00040F0010394E8070098471034AC42F6D3B9
:1006B000FFF796FD5860000878600008202A06DBE6
:1006C000CB17203A41FA02F043EAE07306E041FA20
:1006D00002F3D040C2F1200291400843194670470E
:1006E00010B5141E73F1000408DA401C41F100013A
:1006F00092185B411A4301D120F0010010BD2DE991
:10070000F04D92469B4611B1B1FA81F202E0B0FA87
:1007100080F220329046FFF7E7FD04460F4640EA9C
:100720000A0041EA0B0153465A46084313D01146CA
:1007300053EA010019D0C8F140025046FFF7E3FD2B
:1007400005460E46504659464246FFF7CDFD084342
:1007500005D0012004E020463946BDE8F08D002098
:10076000054346EAE0762C4337430A986305E40ADA
:10077000A0EB08000022FD0A44EA47540A3002D5E3
:1007800000200146E9E7010510196941DDE9084546
:1007900000196941BDE8F04DA2E7000030B58BB00B
:1007A000002408940994202168460A94FFF768FD04
:1007B0001D484FF0A041042501604FF48021C0E99D
:1007C0000114C4600461C0E9054504774477012140
:1007D000016280F82440C462046380F83840C46336
:1007E00080F8404000F012FB08B100F093F808A92F
:1007F0000D48089400F090F808B100F08BF80B4811
:10080000009006200190072002907F200594CDE9FA
:1008100003056946044800F0E9F8002801D000F01B
:1008200079F80BB030BD0000340100200008302EF4
:1008300030B589B020216846FFF722FD19481849D4
:10084000002401608902C0E90114C4600425046128
:10085000C0E90545047744770121016280F824400E
:10086000C462046380F83840C46380F8404000F0FC
:10087000CDFA08B100F04EF80B4800900620019028
:10088000072002907F200594CDE9030569460548BD
:1008900000F0ACF8002801D000F03CF809B030BD01
:1008A00000010050A00100200080F03E3EB5002471
:1008B0000F48009401940D49029401604F21C0E952
:1008C000011442F20F718461C16001F07CFB08B138
:1008D00000F020F8009469460548029401F024FBDA
:1008E000002801D000F016F83EBD000000100040C6
:1008F000E8000020FEE77047002240F6B83306E02B
:100900000021491C89B29942FBD3521C92B2824207
:10091000F6D3704772B6FEE72DE9F047044690F82B
:1009200058009CB00D464FF00008012814D001205B
:1009300084F8580020684FF0A0474FF00009B842F3
:100940000ED1284E0096304602F058FD82462068AF
:1009500002F054FD60B10EE002201CB0BDE8F0874B
:10096000E16D41F02001E16584F858900120F4E741
:10097000BAF1000F0AD0E06D40F02000E0654FF0C2
:10098000010800BF84F858904046E6E716482A68F8
:1009900040F61F71002A826822F4604215D094F854
:1009A000383042EA43326B681A438260BA68B368EF
:1009B00002F0010203F001031A43E3D1AB682A6895
:1009C0001A4383688B431A430AE08260BA68B368AB
:1009D00002F0010203F001031A43D3D182688A4373
:1009E0008260CFE700010050000300502DE9F84F6E
:1009F00000270446009790F85800DFF8DC930D4676
:100A0000B846012811D0012684F85860206802F009
:100A1000F1FC60B1E06D40F02000E0655FF001079F
:100A200084F858803846BDE8F88F0220FBE7D5E906
:100A300000210C23206803EA91131844036B01F092
:100A40001F014FF01F0C0CFA01FCC2F3846223EA71
:100A50000C038A4013430363206802F0CBFC8246F8
:100A6000206802F0C3FC5AEA00003CD1AA68296859
:100A70002068B2F1004F37D002F0C4FC2068416911
:100A800021F00041416120686969C268C2F3C10276
:100A9000520091402A69042A31D000EB82002B6871
:100AA000026EDFF838C303F0F84302EA0C020B438E
:100AB0001A4342F00041016622682869A96902EBE5
:100AC0008000026E22F080720A430266297F20684D
:100AD0002A69012910D0002100EB8200026E22F069
:100AE00000720A4302667DE0002202F08BFC20685F
:100AF000416941F00041C5E74FF00071ECE700218A
:100B000002F06EFC400320684FF0000172D002F04A
:100B100067FC90FAA0F0B0FA80F1286842036ED02A
:100B200090FAA0F0B0FA80F0814204D10022114680
:100B3000206802F076FC0121206802F051FC40039D
:100B400020684FF001015DD002F04AFC90FAA0F05D
:100B5000B0FA80F12868420359D090FAA0F0B0FAB8
:100B600080F0814204D100220121206802F059FC6A
:100B70000221206802F034FC400320684FF002019B
:100B800048D002F02DFC90FAA0F0B0FA80F128686D
:100B9000420344D090FAA0F0B0FA80F0814204D130
:100BA00000220221206802F03CFC0321206802F0B0
:100BB00017FC400320684FF0030133D002F010FC13
:100BC00090FAA0F0B0FA80F1286842032FD090FA92
:100BD000A0F0B0FA80F0814204D100220321206805
:100BE00002F01FFC2068816811F0010F22D0ACE0F8
:100BF00000E004E002F0F4FBC0F384618DE7C0F391
:100C0000846091E702F0ECFBC0F38461A2E7C0F3DB
:100C10008460A6E702F0E4FBC0F38461B7E7C0F3A9
:100C20008460BBE702F0DCFBC0F38461CCE7C0F377
:100C30008460D0E72A7B296850F8B03FC1F3120CDA
:100C400023EA0C0302F0180C654A22FA0CF20A405F
:100C500013430360E968494577D1286841031CD0F4
:100C600090FAA0F1B1FA81F1491C01F01F010929A4
:100C70004FEA403132D8002912D000BF90FAA0F1DB
:100C8000B1FA81F101F1010101F01F0106FA01F64B
:100C900009D100BFC0F3846109E0C0F38461E3E7D8
:100CA000C0F38461EEE790FAA0F1B1FA81F101F1AD
:100CB000010101F01F0146EA816102D1C0F38460A5
:100CC00003E090FAA0F0B0FA80F000F1010000F02B
:100CD0001F0000EB400041EA005132E000290ED035
:100CE00090FAA0F1B1FA81F101F1010101F01F01C7
:100CF00006FA01F606D100BFC0F3846106E0C0F336
:100D00008461F1E790FAA0F1B1FA81F101F10101FA
:100D100001F01F0146EA816102D1C0F3846003E063
:100D200090FAA0F0B0FA80F000F1010000F01F008E
:100D30002C4A00EB400002EB005041EA000141F078
:100D40000071AA68206802F05DFB27482A68024209
:100D50003FF466AE25488168254B01F0E0719A4268
:100D600002D0244B9A421BD10B0219D42268B2F153
:100D7000A04F7FF455AE826841F4000122F0E0728A
:100D80000A4382601C481D490068B0FBF1F000EB8B
:100D90004000800000E0401E00900028FBD13FE6AC
:100DA000174D184BAA4207D1CD0105D422689A42AB
:100DB000F5D041F0807109E0134DAA42EFD14A020B
:100DC000EDD422689A42EAD041F48001826822F090
:100DD000E0720A43826023E600007F4000F0FF03D8
:100DE000FFFF0700000020FE000008800003005005
:100DF000000021C31000C09040000020400D0300FF
:100E0000000052C700010050000084CBF8B54FF03D
:100E1000000504002E46009502D0E06D10B107E0F9
:100E20000120F8BD204600F0EDF8266684F85860F1
:100E300020688168C1F3407119B18168694A114025
:100E4000816020688168C1F3007179B98168664A60
:100E5000114041F080518160644865490068B0FBF1
:100E6000F1F000E0401E00900028FBD1206881686E
:100E7000C1F3007141B9E16D41F01001E165216EEE
:100E800041F001012166012502F0B4FAE16DC906C5
:100E900000D430B1E06D40F01000E0650125284637
:100EA000F8BDE06D20F4807040F00200E06520683D
:100EB000806810F0010F11D14FF0A04080684D49BB
:100EC00000F00100896801F00101084306D14A4899
:100ED0006168826822F47C120A438260E168E06BF8
:100EE000627F0843A16841EA4231084394F8241024
:100EF00040EA0140012904D1218D404A02EB4141E1
:100F00000843E16A29B101F47871226B014342EA96
:100F100001002168CA683A4B1A400243CA6020683F
:100F20000169626B21F0406111430161206802F0A8
:100F300061FA0646206802F059FA30432ED1207F2C
:100F400094F83810800340EA41022068C16844F2F6
:100F5000020399431143C160206900282068016998
:100F60000AD041F480310161206850F8C01F226925
:100F70006FF30D01114307E021F480310161206816
:100F800050F8C01F6FF30D01016094F84000012874
:100F90000CD02068016921F001010161606901281C
:100FA0002068016B21F00F0111D013E0D4E9110189
:100FB0000843D4E913121143084321680A6940F237
:100FC000FC739A43104340F001000861E6E7226A8F
:100FD000521E11430163E06D20F0020040F0010059
:100FE000E0655CE7C0FFFF5FC0FFFF7F40000020BF
:100FF000400D030000010050000300500000FEFF00
:101000000740F0FFF0B587B0044614216846FFF7AB
:1010100037F9214B266800241A6803251F48204908
:10102000521CB6F1A04F06D01E4FBE4231D11A60FD
:10103000012A16D01DE01A60012A07D1CA6C42F4B9
:101040000052CA64CA6C02F400520592CA6C42F0A3
:101050000202CA64C96C01F0020105914FF480518B
:1010600011E0CA6C42F40052CA64CA6C02F4005225
:101070000592CA6C42F00202CA64C96C01F0020116
:1010800005914FF40041CDE900150294694600F046
:1010900059F807B0F0BD00003000002000040048FF
:1010A000001002400001005070B590F82520002487
:1010B00001212346022A07D00422C26380F82510AA
:1010C00080F82430012429E00268156825F00E0517
:1010D00015600268156825F001051560826C1568B9
:1010E00025F48075156090F84420056C02F01F020D
:1010F00001FA02F26A60D0E913255560426D32B1FF
:10110000156825F480751560D0E91625556080F8BE
:10111000251080F82430816B01B18847204670BDCE
:1011200070B5044600F0FCF80546601C02D0044887
:101130004068044400F0F4F8401BA042FAD370BDAC
:10114000340000202DE9FC4FDFF8A0A10023012589
:101150000AF1040B03244FF00F0C0BF1040EBDE059
:1011600005FA03F632406FD04F68012F05D0022FE9
:1011700003D0112F01D0122F17D1D0F808905F00A3
:1011800004FA07F829EA08090097D1F80C8008FA50
:1011900007F848EA0908C0F808804768B7430E799D
:1011A000C6F300169E403E434660C6684FEA4308B9
:1011B00004FA08F7BE4301978F6807FA08F7374328
:1011C000C7604E68022E01D0122E13D1DE0800EB4C
:1011D00086060096366A5F07FF0E0CFA07F926EAC4
:1011E0000906D1F8109009FA07F949EA0609009EA4
:1011F000C6F820900668019FBE430F7907F00307E9
:1012000007FA08F7374307604E68F60065D5384E91
:10121000376E47F001073766366E23F0030706F096
:1012200001060096334E3E44B146B6689F074FEA2A
:1012300017780CFA08F7BE43B0F1904F05D02E4F47
:10124000B84204D1012717E047E0002714E02B4FF4
:10125000B84201D102270FE0294FB84201D103273C
:101260000AE0284FB84201D1042705E0264FB842D2
:1012700001D1052700E0062707FA08F73743C9F828
:101280000870DAF800605746D1F8048096435FEAA8
:10129000C83800D516433E60DBF800605F46D1F8E1
:1012A000048096435FEA883800D516433E60DEF836
:1012B00000607746D1F8048096435FEAC82800D5DD
:1012C00016433E60094F0C373E68D1F804809643C0
:1012D0005FEA882800D516433E605B1C0A6832FA34
:1012E00003F67FF43DAFBDE8FC8F00000004014031
:1012F00000100240000001400004004800080048BF
:10130000000C004800100048001400480069084024
:1013100000D0012070470AB1816170478162704737
:10132000014880687047000034000020024881684E
:1013300042681144816070473400002010B50024D9
:10134000032000F073F8002000F008F808B1012431
:1013500001E000F025F8204610BD000070B50E4EEB
:1013600005460024706898B14FF47A71B1FBF0F033
:101370000A490968B1FBF0F000F064FD40B9102D96
:1013800006D200222946501E00F030F8356000E0F9
:101390000124204670BD00003400002040000020E1
:1013A0000A4882B0016E41F001010166016E01F050
:1013B00001010091816D41F080518165806D00F0E7
:1013C0008050009002B000F0A1B800000010024070
:1013D000002809DB00F01F02012191404009800034
:1013E00000F1E020C0F8001170470000F0B40E4B8F
:1013F0001B680C46C3F30223C3F10705042D00D973
:101400000425191D072901D2002300E0DB1E012657
:1014100006FA05F1491E214099409E40761E16406D
:101420003143F0BC03F00EB80CED00E0064900F0CB
:10143000070208684FF6FF03184040EA0220034AFB
:1014400010430860704700000CED00E00000FA0552
:101450002B492C4B0A6832214A432B4940B1B0F545
:10146000007F086829D020F4C06040F480602CE040
:101470000868C0F34120022804D051F8800F20F4FE
:10148000807022E0D1F8800020F48070C1F88000E4
:10149000086820F4C06040F400700860B2FBF3F00C
:1014A000401C00E0401E4A69520501D50028F9D1D0
:1014B000486940050AD503207047C0F3412002283F
:1014C00006D051F8800F40F480700860002070470B
:1014D000D1F8800040F48070C1F88000086820F4E2
:1014E000C06040F400700860B2FBF3F0401C00E004
:1014F000401E4A695205DBD50028F9D1D8E7000023
:101500004000002040420F00007000400248816807
:1015100041F4804181607047007000402DE9F8433C
:101520000446006800269D4D00035ED5A86D002787
:10153000C00008D4A86D40F08050A865A86D0127B0
:1015400000F080500090DFF85892D9F8001041F474
:101550008071C9F80010FFF7E3FE804606E000BF87
:10156000FFF7DEFEA0EB080002282BD8D9F8000018
:10157000C005F5D5D5F8900010F4407014D0216C5A
:10158000814211D0D5F89000D5F8901020F4407029
:1015900041F48031C5F89010D5F8901021F48031D5
:1015A000C5F89010C5F89000C00711D0FFF7B8FE3D
:1015B000804641F2883907E0FFF7B2FEA0EB080150
:1015C000494501D903260BE0D5F890008007F3D5F3
:1015D000D5F89000216C20F440700843C5F89000C5
:1015E0001FB1A86D20F08050A8652078C00707D0F3
:1015F000D5F88800616820F003000843C5F888002A
:101600002078800707D5D5F88800A16820F00C0065
:101610000843C5F888002078400707D5D5F888002A
:10162000E16820F030000843C5F888002078000702
:1016300007D5D5F88800216920F0C0000843C5F817
:1016400088002078800607D5D5F88800616920F4E5
:1016500040600843C5F888002078400607D5D5F8D3
:101660008800A16920F440500843C5F8880020781C
:10167000000607D5D5F88800E16920F4404008430A
:10168000C5F888002088C00507D5D5F88800216AEC
:1016900020F440300843C5F888002088800507D52D
:1016A000D5F88800616A20F440200843C5F8880016
:1016B000208840050FD5D5F88800A16A20F4401095
:1016C0000843C5F88800A06AB0F5801F03D1E86818
:1016D00040F48010E860208800050FD5D5F8880018
:1016E000E16A20F440000843C5F88800E06AB0F5DC
:1016F000800F03D1E86840F48010E8602088C004BF
:101700000FD5D5F88800216B20F040700843C5F84C
:101710008800206BB0F1807F03D1E86840F480102E
:10172000E86020884FF0006180040ED5D5F888006D
:10173000626B20F040601043C5F88800606B8842FF
:1017400003D1E86840F48010E860208840040ED59A
:10175000D5F88800A26B20F040601043C5F88800DF
:10176000A06B884203D1E86840F48010E8602088CC
:1017700000040FD5D5F88800E16B20F040500843F5
:10178000C5F88800E06BB0F1805F03D1E86840F4F1
:101790008030E8603046BDE8F88300000010024069
:1017A000007000402DE9F0470E4605004FF000079D
:1017B00025D0DFF8AC81D8F8000000F00F00B0426F
:1017C0000CD2D8F8001021F00F013143C8F80010F6
:1017D000D8F8000000F00F00B04210D12968614C29
:1017E000C80741F2883A5AD06868DFF87C9103282C
:1017F00008D0022820682DD0400500282CDB0120CD
:10180000BDE8F08720688001F9D5E06800F00302A8
:10181000E068C0F30310401C032A19D0534A00BFEC
:10182000B2FBF0F0E268C2F306225043E268C2F372
:101830004162521C5200B0FBF2F0484517D9A06833
:1018400010F0F00F0CD0880711D5A86840B10EE059
:10185000474AE5E78003D0E700F0B6F8484506D9E7
:10186000A06820F0F00040F08000A0608027A06811
:10187000696820F003000843A060FFF751FD81462E
:1018800006E000BFFFF74CFDA0EB090151453AD837
:10189000A068696800F00C00B0EB810FF2D12868F5
:1018A000810714D5400703D5A06840F4E060A0602C
:1018B0002878000705D5A06820F4605040F4E06067
:1018C000A060A068A96820F0F000084304E0802F21
:1018D00003D1A06820F0F000A060D8F800104046C6
:1018E00001F00F01B14216D9016821F00F01314317
:1018F0000160FFF715FD074607E000BFFFF710FD89
:10190000C11B514501D903207AE7D8F8000000F047
:101910000F00B042F2D12878400705D5A068E968E9
:1019200020F4E0600843A0602878000706D5A0688E
:10193000296920F4605040EAC100A06000F044F83A
:10194000A1680C4AC1F30311515C01F01F01C840AA
:101950000949086009480068BDE8F047FFF7FEBC88
:10196000002002400010024000B4C4040024F4002F
:1019700000366E0140600008400000203400002066
:101980000548064900688968054AC1F30221515C8F
:1019900001F01F01C84070474000002000100240C5
:1019A000506000080548064900688968054AC1F387
:1019B000C221515C01F01F01C84070474000002067
:1019C0000010024050600008184910B58868C0F344
:1019D00081021748012A0BD08A68164BC2F3810294
:1019E000022A06D08A68C2F38102032A03D00020AB
:1019F00010BD184610BDCA6802F00304CA68C2F3DD
:101A00000312521C032C02D0B0FBF2F001E0B3FB36
:101A1000F2F0CA68C968C2F306225043C1F34161BB
:101A2000491C4900B0FBF1F010BD0000001002405D
:101A30000024F40000366E012DE9F84304007AD04A
:101A40002078FA4DC00747D0A868E96800F00C007C
:101A500001F003010C2802D0082817D001E0032967
:101A600014D06068B0F5803F17D0B0F5A02F28687B
:101A700017D020F480302860286820F48020286067
:101A80006068E0B1FFF74CFC064614E0286880036C
:101A900022D560680028D2D01EE0286840F480304B
:101AA000EDE740F480202860F7E700BFFFF738FC3F
:101AB000801B642870D828688003F7D50CE0FFF7F6
:101AC0002FFC064605E000BFFFF72AFC801B6428B8
:101AD000F0D828688003F7D4207880074CD5A86810
:101AE000E96800F00C0001F003010C2802D0042882
:101AF0000DD001E002290AD0E068002828682BD028
:101B000040F480702860FFF70BFC064619E0286857
:101B1000400502D5E068002891D06868217C20F05B
:101B2000FE4040EA01606860C1480068FFF716FCAB
:101B3000002800D120E076E1FFF7F2FB801B0228AD
:101B4000B8D828684005F7D56868217C20F0FE40A9
:101B500040EA016068600FE020F480702860FFF7C1
:101B6000DFFB064605E000BFFFF7DAFB801B02281B
:101B7000A0D828684005F7D42078000729D56069E7
:101B80000028D5F8940013D040F00100C5F8940067
:101B9000FFF7C6FB064606E090E000BFFFF7C0FB7C
:101BA000801B022886D8D5F894008007F6D510E06F
:101BB00020F00100C5F89400FFF7B2FB064604E0F0
:101BC000FFF7AEFB801B022878D8D5F89400800779
:101BD000F6D42078400761D5A86D0026C00008D44F
:101BE000A86D40F08050A865A86D012600F08050D7
:101BF000009090480168C90511D40168804641F4FD
:101C000080710160FFF78CFB074604E0FFF788FB5B
:101C1000C01B022852D8D8F80000C005F6D5A0682D
:101C2000012815D00528D5F8900016D020F0010025
:101C3000C5F89000D5F8900020F00400C5F8900099
:101C4000A06841F28838B8B1FFF76AFB07460EE09A
:101C5000D5F8900040F00100F0E740F00400C5F82E
:101C60009000F5E7FFF75CFBC11B414526D8D5F88E
:101C700090008007F6D50CE0FFF752FB074604E022
:101C8000FFF74EFBC11B414518D8D5F890008007DF
:101C9000F6D41EB1A86D20F08050A865207880068B
:101CA00029D5A0690028D5F8980013D040F001008C
:101CB000C5F89800FFF734FB064606E077E000BF62
:101CC000FFF72EFB801B022877D8D5F898008007F5
:101CD000F6D510E020F00100C5F89800FFF720FBD2
:101CE000064604E0FFF71CFB801B022865D8D5F8E8
:101CF00098008007F6D4E069F0B3A968C1F38101C8
:101D0000032961D00228286820F0807028600BD059
:101D1000E86820F00300E860E86847490840E860A8
:101D2000FFF7FEFA04464BE0FFF7FAFA064604E036
:101D3000FFF7F6FA801B02283FD828688001F7D405
:101D4000F4E908016FF00F0202EB01110843218A48
:101D50005204490802EB4151A26841EA02210843BA
:101D6000217D4FF07E42490802EB41610843217B0F
:101D700040EAC160E96800E062E0304A114008438F
:101D8000E860286840F080702860E86840F0807063
:101D9000E860FFF7C5FA044605E000BFFFF7C0FAA8
:101DA000001B022809D828688001F7D548E004E024
:101DB000FFF7B6FA001B022802D90320BDE8F8831A
:101DC00028688001F4D43BE00128F7D0E868226A53
:101DD00000F00301914226D1616A00F0F00209018E
:101DE000103991421FD1A26A00F4FE41B1EB022FDB
:101DF00019D194F82C2000F07841B1EBC26F12D1C8
:101E0000218E00F4C00249084905A1F50011914254
:101E100009D194F8341000F0C06049084906A1F1D6
:101E2000007181420CD00120C8E700000010024080
:101E30003400002000700040FFFFEEFE0C809F0188
:101E40000020BBE710B5401EB0F1807F01D3012018
:101E500010BD4FF0E02460610F21601702F0F2FA2C
:101E60000020A06107202061002010BD704770474E
:101E700070470000F0B590F83C20012A4AD00122BA
:101E800080F83C20CA688B6822F440721A434B6881
:101E900022F480621A430B6822F400621A430B6931
:101EA00022F480521A434B6922F400521A430B6BFE
:101EB00022F480421A430B8B22F4702242EA03423E
:101EC000154C03680026154DA34201D0AB4203D147
:101ED000CF6922F080523A43A34201D0AB4214D1E1
:101EE0000F8D22F4700242EA07520F6A22F08072CC
:101EF0003A434F6A22F000723A43A34201D0AB4208
:101F000003D1C96A22F000520A435A6480F83C6047
:101F10000020F0BD0220F0BD002C01400034014043
:101F20007047704770470000F0B590F83C20012AD8
:101F30003AD0012580F83C50022280F83D20036809
:101F40005A689C68194E1A4FB34201D0BB4204D163
:101F500022F4700C4A6842EA0C02DFF858C002EA28
:101F60000C02D1F800C04CEA020CC3F804C00268AD
:101F7000B2420DD0B2F1804F0AD00F4B9A4207D037
:101F80000E4B9A4204D0BA4202D00D4B9A4204D171
:101F9000896824F080031943916080F83D50002146
:101FA00080F83C100846F0BD0220F0BD002C014036
:101FB000003401408FFFFFFD000400400008004096
:101FC00000400140704710B5040003D094F83D0074
:101FD00010B107E0012010BD002084F83C0020462D
:101FE00000F022F8022084F83D00211D206801F055
:101FF00029FD012084F8480084F83E0084F83F0061
:1020000084F8400084F8410084F8420084F84300DA
:1020100084F8440084F8450084F8460084F84700BA
:1020200084F83D00002010BD10B586B00446142190
:102030006846FEF725F91F4A21681F4891420ED1D4
:10204000816D41F010018165806D002200F010006B
:10205000059011463620FFF7C9F9362026E0174AC9
:10206000914225D1016E41F400510166016E01F4E7
:1020700000510591C16C41F00101C164C06C0021A7
:1020800000F0010005904FF4004000900220CDE9DF
:102090000101CDE9031069464FF09040FFF752F877
:1020A000002203212E20FFF7A1F92E20FFF790F93F
:1020B00006B010BD00100040001002400034014086
:1020C00090F83D10012901D001207047022180F8CD
:1020D0003D100168CA6842F00102CA6000681049F8
:1020E00088420ED0B0F1804F0BD00E49884208D004
:1020F0000D49884205D00D49884202D00C498842DA
:1021000007D181680B4A1140062906D0B1F5803FFE
:1021100003D0016841F00101016000207047000018
:10212000002C014000040040000800400034014041
:10213000004001400700010070B5044690F83C00E3
:10214000012814D0012584F83C50022084F83D0079
:1021500022689068344B184020F47F4090600868F3
:10216000702827D010DC10F00F0F03D04AE04FF09A
:10217000020070BD4FEA2012072A43D2DFE802F0C6
:102180005050505048313900284BC21A984247D01D
:1021900009DCB0F5805F35D0B0F5005F15D0B0F147
:1021A000101F2FD13CE0102A3AD0202A38D0502AD4
:1021B00028D135E0CB68D1E90121206801F0A7FCE6
:1021C0002068816841F0770109E0CB68D1E90121FD
:1021D000206801F09CFC2068816841F480418160A6
:1021E00010E0CA684968206801F0F6FC50212068B8
:1021F00006E0CA684968206801F036FD6021206861
:1022000001F090FC84F83D50002084F83C0070BD43
:10221000CA684968206801F0DFFC40212068EFE7C8
:10222000226801461046EBE788FFCEFF2000100031
:1022300010B5134A016891420BD1007F114C01285F
:1022400008D0022805D104210F4800F06EFA401C86
:10225000208110BD00210C4800F067FA401C80B2BC
:10226000E080218900EE101AF8EE400A00EE100A14
:10227000B8EE400A80EE801A84ED091A10BD000005
:1022800000340140000000200C0200202DE9F04144
:10229000054690F83C000C46012836D0012085F810
:1022A0003C008AB3042A42D02868082A51D0D4E9D5
:1022B0000023E168066A26F480560662C669076A4A
:1022C00026F4407646EA03234FF6FF7606EA01310C
:1022D00023F4704319434FF4204627F4204306EAC1
:1022E00002321A43C16102622868C16921F4406167
:1022F000C1612868C169A26841EA0221C161002068
:1023000085F83C00BDE8F08101E00220FAE7D4E95D
:102310000012E368286801F071FC2868816921F0E7
:102320000C01816128688169A26811430FE0D4E93A
:102330000012E368286801F0A9FC2868816921F48B
:102340004061816128688169A26841EA0221816156
:10235000D5E7D4E90027267B016A21F48071016268
:10236000C169036A21F00301394321F0F007310705
:102370004FF4206647EA116123F4206306EA022243
:102380001A43C16102622868C16921F00C01C16170
:102390002868C169A2681143B0E710B5040003D0F2
:1023A00094F83D0010B107E0012010BD002084F832
:1023B0003C00204600F022F8022084F83D00211D58
:1023C000206801F03FFB012084F8480084F83E00BB
:1023D00084F83F0084F8400084F8410084F842000B
:1023E00084F8430084F8440084F8450084F84600EB
:1023F00084F8470084F83D00002010BD70470000BD
:1024000010B5044679B1042912D0082915D00C2939
:1024100018D0102919D094F8430000BF94F8472031
:10242000012817D114E094F83E0094F84420F7E70F
:1024300094F83F0094F84520F2E794F8400094F8AF
:102440004620EDE794F84100E8E794F84200E5E71C
:10245000012A01D0012010BD022071B1042915D03C
:1024600008291CD00C2948D0102949D084F84300F1
:1024700084F847000C291BD145E084F83E0084F81D
:1024800044002068C26842F0020210E084F83F0075
:1024900084F845002068C26842F0040207E084F82E
:1024A000400084F846002068C26842F00802C2601A
:1024B0000122206801F01EFB1549206888420ED0D9
:1024C000B0F1804F0BD01349884208D0124988429E
:1024D00005D01249884202D01149884207D181684B
:1024E000104A1140062906D0B1F5803F03D001689B
:1024F00041F001010160002010BD84F84100B7E700
:1025000084F84200B4E72068C26842F01002CEE7C7
:10251000002C01400004004000080040003401404D
:10252000004001400700010070B5044600680169E1
:102530004FF00005C943890715D4C168C94389070D
:1025400011D4E91E0161012020772068806980078D
:10255000204602D0FFF76CFE04E000F0E3F82046CE
:1025600000F0E1F8257720680169C943490717D4CD
:10257000C168C943490713D46FF004010161022007
:1025800020772068806910F4407F204602D0FFF752
:102590004FFE04E000F0C6F8204600F0C4F82577AE
:1025A00020680169C943090716D4C168C9430907EE
:1025B00012D46FF008010161042020772068C069FF
:1025C0008007204602D0FFF733FE04E000F0AAF8AF
:1025D000204600F0A8F8257720680169C943C9069C
:1025E00017D4C168C943C90613D46FF01001016143
:1025F000082020772068C06910F4407F204602D070
:10260000FFF716FE04E000F08DF8204600F08BF88E
:10261000257720680169C943C90708D1C168C94342
:10262000C90704D1891E0161204600F07DF82068A9
:102630000169C943090609D4C168C943090605D41B
:102640006FF0800101612046FFF711FC20680169ED
:10265000C943C90509D4C168C943090605D46FF443
:10266000807101612046FFF701FC20680169C943C0
:10267000490609D4C168C943490605D46FF0400131
:102680000161204600F091F820680169C94389067C
:1026900009D4C168C943890605D46FF020010161DE
:1026A0002046FFF7E5FB20680169C943C90209D448
:1026B000C168C943C90205D46FF480110161204685
:1026C000FFF72FFC20680169C943890209D4C1685A
:1026D000C943890205D46FF4001101612046FFF758
:1026E0001FFC20680169C943490209D4C168C94374
:1026F000490205D46FF4800101612046FFF712FC06
:1027000020680169C94309020BD4C168C9430902A1
:1027100007D46FF4000101612046BDE87040FFF767
:1027200051BC70BD7047704770470246002041B1F0
:10273000042909D008290AD00C2901D11068006C9D
:1027400070471068406B70471068806B7047106866
:10275000C06B704770B5044690F83C00012812D059
:10276000012584F83C50022084F83D00204601F009
:10277000E3F901004FF0000007D084F83D5084F8E1
:102780003C00012070BD022070BD2168CA6822F0A3
:102790004002CA602168CA6822F48042CA6084F894
:1027A0003D5084F83C00002070BD704790F87C10CC
:1027B000012918D0012180F87C102421C0F8801054
:1027C00050F8601B0A680B6823F001030B6022F0CD
:1027D00000510022426050F8603C196020210162E3
:1027E00002771046704702207047704770B5044664
:1027F00090F87C0001281DD0012084F87C00242062
:10280000C4F8800020680568026822F001020260B6
:102810002068826822F060620A438260204601F0EC
:1028200085FA206805602020C4F88000002084F824
:102830007C0070BD022070BD70B5044690F87C002D
:1028400001281DD0012084F87C002420C4F88000D9
:1028500020680568026822F0010202602068826830
:1028600022F060420A438260204601F05FFA20684D
:1028700005602020C4F88000002084F87C0070BD32
:10288000022070BD70477047704700002DE9F0418D
:1028900003680446D86919689A6840F60F0528420B
:1028A0004FF0000509D186067ED501F0200602F022
:1028B00080573E4378D0E16E9EE0624E624F1640F4
:1028C0000F40374370D0C70709D0CF0507D5012780
:1028D0001F62D4F8883043F00103C4F888308307BE
:1028E0000AD5D30708D0276802233B62D4F8883082
:1028F00043F00403C4F8883043070AD5D30708D04F
:10290000276804233B62D4F8883043F00203C4F8FC
:10291000883003070CD501F02003334308D0266824
:1029200008233362D4F8883043F00803C4F88830B1
:1029300003050BD54B0109D526684FF400633362BC
:10294000D4F8883043F02003C4F88830D4F88830B5
:10295000002B34D0800609D501F0200002F0805110
:10296000084303D0E16E09B120468847D4F88800B7
:1029700021688968490602D410F0280F21D020462A
:1029800001F0A4FA20688168490615D5816821F014
:1029900040018160A06F78B12C498163A06FFEF780
:1029A00083FB00280BD000E011E0A06F816B00E0FA
:1029B0002046BDE8F04108472046FFF765FFBDE827
:1029C000F0812046FFF760FFC4F88850F7E7C602A1
:1029D00009D5560207D54FF4801018622046BDE88D
:1029E000F041FFF750BF060609D501F0800602F45A
:1029F0000002164303D0216F0029D9D1DFE7420638
:102A00000DD54A060BD51968204621F04001196002
:102A10002021C4F88010256700F012F9CFE70202E8
:102A200006D54A0004D52046BDE8F041FFF72ABF8D
:102A3000C001C4D50029C2DA2046BDE8F041FFF745
:102A4000D4BE00000100001020010004B73E0008C1
:102A500010B5040003D0D4F8800010B107E00120C5
:102A600010BD002084F87C00204600F027F82420C8
:102A7000C4F880002068016821F00101016020464F
:102A800001F036FB0128EBD0A06A10B1204601F01E
:102A90007FF92068416821F4904141602068816895
:102AA00021F02A0181602068016841F00101016084
:102AB0002046BDE8104001F0CFB9000010B586B047
:102AC000044614216846FDF7DBFB1749206888425D
:102AD00027D11648016E41F480410166016E01F470
:102AE00080410591C16C41F00101C164C06C69462F
:102AF00000F0010005904FF4C060009002200190AA
:102B0000002002900390072004904FF09040FEF7C1
:102B100019FB002211462520FEF768FC2520FEF750
:102B200057FC06B010BD0000003801400010024004
:102B300070B5D0F88430202B6DD1B9B1B2B190F816
:102B40007C30012B67D0012380F87C308165A0F8B0
:102B50005C20A0F85E200021C16683684FF4805697
:102B6000FF24B34207D1036913B11CE0012070BDFB
:102B700040F2FF131DE07F259BB1B3F1805F15D0BC
:102B8000A0F86010C0F888102223C0F884300368D1
:102B90009C6844F001049C60436EB3F1005F0ED06A
:102BA00027E0036943B9A0F86040EBE703691BB174
:102BB0003F23A0F86030E5E7A0F86050E2E7B0F806
:102BC0006830934215D88268B24201D1026972B16D
:102BD000124AC26680F87C1001680A6842F480726A
:102BE0000A600068816841F0805181600FE00C4A02
:102BF000EFE78268B24201D1026952B1094AC26666
:102C000080F87C100068016841F490710160002038
:102C100070BD054AF3E7022070BD00005140000876
:102C2000513F0008F13F0008F13E0008012202492F
:102C30000248FFF77DBF0000040000205C00002078
:102C40007047FEE700B585B014216846FDF718FB14
:102C5000C02000900120019002900220039069465C
:102C60000248FEF76FFA05B000BD000000040048FE
:102C700070B50824002500F041FE13E06806050E3B
:102C8000002000F023FE142002F05AF8142002F075
:102C900057F8012000F01AFE142002F051F800F05D
:102CA00021FE0543641EE4B2E8D2002000F00EFECF
:102CB000142002F045F800F043FE284670BD10B520
:102CC000002000F031FE142002F03AF8142002F047
:102CD00037F8012000F0FAFD142002F031F800204E
:102CE00000F0F4FDBDE81040142002F029B870B5E2
:102CF0000446082516E000F0E9FD142002F020F853
:102D000004F0800000F010FE142002F019F86006B4
:102D1000040E142002F014F8012000F0D7FD142056
:102D200002F00EF86D1EEDB24FF00000E3D200F09D
:102D3000CDFDBDE87040142002F002B810B50120AE
:102D400000F0F2FD142001F0FBFF142001F0F8FF69
:102D5000012000F0BBFD142001F0F2FF002000F084
:102D6000B5FDBDE81040142001F0EABF10B5012008
:102D700000F0DAFD142001F0E3FF012000F0A6FDD1
:102D8000142001F0DDFF002000F0CEFD142001F042
:102D9000D7FF002000F09AFDBDE81040142001F09C
:102DA000CFBF10B5002000F091FD142001F0C8FF46
:102DB000002000F0B9FD142001F0C2FF012000F056
:102DC00085FD142001F0BCFF012000F0ADFDBDE841
:102DD0001040142001F0B4BF10B5052400F08EFDA2
:102DE000142001F0ADFF012000F070FD142001F06F
:102DF000A7FF05E0641EA4B2142001F0A1FF64B196
:102E000000F070FD0028F5D100F060FD142001F005
:102E100097FF00F095FD002010BD00F091FDFFF739
:102E2000C0FF012010BD0000074810B5C1688161D6
:102E300000F118010422012001F0B2FFBDE81040AA
:102E400002A1482000F016B900000020323463309F
:102E500032207769727465210000000010B50422E9
:102E60000C49022001F072FF0A482038016AC16152
:102E70000846FDF710FA41EC100B07A153EC102B9C
:102E8000084801F0CBFABDE810400649602000F088
:102E9000F1B8000020000020526561642120763ADC
:102EA0002566000044000020164810B50168164C45
:102EB0002269891A642923D30068206100F026F86A
:102EC0002070627820EA020142408243E170A270E1
:102ED0006070012901D1FFF7A7FFE078022801D136
:102EE000FFF7BCFFE078032802D1772000F0D8FA82
:102EF000E078042804D1BDE81040222000F0D0BAC8
:102F000010BD00003C0000200000002070B50E4DF8
:102F1000002401212846FEF7F9F900B90124022115
:102F20002846FEF7F3F900B9022404212846FEF7EB
:102F3000EDF900B9032401214FF09040FEF7E6F9C6
:102F400000B90424204670BD0004004800B585B0D7
:102F500014216846FDF794F94FF6FF7000900020A9
:102F60000321CDE90201019069460248FEF7EAF823
:102F700005B000BD0008004800B585B014216846C2
:102F8000FDF77EF94FF6FF700090012001900320BD
:102F900003900020029069460248FEF7D3F805B07E
:102FA00000BD00000008004870B500240646214618
:102FB000204600F003F900F041F94FF49635304611
:102FC00000F010F9641CAC42F9D370BD30B587B085
:102FD00014216846FDF754F91E48C16C41F0040104
:102FE000C164C16C01F004010591C16C41F00101A3
:102FF000C164C16C01F001010591C16C41F0020195
:10300000C164C06C012500F0020005904FF44870C7
:10301000CDE9000500240394694602940E48FEF7AA
:1030200091F8280203940090CDE901544FF09044A8
:1030300069462046FEF786F8FFF79EFFA06940F438
:103040008070A06104481830016841F40871016083
:1030500007B030BD0010024000040048203AD2B250
:10306000034B02EB420203EB021200F019B800001E
:10307000584E0008F0B50E460746002540F23F14B2
:1030800007E021463846FFF7E9FF103C6D1CA4B26B
:10309000761C3278002A01D0142DF2D3F0BD000046
:1030A0002DE9F04791468A460026044600F086F84E
:1030B000DFF84080012700BF00F0C0F85FF0000596
:1030C00039F8160007FA05F10842404601D1408858
:1030D00000E0008800F086F86D1C102DF0D3641C11
:1030E000E4B25146204600F069F8761C182EE3D36E
:1030F000BDE8F0872800002010B5FFF767FF00202B
:1031000000F014F8084CA080A088A0F502413039E6
:1031100006D000F0D9FA002000F008F8A08010BD19
:1031200000F049FAF7E700002800002070B51D49BB
:103130000A6842F400720A600A6842F480720A6007
:10314000184C103C226842F020022260164A10609F
:10315000086840F02000086000BF00BF00BF206882
:1031600040F020002060206840F480702060FFF76D
:10317000EDFE4FF09041886A40F48070886200BF95
:1031800000BF00BF0848001F006885B2886940F48E
:1031900080708861FFF7F0FE206840F400702060C6
:1031A000284670BD280400481408004801B5BDF841
:1031B00000000149488008BD2800002010B50C46D9
:1031C0000146202000F068F82146BDE8104021208B
:1031D00000F062B801B5BDF800000149088008BDE3
:1031E00028000020134A116841F400711160114950
:1031F00010390B6843F480730B600B6843F02003B5
:103200000B600D4B1860106840F02000106000BF8C
:1032100000BF00BF086840F020000860086840F464
:103220008070086000BF00BF00BF086840F40070F5
:1032300008607047280400481408004814490868CA
:1032400040F400700860086840F48070086010481E
:103250001038026842F0200202600E4B22221A60EF
:103260000A6842F020020A6000BF00BF00BF016888
:1032700041F020010160016841F48071016000BFEC
:1032800000BF00BF016841F4007101607047000099
:103290002804004814080048184B10B51A6842F476
:1032A00000721A601A6842F480721A60134A103A67
:1032B000146844F020041460114C2060186840F039
:1032C0002000186000BF00BF00BF106840F0200061
:1032D0001060106840F4807010602160186840F041
:1032E0002000186000BF00BF00BF106840F0200041
:1032F0001060106840F48070106010BD2804004811
:1033000014080048F0B587B014216846FCF7B8FFF0
:103310002F48C16C41F00401C164C16C01F004018B
:103320000591C16C41F00101C164C16C01F0010162
:103330000591C16C41F00201C164C16C01F0020150
:103340000591C16C41F00801C164C06C214F00F0CF
:1033500008004FF47F460590012231463846FDF7BC
:10336000DAFF012500240096CDE90154694638466C
:103370000394FDF7E7FECDE9005469464FF0904015
:103380000294FDF7DFFE0720CDE9000469461248EC
:103390000294FDF7D7FE0420CDE900050220CDE917
:1033A00002040E4C69462046FDF7CCFE0122314650
:1033B0003846FDF7B0FF012204212046FDF7ABFFA0
:1033C000002204212046FDF7A6FF07B0F0BD000053
:1033D000001002400008004800040048000C0048AB
:1033E00000EB8100006E00F0F84070478068C0F389
:1033F000C00070478068C0F3800070478068C0F3E9
:1034000080007047042303EAD15310B51844436980
:10341000C1F3045107248C40A3438A401343436102
:1034200010BD00EB8100016E21F0004111430166E7
:103430007047000010B50C4802680C494B69D21A5D
:10344000B2F5967F0ED30068486100F018F8024686
:1034500007A1094800F0E2FFBDE810400649182026
:10346000FFF708BE10BD00003C0000200000002057
:10347000523A25580000000044000020FEE710B535
:10348000FFF774FC5F20FFF732FCFFF7A5FCFFF7A6
:10349000EFFB0446FFF752FCFFF783FC204610BD0C
:1034A00010B50446FFF762FC5E20FFF720FCFFF733
:1034B00093FC2046FFF71BFCFFF78EFCBDE8104095
:1034C000FFF76FBCFEE7000010B59EB00024199412
:1034D0001A941B94142111A81C94FCF7D1FE179484
:1034E000189416940D940E940F94342168461094F9
:1034F000FCF7C6FE2E482D4901604F21C0E901149A
:103500004FF6FF71C0E9031444618461FEF75BFD6F
:1035100008B1FDF7FFF94FF48050199019A924481C
:10352000FEF70AFE08B1FDF7F5F92148FEF735FF71
:1035300008B1FDF7EFF9042011905020CDE91204F5
:1035400011A91B481594FFF705F908B1FDF7E2F939
:103550001694179416A916481894FEF7E5FC08B1BE
:10356000FDF7D8F90120CDE90D400F9400220DA9F7
:103570000F481094FEF78AFE08B1FDF7CBF9022040
:103580000D900E9004220DA90948FEF77FFE08B1A8
:10359000FDF7C0F90794694605480B94FEF76AFCED
:1035A000002801D0FDF7B6F91EB010BD003401406F
:1035B0000C020020704730B501210020FFF76CFE9F
:1035C0004FF47A70FDF798F900210120FFF764FEAF
:1035D00041F290711020FFF75FFE4FF41C51602004
:1035E000FFF75AFE01216120FFF756FE0221462017
:1035F000FFF752FE48F210011320FFF74DFE48F28C
:10360000FE011220FFF748FE4FF4A0610220FFF7F1
:1036100043FE41F230010320FFF73EFE40F2033447
:1036200021463020FFF738FE21463120FFF734FED7
:1036300021463220FFF730FEE51E29463320FFF7F2
:103640002BFE03213420FFF727FE21463520FFF70C
:1036500023FE14213620FFF71FFE21463720FFF7F7
:103660001BFE21463820FFF717FE21463920FFF7C1
:1036700013FE29463A20FFF70FFE03213B20FFF7F8
:103680000BFE21463C20FFF707FE4FF4A0513D20E2
:10369000FFF702FE4FF400719220FFF7FDFD214677
:1036A0009320FFF7F9FD40F60D019020FFF7F4FDA0
:1036B00041F218010320FFF7EFFDBDE8304040F272
:1036C00073110720FFF7E8BD10B543F20801E320AE
:1036D000FFF7E2FD1221E720FFF7DEFD41F2312185
:1036E000EF20FFF7D9FD00210120FFF7D5FD4FF4B2
:1036F000E0610220FFF7D0FD41F230010320FFF727
:10370000CBFD00210420FFF7C7FD40F20721082070
:10371000FFF7C2FD00210920FFF7BEFD00210A20AE
:10372000FFF7BAFD00210C20FFF7B6FD00210D20A8
:10373000FFF7B2FD00210F20FFF7AEFD00211020A2
:10374000FFF7AAFD07211120FFF7A6FD0021122097
:10375000FFF7A2FD00211320FFF79EFDC820FDF713
:10376000DFFC41F290611020FFF796FD40F2272127
:103770001120FFF791FD3220FDF7D2FC1D21122010
:10378000FFF78AFD3220FDF7CBFC4FF400611320D8
:10379000FFF782FD14212920FFF77EFD0B212B204E
:1037A000FFF77AFD3220FDF7BBFC00212020FFF758
:1037B00073FD00212120FFF76FFD07213020FFF767
:1037C0006BFD40F207713120FFF766FD06213220C4
:1037D000FFF762FD40F204713520FFF75DFD41F611
:1037E00004713620FFF758FD04213720FFF754FD00
:1037F00000213820FFF750FD40F206713920FFF715
:103800004BFD40F201713C20FFF746FD0F213D20AA
:10381000FFF742FD00215020FFF73EFDEF21512030
:10382000FFF73AFD00215220FFF736FD40F23F112D
:103830005320FFF731FD4FF41C516020FFF72CFDA2
:1038400001216120FFF728FD00216A20FFF724FDF8
:1038500000218020FFF720FD00218120FFF71CFDC3
:1038600000218220FFF718FD00218320FFF714FDBF
:1038700000218420FFF710FD00218520FFF70CFDBB
:1038800010219020FFF708FD00219220FFF704FD92
:1038900003219320FFF700FD4FF488719520FFF777
:1038A000FBFC00219720FFF7F7FC00219820FFF791
:1038B000F3FC41F218010320FFF7EEFCBDE81040D5
:1038C00040F273110720FFF7E7BC000008B104487D
:1038D00001E003481030016841F040010160704789
:1038E0001804004810B580210348FDF70FFD01289A
:1038F00000D0002010BD00000004004800B585B0D5
:1039000014216846FCF7BCFC802000900020019048
:10391000012002900220039069460248FDF712FC44
:1039200005B000BD0004004808B1044801E00348A8
:103930001030016841F080010160704718040048B0
:1039400000B585B014216846FCF79AFC80200090F1
:103950001120019000200290022003906946024845
:10396000FDF7F0FB05B000BD000400487047FDF70F
:10397000DDBC000010B5A6B038216846FCF780FC1D
:1039800014211FA8FCF77CFC44210EA8FCF778FC4E
:103990004FF40070FDF75CFD0120009000040190E1
:1039A00002200324CDE907041421CDE90A100C906C
:1039B0000D9009946846FEF73FF808B172B6FEE72D
:1039C0000F20CDE91F0400242194229402211FA876
:1039D0002394FDF7E7FE08B172B6FEE70B48C16C11
:1039E00041F02001C164C06C00F02000249048F236
:1039F0000100CDE90E0440071D900EA8FDF78EFDD5
:103A0000002801D072B6FEE726B010BD00100240BB
:103A10000548016841F47001016003494FF00060FE
:103A2000803908607047000088ED00E00148FEF72B
:103A30007BBD0000E80000200148FEF775BD0000D6
:103A40000C0200202DE9F0430268234B234D244E45
:103A5000244C4FF08049984207D0484505D0A842F1
:103A600003D0B04201D0A04203D122F070074A68CF
:103A70003A431D4FDFF874C0DFF8748098420DD0D0
:103A800048450BD0A84209D0B04207D0A04205D08B
:103A9000B84203D0604501D0404503D122F44075BF
:103AA000CA682A434D6922F080022A4302608A686C
:103AB000C2620A688262984207D0A04205D0B8422A
:103AC00003D0604501D0404501D10969016301215E
:103AD0004161BDE8F0830000002C0140000400407B
:103AE0000008004000340140004001400044014013
:103AF0000048014010B501F01F030121046A9940FC
:103B00008C430462016A9A401143016210BD10B5F2
:103B1000846842EA032224F47F440A4322438260F9
:103B200010BD00008268034B1A400A4342F00701AF
:103B3000816070478FFFCFFF10B50468A268234BE8
:103B40001A404B681343224A13400A681A43A26082
:103B50004A68602A32D006DC302A34DD402A0ED092
:103B6000502A30D124E01B4B9A422CDA702A2AD1F9
:103B70000B69D1E902210068FFF7C9FF23E00A6859
:103B8000052A13D0B2F1011F10D00268136A146A1B
:103B900024F00104146202689469096924F0F004B5
:103BA00044EA01119161006803620CE0012010BD3C
:103BB0000A698968006800F00FF804E00A698968FA
:103BC000006800F051F8002010BD00008FFFCFFF0B
:103BD000F8FFFEFF3000100010B5036A046A24F0FD
:103BE00001040462846924F0F00444EA021423F01E
:103BF0000A020A438461026210BD000070B5046AC3
:103C000024F0010404628469056A124EB0420ED0A9
:103C1000B0F1804F0BD0104EB04208D00F4EB042E2
:103C200005D00F4EB04202D00E4EB04203D124F068
:103C30000304144301E044F001041A0724F0F004E3
:103C400044EA126225F00A0301F00A011943826175
:103C5000016270BD002C01400004004000080040DB
:103C6000003401400040014010B5036A23F0100306
:103C700003628369046A23F4704343EA023224F046
:103C8000A00343EA01118261016210BD30B5046AEC
:103C900024F0100404628469056A24F4407444EA40
:103CA000022222F470444FF6FF7202EA03322243EA
:103CB000A02425F0A00304EA0111194382610162E6
:103CC00030BD0000184810B5164901604FF4165178
:103CD0004160002181600C22C160C0E90412816151
:103CE000C161016241628162FEF7B2FE08B1FCF778
:103CF00011FE00210C48FEF79FFD08B1FCF70AFEFB
:103D000000210948FEF772FD08B1FCF703FE0648E2
:103D1000FEF74CFD002803D0BDE81040FCF7FABDCB
:103D200010BD0000003801405C0000203FB514A128
:103D3000D1E90021CDE9002113A2D2E90012CDE999
:103D40000212416EB9B1026891689268C1F3426192
:103D5000520F1DF80240E50002ACA25CB5FBF2F286
:103D6000A0F86A201DF80120615CD200B2FBF1F1DD
:103D7000A0F868103FBD0121A0F86A10F8E7000024
:103D80000101010307010000080402040801010108
:103D900090F82810C90706D001684A68C36A22F45F
:103DA00000321A434A6090F82810890706D5016846
:103DB0004A68036B22F480321A434A6090F8281054
:103DC000490706D501684A68436B22F480221A43EA
:103DD0004A6090F82810090706D501684A68836B85
:103DE00022F400421A434A6090F82810C90606D50A
:103DF00001688A68C36B22F480521A438A6090F883
:103E00002810890606D501688A68036C22F40052DE
:103E10001A438A6090F82810490611D501684A684B
:103E2000436C22F480121A434A60416CB1F5801F42
:103E300006D101684A68836C22F4C0021A434A60C2
:103E400090F82810090606D501684A68C06C22F46B
:103E5000002202434A607047F8B500260446C0F8C5
:103E60008860FDF75DFA0546206800686FF07E47C0
:103E7000000708D52B4600224FF40011204600977A
:103E800000F072FA60B92068006840070AD52B4636
:103E900000224FF480012046009700F065FA08B137
:103EA0000320F8BD2020C4F88000C4F8840084F802
:103EB0007C600020F8BD10B5806A0021A0F85E107B
:103EC000A0F85610FEF7E0FC10BD000001680A687B
:103ED00022F490720A6001688A68044B1A408A6072
:103EE0002021C0F884100021C1667047FEFFFFEF5B
:103EF00010B5B0F86020D0F884300168222B04D0CF
:103F0000886940F00800886110BD496A836D1140DE
:103F10001980816D891C8165B0F85E10491EA0F87A
:103F20005E10B0F85E100029EED101680A6822F434
:103F300090720A6001688A6822F001028A6020217A
:103F4000C0F884100021C166FEF770FE10BD0000AD
:103F500070B50446B0F86060D0F88400222805D01F
:103F60002068816941F00801816170BDB4F8685032
:103F700023E02068406AA16D30400880A06D801C5D
:103F8000A065B4F85E00401EA4F85E00B4F85E00C0
:103F900088B92068016821F4807101602068816817
:103FA000114A114081602020C4F884000020E0669E
:103FB0002046FEF73BFE6D1EADB2002DD9D1B4F800
:103FC0005E000028D1D0B4F868108142CDD92068B5
:103FD000816821F0805181600448E06620680168B2
:103FE00041F02001016070BDFEFFFFEFF13E0008CF
:103FF00010B5B0F86020D0F884300168222B04D0CE
:10400000886940F00800886110BD496A1140826DDE
:104010001170816D491C8165B0F85E10491EA0F8D1
:104020005E10B0F85E100029EED101680A6822F433
:1040300090720A6001688A6822F001028A60202179
:10404000C0F884100021C166FEF7F0FD10BD00002D
:1040500070B50446B0F86060D0F88400222805D01E
:104060002068816941F00801816170BDB4F8685031
:1040700023E02068406AA16D30400870A06D401CAC
:10408000A065B4F85E00401EA4F85E00B4F85E00BF
:1040900088B92068016821F4807101602068816816
:1040A000114A114081602020C4F884000020E0669D
:1040B0002046FEF7BBFD6D1EADB2002DD9D1B4F880
:1040C0005E000028D1D0B4F868108142CDD92068B4
:1040D000816821F0805181600448E06620680168B1
:1040E00041F02001016070BDFEFFFFEFF13F0008CD
:1040F0002DE9F0410446026880682169E3690843BC
:104100006169002519430843616EDFF830C201433D
:1041100010688B4B18400843106020684168E268C3
:1041200021F44051114341602168A069614501D0EB
:10413000226A10438A68834B1A4002438A602068CF
:10414000C16A626A21F00F011143C1627E4923688E
:104150007E488B420DD1D0F8880010F0030006D0C5
:10416000012855D0022842D003283FD152E0012037
:104170003DE077498B420BD1D0F8880010F00C005D
:1041800035D0042833D0082840D00C282ED141E067
:1041900070498B420BD1D0F8880010F0300026D047
:1041A000102835D0202831D030281FD132E06A497C
:1041B0008B420BD1D0F8880010F0C00017D04028F7
:1041C00026D0802822D0C02810D123E063450DD10D
:1041D000D0F8880010F4406009D0B0F5806F17D097
:1041E000B0F5006F12D0B0F5406F13D010205B49CE
:1041F0005B4F00264FF40042634539D160B102287D
:1042000013D004280BD0082831D10DE00220EEE7AE
:104210000420ECE70820EAE7FDF7B2FB01E0FDF738
:10422000D3FB010001D17EE01146606A37F810200F
:104230006768B1FBF2F007EB470383426FD8B0EB3E
:10424000073F6CD8002308461946FBF7E1FF090237
:1042500041EA106102027808101871413A460023C1
:10426000FBF7D6FF3F4AA0F54071914259D956E07D
:10427000E3694FF6EF7893422DD109284FD2DFE85A
:1042800000F00508114E0D4E4E4E1000FDF778FB64
:1042900001E0FDF787FB010004D144E0FDF794FB4A
:1042A000F9E71146606A37F81000B1FBF0F0410001
:1042B000606801EB5001B1FBF0F080B2A0F1100199
:1042C00041452CD84FF6F0710140C0F34200014344
:1042D0002068C16027E0092821D2DFE800F0050846
:1042E00011200D2020201000FDF74AFB01E0FDF712
:1042F00059FB010004D116E0FDF766FBF9E7114612
:10430000606A37F81000B1FBF0F1606801EB500112
:10431000B1FBF0F080B2A0F11001414501D90125B7
:1043200001E02168C8600120A4F86A0024F8680F41
:1043300028466660A660BDE8F0810000008000406D
:10434000F369FFCFFFF4FF11003801400010024075
:104350000044004000480040004C00400024F400AD
:1043600028600008FFFC0F002DE9F0479A46174629
:104370000E4604464FF000094FF02008089D39E032
:10438000681C37D0FCF7CCFFA0EB0A00A84222D86B
:104390000DB32068016849072CD5C069C0430005EA
:1043A00028D421684FF4006008622068016821F475
:1043B000D07101602068816821F001018160C4F83A
:1043C0008080C4F88480C4F8888000BF84F87C9022
:1043D0000320BDE8F0872068016821F4D0710160F6
:1043E0002068816821F001018160C4F88080C4F8F0
:1043F0008480EBE72068C06936EA000004D0002022
:10440000B842BDD00020E4E70120F9E70148FEF7FB
:104410003DBA00005C000020FEE700000FB4084B2E
:1044200010B504A902AA039800F0EEF8044602A908
:10443000002000F080FC204610BC5DF814FB00005A
:10444000374D00080907090E002804DB00F1E020C1
:1044500080F80014704700F00F0000F1E02080F8B1
:10446000141D704702E008C8121F08C1002AFAD1C3
:1044700070477047002001E001C1121F002AFBD1E4
:10448000704700002DE9FF5F82B00021DDE90430B4
:10449000020DDDF840B0034318D044F61050A2F2EC
:1044A000FF3242431514119801281FD0A5EB0B00D1
:1044B000401C5FEA000A4FF000064E4FDFF83891CB
:1044C000B046504615D5CAF1000413E011980124F6
:1044D0004AA3012801D16FEA0B010298119AC0E9A1
:1044E0000031C0E9024206B0BDE8F09FCBF1000008
:1044F000DFE704460021404A491842EB0450CDE969
:10450000001012E0E00707D032463B4640464946DD
:10451000FBF7B0FF8046894632463B4610461946B7
:10452000FBF7A8FF06460F466410002CEAD1DDE930
:104530000401DDE90023BAF1000F06DAFBF79AFF68
:1045400042464B46FBF796FF05E0FCF705F842466E
:104550004B46FCF701F804460E460022284BFCF7B8
:1045600083F803D84FF0FF30014607E00022254BC7
:1045700020463146FBF7D7FEFCF75DF8102409E032
:10458000002C0ADB0A220023FBF742FE039B303299
:104590001A55641E50EA0102F2D1641C039AC4F158
:1045A00011031444119A012A03D0012208430DD1AA
:1045B0000AE0084304D000204FF0110B119072E77D
:1045C000A3EB0B056D1E0DE05B4504DD4FF0000213
:1045D00005F1010504E003DA4FF00002A5F1010541
:1045E000002AECD002981199C0E90231C0E90045D7
:1045F00079E70000000014400000F03F30000000A8
:104600000000F0430000E03F2DE9FF4F95B09B46CE
:104610008946064600250FE2252877D10024274643
:10462000F84A0121059400E0044316F8013F203BBD
:1046300001FA03F01042F7D130782A2811D06FF038
:104640002F033078A0F13002092A16D8059A44F0D9
:10465000020402EB820203EB42021044761C059036
:10466000EFE759F8042B0592002A03DA504244F48C
:104670000054059044F00204761C30782E2816D1A0
:1046800016F8010F44F004042A280DD06FF02F0211
:104690003078A0F13003092B09D807EB870302EB30
:1046A0004303C718761CF3E759F8047B761C30786F
:1046B0006C280FD006DC4C2817D068280DD06A284B
:1046C00014D104E0742810D07A280FD10DE044F4FE
:1046D00000140AE044F4801401E044F440147278B9
:1046E000824202D104F58014761C761C307866284C
:1046F0000BD013DC582877D009DC002875D045286A
:10470000F6D04628F4D047281AD19DE118E0632856
:1047100035D0642879D0652812D195E1702873D0FE
:1047200008DC6728F1D069286FD06E280DD06F287B
:1047300006D1B5E073282CD0752875D0782874D0B0
:104740005A46179990476D1C75E1C4F30250022830
:1047500009D003280DD0D9F8001004280DD00D6021
:1047600009F1040967E1D9F80010EA17C1E900521C
:10477000F6E7D9F800100D80F2E70D70F0E719F8B0
:10478000041B8DF8001000208DF80100EA4601207E
:1047900003E059F804AB4FF0FF3061074FF0000120
:1047A00002D40DE008F101018846B9420FDA8045D4
:1047B000F8DB1AF808100029F4D108E008F101012B
:1047C00088468142FADB1AF808100029F6D10598CC
:1047D0005B46A0EB080721463846179A00F094FA8A
:1047E000284400EB080507E04DE029E10DE01AF848
:1047F000010B5A4617999047B8F10108F7D25B466A
:1048000021463846179A13E142E00A220092C4F387
:1048100002524FF0000A022A08D059F804CB032AAA
:104820004FEAEC710AD00DE029E02AE009F1070116
:1048300021F00702F2E802C1914609E00FFA8CFC70
:104840004FEAEC71042A03D14FFA8CFC4FEAEC7169
:10485000002907DA0A460021DCF1000C61EB0201B5
:104860002D2202E0220504D52B228DF804200122FE
:1048700003E0E20701D02022F7E7904659E00A2141
:1048800002E010220DE010214FF0000A00910BE031
:1048900010224FF0000A44F004040827009203E0BD
:1048A00008224FF0000A0092C4F30252022A05D0F7
:1048B00059F804CB0021032A08D009E009F10701C7
:1048C00021F00702F2E802C1914605E01FFA8CFCD4
:1048D000042A01D10CF0FF0C4FF00008220728D564
:1048E000702806D0009B83F0100353EA0A0305D01A
:1048F0000EE040228DF80420012208E05CEA01026B
:1049000006D030228DF804208DF805000222904652
:10491000009B83F0080353EA0A030AD15CEA010210
:1049200001D1620705D530228DF804204FF001082F
:104930007F1E582804D034A003900EA802900DE0EA
:1049400036A0F9E753466046009AFBF761FC8446BF
:104950000398825C0298401E029002705CEA01009B
:10496000F0D1029806A9081A00F1200A600702D5C2
:1049700024F4803400E00127574502DDA7EB0A004C
:1049800000E0002000EB0A01009005984144401A25
:104990000590E00306D45B462146179A059800F07F
:1049A000B3F90544002706E001A85A46C05D1799EF
:1049B00090476D1C7F1C4745F6DBE0030CD55B463A
:1049C0002146179A059800F09FF9054404E030202D
:1049D0005A46179990476D1C0099481E009000296F
:1049E000F5DC08E0029802995A460078491C0291C9
:1049F000179990476D1CBAF10001AAF1010AF1DC88
:104A000065E1000009280100303132333435363792
:104A1000383961626364656600000000303132330A
:104A200034353637383941424344454600000000AA
:104A300000F058F90544761C307800287FF4ECAD7E
:104A400019B02846BDE8F08F620700D4062709F1A7
:104A5000070222F0070CFCE80223E14603F00048BD
:104A60005FEA080C02D00FF2702C0DE05FEA045CE4
:104A700002D50FF2682C07E05FEAC47C02D00FF287
:104A8000602C01E0AFF2700C4FF0FF3823F00043D0
:104A9000CDF850C065280CD006DC452809D0462842
:104AA0001DD047283DD13DE0662818D067287ED12B
:104AB00038E00021112F01DB112000E0781CCDE946
:104AC000000106A90EA8FFF7DDFCDDE90F010E9A33
:104AD00003910021009207F1010A04914DE04FF08B
:104AE00000400097CDE9011006A90EA8FFF7CAFC07
:104AF000DDE90F0203920E9B11990022DDF80CA054
:104B00000093049211B9791C00EB010AB7EB0A007B
:104B100004D4C0F1FF3007F1010A0490AAEB0700AA
:104B2000019044E0012F00DA01270021112F01DD5F
:104B3000112000E03846CDE9000106A90EA8FFF7D4
:104B4000A1FCDDE90F010E9A03910021049100926E
:104B5000BA4621070CD40399514500DA8A46BAF1C6
:104B6000010F05DD009AAAF10101515C302908D03E
:104B7000B84202DA10F1040F06DA0121CDE9011082
:104B800015E0AAF10101E9E7002805DC04990144D8
:104B90000491AAEB000102E0411C514500DD8A4668
:104BA0000499401A401C01904FF0004002902007E9
:104BB00004D40198504501DBCDF8048000208DF825
:104BC0004F0002980DF14F07B0F1004F25D02B2078
:104BD0000E9002984FF0020800280CDA4042029032
:104BE0002D200E9007E00A210298FBF767FB303179
:104BF000029007F8011DB8F10001A8F10108F2DCEC
:104C000002980028EFD1791E0E980870307800F0D5
:104C1000200040F0450007F8020D12A8C01B00F16B
:104C200007081498007800B1012000EB0A010198F0
:104C300001EBE07105984144401A401E0590E003E5
:104C400006D45B462146179A059800F05DF80544A6
:104C50001498007818B15A46179990476D1CE003D4
:104C600024D55B462146179A059800F04DF8054477
:104C70001CE00498002807DBDDE90301884203DD1E
:104C80000098405C179901E0179930205A469047E8
:104C9000049805F10105401C04900198401E019004
:104CA00004D12E205A46179990476D1CBAF1000185
:104CB000AAF1010ADDDC05E017F8010B5A46179945
:104CC00090476D1CB8F10001A8F10108F4DC5B46C7
:104CD0002146179A0598ABE62D0000002B00000036
:104CE000200000002DE9F041044600251E4617462D
:104CF000880404D405E039462020B0476D1C641EAA
:104D0000F9D52846BDE8F0812DE9F041044600259B
:104D10001E469046C80301D5302700E020278804AE
:104D200004D505E041463846B0476D1C641EF9D5F0
:104D30002846BDE8F0810A68531C0B60107070476C
:104D4000002100E0491C8142FCD3704770B5154634
:104D50000C460646FEF70AF8A020FDF7C8FFFEF74E
:104D60003BF83046FDF7C3FFFEF736F8FDF7FEFFD0
:104D7000A120FDF7BCFFFEF72FF809E0FDF778FF53
:104D800004F8010B15B1FDF79AFF01E0FDF7D6FF1E
:104D90006D1EEDB2F2D2BDE87040FEF702B8000021
:104DA00070B515460C460646FDF7E0FFA020FDF75E
:104DB0009EFFFEF711F8304602E000BF14F8010B29
:104DC000FDF795FFFEF708F86D1EEDB2F6D2FDF780
:104DD000E8FFBDE870404FF4FA70FFF7B1BF000084
:104DE000FCF7ACFAFEF7C6FDFEF786F91F20FEF7CA
:104DF000DBF81F20FEF7DAF94FF6FF70FEF7EAF94D
:104E0000FEF780FAFEF75EFFFDF71CFFFBF74EFD95
:104E1000FEF75AFBFBF7C2FCFBF70AFD01220A4929
:104E20000A48FDF785FE0A48FDF74AF900210948BE
:104E3000FDF7E6FA04210748FDF7E2FAFEF734F839
:104E4000FEF7F8FAFAE70000040000205C000020FA
:104E5000E80000200C02002000000000000000001C
:104E60000000000000000000000000000000000042
:104E70000000000000000000000000000000000032
:104E8000000000000000000000008001800180019F
:104E9000800180018001800180018001800180010A
:104EA00080018001000000008001800100000000FE
:104EB000000000000000000000000000CC00CC005A
:104EC000CC00CC00CC00CC000000000000000000B2
:104ED00000000000000000000000000000000000D2
:104EE00000000000000000000000000000000000C2
:104EF00000000000600C600C600C30063006FE1FE5
:104F0000FE1F300638071803FE1FFE1F1803180384
:104F10008C018C018C01000000008000E003F80F80
:104F20009C0E8C1C8C188C009800F801E007800EF9
:104F3000801C8C188C189C18B80CF00FE0038000B3
:104F400080000000000000000000000000000E18BB
:104F50001B0C110C11061106110311039B018E018C
:104F6000C038C06C60446044304430441844186C0D
:104F70000C380000000000000000E001F0033807DA
:104F8000180618063003F001F000F8009C310E33CB
:104F9000061E061C061C063FFC73F02100000000E4
:104FA0000000000000000000000000000C000C00E9
:104FB0000C000C000C000C000000000000000000C1
:104FC00000000000000000000000000000000000E1
:104FD000000000000000000000000002000380014B
:104FE000C000C000600060003000300030003000C1
:104FF000300030003000300060006000C000C000B1
:105000008001000300020000000020006000C000DA
:105010008001800100030003000600060006000670
:105020000006000600060006000300038001800160
:10503000C000600020000000000000000000000030
:1050400000000000C000C000D806F807E0013003EF
:105050003807000000000000000000000000000011
:105060000000000000000000000000000000000040
:105070000000000080018001800180018001FC3F70
:10508000FC3F800180018001800180010000000060
:105090000000000000000000000000000000000010
:1050A0000000000000000000000000000000000000
:1050B00000000000000000000000800180010001ED
:1050C000000180000000000000000000000000005F
:1050D00000000000000000000000000000000000D0
:1050E000E007E007000000000000000000000000F2
:1050F00000000000000000000000000000000000B0
:10510000000000000000000000000000000000009F
:1051100000000000000000000000C000C00000000F
:1051200000000000000000000000000C000C000661
:1051300000060006000300030003800380018001D5
:105140008001C000C000C0006000600000000000DE
:1051500000000000000000000000E003F007380E2F
:10516000180C0C180C180C180C180C180C180C181F
:105170000C180C18180C380EF007E00300000000A3
:105180000000000000000000000000018001C001DC
:10519000F001980188018001800180018001800177
:1051A00080018001800180018001800100000000F9
:1051B00000000000000000000000E003F80F180CE1
:1051C0000C180C1800180018000C000600038001D1
:1051D000C000600030001800FC1FFC1F0000000031
:1051E00000000000000000000000E001F807180EB9
:1051F0000C0C0C0C000C0006C003C007000C0018BF
:1052000000180C180C18180CF807E0030000000038
:1052100000000000000000000000000C000E000F65
:10522000000F800DC00C600C600C300C180C0C0CC6
:10523000FC3FFC3F000C000C000C000C00000000C8
:1052400000000000000000000000F80FF80F180038
:1052500018000C00EC03FC071C0E001C00180018C2
:1052600000180C181C0C180EF807E00300000000D2
:1052700000000000000000000000C007F00F381C14
:10528000181818000C00CC03EC0F3C0E1C1C0C185A
:105290000C180C18181C380EF007E0030000000072
:1052A00000000000000000000000FC1FFC1F000CBC
:1052B00000060006000380038001C001C000E0007A
:1052C000600060007000300030003000000000001E
:1052D00000000000000000000000E003F007380EAE
:1052E000180C180C180C3806F007F007180C0C18DE
:1052F0000C180C180C18380CF80FE0030000000014
:1053000000000000000000000000E003F007380E7D
:105310001C0C0C180C180C181C1C381EF81BE0195F
:105320000018000C000C1C0EF807F0010000000033
:10533000000000000000000000000000000000006D
:10534000000000008001800100000000000000005B
:10535000000000000000000080018001000000004B
:10536000000000000000000000000000000000003D
:10537000000000008001800100000000000000002B
:105380000000000000000000800180010001000119
:10539000800000000000000000000000000000008D
:1053A00000000000000000000010001C800FE0035F
:1053B000F8001800F800E003800F001C0010000047
:1053C00000000000000000000000000000000000DD
:1053D0000000000000000000F81F000000000000B6
:1053E000F81F0000000000000000000000000000A6
:1053F00000000000000000000000000000000000AD
:10540000000000000000000008003800F001C007A4
:10541000001F0018001FC007F0013800080000003E
:1054200000000000000000000000E003F80F180C6E
:105430000C180C180018000C000600038001C000B6
:10544000C000C00000000000C000C000000000005C
:10545000000000000000000000000000E007181835
:105460000420C229224A114409440944094409225A
:105470001113E20C024004201818E007000000009D
:105480000000000000000000000080038003C00650
:10549000C006C006600C600C301830183018F83F99
:1054A000F83F1C700C600C6006C006C000000000D5
:1054B00000000000000000000000FC03FC0F0C0CCA
:1054C0000C180C180C180C0CFC07FC0F0C180C30EA
:1054D0000C300C300C300C18FC1FFC0700000000D6
:1054E00000000000000000000000C007F01F383876
:1054F0001C300C7006600600060006000600060060
:10550000060006600C701C30F01FE0070000000071
:1055100000000000000000000000FE03FE0F060E69
:1055200006180618063006300630063006300630FB
:10553000063006180618060EFE0FFE0300000000D7
:1055400000000000000000000000FC3FFC3F0C00D9
:105550000C000C000C000C00FC1FFC1F0C000C00CD
:105560000C000C000C000C00FC3FFC3F0000000095
:1055700000000000000000000000F83FF83F1800A5
:105580001800180018001800F81FF81F180018005D
:10559000180018001800180018001800000000007B
:1055A00000000000000000000000E00FF83F3C7821
:1055B0000E6006E007C00300030003FE03FE03C005
:1055C00007C006C00EC03CF0F83FE00F000000002E
:1055D000000000000000000000000C300C300C3017
:1055E0000C300C300C300C30FC3FFC3F0C300C30DD
:1055F0000C300C300C300C300C300C300000000043
:105600000000000000000000000080018001800117
:105610008001800180018001800180018001800182
:105620008001800180018001800180010000000074
:105630000000000000000000000000060006000658
:10564000000600060006000600060006000600062A
:105650000006180618063807F003E00100000000F5
:105660000000000000000000000006300618060CD4
:10567000060606038601C60066007600DE008E017F
:1056800006030606060C0618063006600000000039
:1056900000000000000000000000180018001800C2
:1056A000180018001800180018001800180018003A
:1056B0001800180018001800F81FF81F000000005C
:1056C000000000000000000000000EE01EF01EF0D0
:1056D0001EF036D836D836D836D866CC66CC66CCEE
:1056E000C6C6C6C6C6C6C6C686C386C300000000F8
:1056F000000000000000000000000C301C303C30B6
:105700003C306C306C30CC30CC308C310C330C33C2
:105710000C360C360C3C0C3C0C380C3000000000F5
:1057200000000000000000000000E007F81F1C3827
:105730000E70066003C003C003C003C003C003C0F3
:1057400003C006600E701C38F81FE0070000000060
:1057500000000000000000000000FC0FFC1F0C38DF
:105760000C300C300C300C300C18FC1FFC070C00FB
:105770000C000C000C000C000C000C0000000000E1
:1057800000000000000000000000E007F81F1C38C7
:105790000E70066003E003C003C003C003C003C073
:1057A00007E006630E3F1C3CF83FE0F700C0000036
:1057B00000000000000000000000FE0FFE1F063881
:1057C0000630063006300638FE1FFE0706030606C2
:1057D000060C0618061806300630066000000000A9
:1057E00000000000000000000000E003F80F1C0CA7
:1057F0000C180C180C001C00F803E00F001E0038F9
:10580000063006300E301C1CF80FE00700000000C8
:1058100000000000000000000000FE7FFE7F80010D
:105820008001800180018001800180018001800170
:105830008001800180018001800180010000000062
:10584000000000000000000000000C300C300C30A4
:105850000C300C300C300C300C300C300C300C3068
:105860000C300C300C301818F81FE0070000000056
:105870000000000000000000000003600630063059
:1058800006300C180C180C18180C180C380E3006B2
:105890003006700760036003C001C0010000000013
:1058A000000000000000000000000360C361C3614D
:1058B000C3616633663366336633663366336C1BA7
:1058C0006C1B6C1B2C1A3C1E380E380E000000009E
:1058D000000000000000000000000FE00C70183015
:1058E0003018700C600EC00780038003C003E00610
:1058F000700C301C18180C300E6007E0000000001F
:105900000000000000000000000003C006600C3032
:105910001C383818300C6006E007C0038001800195
:105920008001800180018001800180010000000071
:1059300000000000000000000000FC7FFC7F006011
:1059400000300018000C000600038001C000600059
:10595000300018000C000600FE7FFE7F00000000F3
:1059600000000000000000000000E003E003600011
:105970006000600060006000600060006000600027
:105980006000600060006000600060006000600017
:105990006000E003E0030000000030003000600021
:1059A00060006000C000C000C000C0018001800134
:1059B0008001000300030003000600060000000051
:1059C00000000000000000000000E003E00300030E
:1059D00000030003000300030003000300030003AF
:1059E000000300030003000300030003000300039F
:1059F0000003E003E003000000000000C001C0015C
:105A000060036003600330063006180C180C0000B9
:105A10000000000000000000000000000000000086
:105A20000000000000000000000000000000000076
:105A30000000000000000000000000000000000066
:105A400000000000000000000000FFFFFFFF00005A
:105A5000000000000000000000000C000C000C0022
:105A60000C000C000C000000000000000000000012
:105A70000000000000000000000000000000000026
:105A80000000000000000000000000000000000016
:105A900000000000F003F8071C0C0C0C000FF00FC6
:105AA000F80C0C0C0C0C1C0FF80FF0180000000088
:105AB000000000000000000000001800180018009E
:105AC00018001800D803F80F380C181818181818F0
:105AD000181818181818380CF80FD8030000000010
