:020000040800F2
:10000000F0040020ED0100085F1B0008A5120008A5
:100010005D1B0008850200081D2400080000000088
:10002000000000000000000000000000871F000822
:100030008702000800000000711C0008891F0008EA
:10004000070200080702000807020008070200086C
:10005000070200080702000807020008070200085C
:10006000070200080702000807020008070200084C
:10007000070200080702000807020008070200083C
:10008000070200080000000007020008070200083D
:10009000070200080702000807020008070200081C
:1000A000070200080702000807020008070200080C
:1000B00007020008070200080702000807020008FC
:1000C00007020008070200080702000807020008EC
:1000D00007020008070200080702000807020008DC
:1000E00007020008070200080702000807020008CC
:1000F00007020008070200080702000800000000CD
:1001000000000000070200080000000007020008CD
:1001100007020008000000000702000807020008AC
:10012000070200080702000807020008070200088B
:10013000070200080000000000000000070200089D
:10014000070200080702000800000000000000008D
:10015000000000000000000000000000000000009F
:10016000000000000000000000000000070200087E
:10017000070200080000000000000000000000006E
:10018000000000000702000800000000000000005E
:10019000000000000000000000000000000000005F
:1001A000000000000000000007020008070200082D
:1001B000070200080702000807020008000000000C
:1001C000000000000702000800000000000000001E
:1001D0000702000807020008DFF80CD000F040F822
:1001E00000480047E9250008F00400200648804741
:1001F00006480047FEE7FEE7FEE7FEE7FEE7FEE70C
:10020000FEE7FEE7FEE7FEE709200008D901000847
:10021000D2B201E000F8012B491EFBD27047002248
:10022000F6E710B513460A4604461946FFF7F0FFF5
:10023000204610BD30B50B46014600202022012487
:1002400009E021FA02F59D4205D303FA02F5491BA4
:1002500004FA02F52844151EA2F10102F1DC30BDBA
:10026000064C074D06E0E06840F0010394E8070003
:1002700098471034AC42F6D3FFF7B2FF403800087D
:1002800060380008FEE77047002240F6B83306E009
:100290000021491C89B29942FBD3521C92B282427E
:1002A000F6D3704772B6FEE770B5044600F0FCF86E
:1002B0000546601C02D004484068044400F0F4F88D
:1002C000401BA042FAD370BD1C0000202DE9FC4F5A
:1002D000DFF8A0A1002301250AF1040B03244FF04D
:1002E0000F0C0BF1040EBDE005FA03F632406FD09F
:1002F0004F68012F05D0022F03D0112F01D0122FEC
:1003000017D1D0F808905F0004FA07F829EA080925
:100310000097D1F80C8008FA07F848EA0908C0F8F5
:1003200008804768B7430E79C6F300169E403E43E7
:100330004660C6684FEA430804FA08F7BE430197CF
:100340008F6807FA08F73743C7604E68022E01D05E
:10035000122E13D1DE0800EB86060096366A5F0780
:10036000FF0E0CFA07F926EA0906D1F8109009FAEF
:1003700007F949EA0609009EC6F820900668019F21
:10038000BE430F7907F0030707FA08F73743076002
:100390004E68F60065D5384E376E47F00107376670
:1003A000366E23F0030706F001060096334E3E44F6
:1003B000B146B6689F074FEA17780CFA08F7BE43B4
:1003C000B0F1904F05D02E4FB84204D1012717E06D
:1003D00047E0002714E02B4FB84201D102270FE07D
:1003E000294FB84201D103270AE0284FB84201D172
:1003F000042705E0264FB84201D1052700E0062773
:1004000007FA08F73743C9F80870DAF8006057466A
:10041000D1F8048096435FEAC83800D516433E60A1
:10042000DBF800605F46D1F8048096435FEA8838C5
:1004300000D516433E60DEF800607746D1F80480B0
:1004400096435FEAC82800D516433E60094F0C3733
:100450003E68D1F8048096435FEA882800D51643A9
:100460003E605B1C0A6832FA03F67FF43DAFBDE8DC
:10047000FC8F000000040140001002400000014019
:100480000004004800080048000C00480010004824
:10049000001400480069084000D0012070470AB1EC
:1004A0008161704781627047014880687047000031
:1004B0001C00002002488168426811448160704736
:1004C0001C00002010B50024032000F065F8002077
:1004D00000F008F808B1012401E000F025F82046FA
:1004E00010BD000070B50E4E05460024706898B12E
:1004F0004FF47A71B1FBF0F00A490968B1FBF0F0F2
:1005000000F0EEFB40B9102D06D200222946501E05
:1005100000F022F8356000E00124204670BD0000A4
:100520001C000020280000200A4882B0016E41F023
:1005300001010166016E01F001010091816D41F040
:1005400080518165806D00F08050009002B000F015
:1005500093B8000000100240F0B40E4B1B680C462C
:10056000C3F30223C3F10705042D00D90425191D87
:10057000072901D2002300E0DB1E012606FA05F15F
:10058000491E214099409E40761E16403143F0BCE2
:1005900001F05ABF0CED00E0064900F007020868C0
:1005A0004FF6FF03184040EA0220034A1043086058
:1005B000704700000CED00E00000FA052B492C4BC1
:1005C0000A6832214A432B4940B1B0F5007F0868E0
:1005D00029D020F4C06040F480602CE00868C0F3AB
:1005E0004120022804D051F8800F20F4807022E0CE
:1005F000D1F8800020F48070C1F88000086820F4F1
:10060000C06040F400700860B2FBF3F0401C00E0F2
:10061000401E4A69520501D50028F9D148694005B4
:100620000AD503207047C0F34120022806D051F8B4
:10063000800F40F48070086000207047D1F880007F
:1006400040F48070C1F88000086820F4C06040F475
:1006500000700860B2FBF3F0401C00E0401E4A69E5
:100660005205DBD50028F9D1D8E70000280000208A
:1006700040420F00007000400248816841F4804110
:1006800081607047007000402DE9F0470E4605007C
:100690004FF0000725D0DFF8AC81D8F8000000F05B
:1006A0000F00B0420CD2D8F8001021F00F013143F6
:1006B000C8F80010D8F8000000F00F00B04210D1C8
:1006C0002968614CC80741F2883A5AD06868DFF857
:1006D0007C91032808D0022820682DD040050028EE
:1006E0002CDB0120BDE8F08720688001F9D5E068A7
:1006F00000F00302E068C0F30310401C032A19D085
:10070000534A00BFB2FBF0F0E268C2F30622504346
:10071000E268C2F34162521C5200B0FBF2F048455D
:1007200017D9A06810F0F00F0CD0880711D5A86871
:1007300040B10EE0474AE5E78003D0E700F092F8C9
:10074000484506D9A06820F0F00040F08000A06085
:100750008027A068696820F003000843A060FFF7C5
:10076000A3FE814606E000BFFFF79EFEA0EB090155
:1007700051453AD8A068696800F00C00B0EB810FD1
:10078000F2D12868810714D5400703D5A06840F44A
:10079000E060A0602878000705D5A06820F46050CC
:1007A00040F4E060A060A068A96820F0F000084371
:1007B00004E0802F03D1A06820F0F000A060D8F8FA
:1007C0000010404601F00F01B14216D9016821F036
:1007D0000F0131430160FFF767FE074607E000BFE6
:1007E000FFF762FEC11B514501D903207AE7D8F813
:1007F000000000F00F00B042F2D12878400705D584
:10080000A068E96820F4E0600843A0602878000749
:1008100006D5A068296920F4605040EAC100A060B4
:1008200000F020F8A1680C4AC1F30311515C01F0FB
:100830001F01C8400949086009480068BDE8F04741
:10084000FFF750BE002002400010024000B4C40474
:100850000024F40000366E01303800082800002023
:100860001C000020184910B58868C0F381021748A1
:10087000012A0BD08A68164BC2F38102022A06D0E5
:100880008A68C2F38102032A03D0002010BD1846F3
:1008900010BDCA6802F00304CA68C2F30312521CF6
:1008A000032C02D0B0FBF2F001E0B3FBF2F0CA6817
:1008B000C968C2F306225043C1F34161491C490093
:1008C000B0FBF1F010BD0000001002400024F40065
:1008D00000366E012DE9F84304007AD02078FA4DF5
:1008E000C00747D0A868E96800F00C0001F00301D8
:1008F0000C2802D0082817D001E0032914D0606822
:10090000B0F5803F17D0B0F5A02F286817D020F49D
:1009100080302860286820F4802028606068E0B17A
:10092000FFF7C2FD064614E02868800322D5606800
:100930000028D2D01EE0286840F48030EDE740F473
:1009400080202860F7E700BFFFF7AEFD801B64281A
:1009500070D828688003F7D50CE0FFF7A5FD0646A0
:1009600005E000BFFFF7A0FD801B6428F0D82868D1
:100970008003F7D4207880074CD5A868E96800F098
:100980000C0001F003010C2802D004280DD001E076
:1009900002290AD0E068002828682BD040F4807033
:1009A0002860FFF781FD064619E02868400502D55A
:1009B000E068002891D06868217C20F0FE4040EA81
:1009C00001606860C1480068FFF78CFD002800D115
:1009D00020E076E1FFF768FD801B0228B8D8286880
:1009E0004005F7D56868217C20F0FE4040EA0160B0
:1009F00068600FE020F480702860FFF755FD064620
:100A000005E000BFFFF750FD801B0228A0D8286832
:100A10004005F7D42078000729D560690028D5F86B
:100A2000940013D040F00100C5F89400FFF73CFD9E
:100A3000064606E090E000BFFFF736FD801B022867
:100A400086D8D5F894008007F6D510E020F0010094
:100A5000C5F89400FFF728FD064604E0FFF724FDE3
:100A6000801B022878D8D5F894008007F6D4207827
:100A7000400761D5A86D0026C00008D4A86D40F0DD
:100A80008050A865A86D012600F080500090904825
:100A90000168C90511D40168804641F48071016084
:100AA000FFF702FD074604E0FFF7FEFCC01B02282B
:100AB00052D8D8F80000C005F6D5A068012815D096
:100AC0000528D5F8900016D020F00100C5F8900058
:100AD000D5F8900020F00400C5F89000A06841F21D
:100AE0008838B8B1FFF7E0FC07460EE0D5F8900073
:100AF00040F00100F0E740F00400C5F89000F5E791
:100B0000FFF7D2FCC11B414526D8D5F890008007DD
:100B1000F6D50CE0FFF7C8FC074604E0FFF7C4FC7D
:100B2000C11B414518D8D5F890008007F6D41EB1F6
:100B3000A86D20F08050A8652078800629D5A0698E
:100B40000028D5F8980013D040F00100C5F89800AF
:100B5000FFF7AAFC064606E077E000BFFFF7A4FC1B
:100B6000801B022877D8D5F898008007F6D510E0CA
:100B700020F00100C5F89800FFF796FC064604E057
:100B8000FFF792FC801B022865D8D5F898008007F3
:100B9000F6D4E069F0B3A968C1F38101032961D0FB
:100BA0000228286820F0807028600BD0E86820F0C8
:100BB0000300E860E86847490840E860FFF774FC14
:100BC00004464BE0FFF770FC064604E0FFF76CFCC0
:100BD000801B02283FD828688001F7D4F4E9080177
:100BE0006FF00F0202EB01110843218A52044908F9
:100BF00002EB4151A26841EA02210843217D4FF0F6
:100C00007E42490802EB41610843217B40EAC16012
:100C1000E96800E062E0304A11400843E860286873
:100C200040F080702860E86840F08070E860FFF76E
:100C30003BFC044605E000BFFFF736FC001B022822
:100C400009D828688001F7D548E004E0FFF72CFCBC
:100C5000001B022802D90320BDE8F8832868800120
:100C6000F4D43BE00128F7D0E868226A00F00301E1
:100C7000914226D1616A00F0F002090110399142D7
:100C80001FD1A26A00F4FE41B1EB022F19D194F8F2
:100C90002C2000F07841B1EBC26F12D1218E00F40C
:100CA000C00249084905A1F50011914209D194F803
:100CB000341000F0C06049084906A1F1007181427A
:100CC0000CD00120C8E70000001002401C000020EA
:100CD00000700040FFFFEEFE0C809F010020BBE78C
:100CE00010B5401EB0F1807F01D3012010BD4FF040
:100CF000E02460610F21601701F0A6FB0020A061D5
:100D000007202061002010BDF0B590F83C20012A9A
:100D10004AD0012280F83C20CA688B6822F44072D5
:100D20001A434B6822F480621A430B6822F4006273
:100D30001A430B6922F480521A434B6922F4005281
:100D40001A430B6B22F480421A430B8B22F470225D
:100D500042EA0342154C03680026154DA34201D018
:100D6000AB4203D1CF6922F080523A43A34201D073
:100D7000AB4214D10F8D22F4700242EA07520F6A7F
:100D800022F080723A434F6A22F000723A43A34243
:100D900001D0AB4203D1C96A22F000520A435A641F
:100DA00080F83C600020F0BD0220F0BD002C014026
:100DB00000340140F0B590F83C20012A3AD00125DA
:100DC00080F83C50022280F83D2003685A689C68F5
:100DD000194E1A4FB34201D0BB4204D122F4700C19
:100DE0004A6842EA0C02DFF858C002EA0C02D1F865
:100DF00000C04CEA020CC3F804C00268B2420DD035
:100E0000B2F1804F0AD00F4B9A4207D00E4B9A4254
:100E100004D0BA4202D00D4B9A4204D1896824F022
:100E200080031943916080F83D50002180F83C1008
:100E30000846F0BD0220F0BD002C01400034014006
:100E40008FFFFFFD0004004000080040004001400B
:100E500010B5040003D094F83D0010B107E0012064
:100E600010BD002084F83C00204600F023F802204A
:100E700084F83D00211D206801F0D4F8012084F899
:100E8000480084F83E0084F83F0084F8400084F86D
:100E9000410084F8420084F8430084F8440084F858
:100EA000450084F8460084F8470084F83D0000209F
:100EB00010BD000008B500680649884208D1064800
:100EC000016E41F400310166006E00F400300090C4
:100ED00008BD0000004401400010024030B587B05A
:100EE000044614216846FFF79AF92468164D00233A
:100EF000164902224FF09040AC420ED1CC6C44F027
:100F00000104CC64C96C01F00101059180218DE8D8
:100F10000E00CDE90332694611E00D4DAC4210D10F
:100F2000CC6C44F00104CC64C96C01F00101059162
:100F300040218DE80E000121CDE903316946FFF71C
:100F4000C5F907B030BD00000004004000100240A9
:100F50000044014070B5044690F83C000D4601285D
:100F60000BD0012084F83C000C2A45D007DC5AB194
:100F7000042A1BD0082A78D12CE0022070BD102A48
:100F80004ED0142A71D15DE0206801F0B1F82068DC
:100F9000816941F0080181612068816921F00401C3
:100FA0008161206881692A69114311E0206801F09C
:100FB000EDF82068816941F40061816120688169F0
:100FC00021F480618161206881692A6941EA0221F6
:100FD00081614AE0206801F021F92068C16941F08F
:100FE0000801C1612068C16921F00401C161206864
:100FF000C1692A69114311E0206801F057F920689E
:10100000C16941F40061C1612068C16921F4806156
:10101000C1612068C1692A6941EA0221C16124E0F5
:10102000206801F08BF92068016D41F0080101652D
:101030002068016D21F0040101652068016D2A69B5
:10104000114311E0206801F0B1F92068016D41F40D
:10105000006101652068016D21F4806101652068EF
:10106000016D2A6941EA02210165002084F83C00F3
:1010700070BD10B5040003D094F83D0010B107E036
:10108000012010BD002084F83C00204600F022F82A
:10109000022084F83D00211D206800F0C3FF0120DC
:1010A00084F8480084F83E0084F83F0084F840004B
:1010B00084F8410084F8420084F8430084F8440036
:1010C00084F8450084F8460084F8470084F83D0021
:1010D000002010BD08B500680649884208D10648BE
:1010E000816D41F002018165806D00F00200009089
:1010F00008BD0000000400400010024030B5044666
:10110000022269B1042912D0082917D00C291CD059
:10111000102921D094F84300012824D0012030BDAB
:1011200094F83E000128F9D184F83E201DE094F89F
:101130003F000128F2D184F83F2016E094F84000E7
:101140000128EBD184F840200FE094F841000128F9
:10115000E4D184F8412008E094F842000128DDD170
:1011600084F8422001E084F843200122206800F046
:10117000B1FF194B20681949194A984209D0884291
:1011800007D0904205D0174DA84202D0164DA84274
:1011900003D1456C45F400454564206898420CD065
:1011A000B0F1804F09D0114B984206D0104B9842B5
:1011B00003D0884201D0904207D181680D4A114086
:1011C000062906D0B1F5803F03D0016841F0010146
:1011D0000160002030BD0000002C014000340140BF
:1011E000004001400044014000480140000400402C
:1011F000000800400700010030B504460D460068B5
:10120000002200F067FF224B41F2111120688A0092
:1012100098420BD01F4B984208D01F4B984205D0E4
:101220001E4B984202D01E4B984209D1036A0B42D2
:1012300006D1036A134203D1436C23F40043436491
:101240002068036A0B4206D1016A114203D101688A
:1012500021F00101016001205DB1042D0CD0082DA9
:101260000DD00C2D0ED0102D0FD084F8430000208F
:1012700030BD84F83E00FAE784F83F00F7E784F8D1
:101280004000F4E784F84100F1E784F84200EEE71B
:10129000002C014000340140004001400044014066
:1012A00000480140FEE700002DE9F04387B014211B
:1012B0006846FEF7B4FF3B48C16C41F00401C164CD
:1012C000C16C01F004010591C16C41F00101C164E0
:1012D000C16C01F001010591C16C41F00201C164D2
:1012E000C16C01F002010591C16C41F00801C164BB
:1012F000C06CDFF8B48000F008004FF47F46059022
:10130000002231464046FFF7CAF84FF090470022CE
:1013100030213846FFF7C3F8DFF89090002204210F
:101320004846FFF7BCF8012500240096CDE901549A
:10133000694640460394FEF7C9FFCDE9005469466B
:1013400038460294FEF7C2FF3020CDE900050220A6
:10135000CDE9020469463846FEF7B8FF0720CDE91B
:101360000004694612480294FEF7B0FF0420009082
:10137000CDE90154694648460394FEF7A7FF0122D0
:1013800031464046FFF78BF8012204214846FFF71B
:1013900086F8002204214846FFF781F807B0BDE82F
:1013A000F08300000010024000080048000C0048D4
:1013B00000040048164810B50168164CA268891A46
:1013C000642924D90068A06000F046F82070627893
:1013D00020EA020142408243E170A270607001295C
:1013E00009D002290BD003290DD004290FD1BDE863
:1013F000104000F029B8BDE8104000F00DB8BDE87D
:10140000104000F011B8BDE8104000F015B810BD54
:1014100024000020000000200248017941F0010171
:1014200001717047000000200248017941F002017B
:1014300001717047000000200248017941F0040169
:1014400001717047000000200248017941F0080155
:10145000017170470000002070B50E4D002401217D
:101460002846FFF717F800B9012402212846FFF7A4
:1014700011F800B9022404212846FFF70BF800B93F
:10148000032401214FF09040FFF704F800B9042431
:10149000204670BD0004004800B585B014216846A0
:1014A000FEF7BDFE4FF6FF70009000200321CDE94E
:1014B0000201019069460248FEF708FF05B000BD31
:1014C0000008004800B585B014216846FEF7A7FE65
:1014D0004FF6FF7000900120019003200390002040
:1014E000029069460248FEF7F1FE05B000BD00001B
:1014F0000008004870B5002406462146204600F04A
:1015000003F900F041F94FF49635304600F010F938
:10151000641CAC42F9D370BD30B587B01421684665
:10152000FEF77DFE1E48C16C41F00401C164C16C30
:1015300001F004010591C16C41F00101C164C16C6D
:1015400001F001010591C16C41F00201C164C06C60
:10155000012500F0020005904FF44870CDE9000528
:1015600000240394694602940E48FEF7AFFE280259
:1015700003940090CDE901544FF090446946204611
:10158000FEF7A4FEFFF79EFFA06940F48070A06103
:1015900004481830016841F40871016007B030BD9B
:1015A0000010024000040048203AD2B2034B02EB84
:1015B000420203EB021200F019B800006026000896
:1015C000F0B50E460746002540F23F1407E02146DD
:1015D0003846FFF7E9FF103C6D1CA4B2761C327848
:1015E000002A01D0142DF2D3F0BD00002DE9F04700
:1015F00091468A460026044600F086F8DFF84080CF
:10160000012700BF00F0C0F85FF0000539F81600B0
:1016100007FA05F10842404601D1408800E0008801
:1016200000F086F86D1C102DF0D3641CE4B2514616
:10163000204600F069F8761C182EE3D3BDE8F08749
:101640001600002010B5FFF767FF002000F014F827
:10165000084CA080A088A0F50241303906D000F0E7
:1016600091FB002000F008F8A08010BD00F001FB05
:10167000F7E700001600002070B51D490A6842F423
:1016800000720A600A6842F480720A60184C103CCA
:10169000226842F020022260164A1060086840F07A
:1016A0002000086000BF00BF00BF206840F020009D
:1016B0002060206840F480702060FFF7EDFE4FF05E
:1016C0009041886A40F48070886200BF00BF00BF0C
:1016D0000848001F006885B2886940F480708861FE
:1016E000FFF7F0FE206840F400702060284670BDCF
:1016F000280400481408004801B5BDF8000001495D
:10170000488008BD1600002010B50C460146202078
:1017100000F068F82146BDE81040212000F062B8D2
:1017200001B5BDF800000149088008BD1600002081
:10173000134A116841F400711160114910390B68A6
:1017400043F480730B600B6843F020030B600D4B78
:101750001860106840F02000106000BF00BF00BF9C
:10176000086840F020000860086840F48070086055
:1017700000BF00BF00BF086840F4007008607047F9
:1017800028040048140800481449086840F4007010
:101790000860086840F480700860104810380268DB
:1017A00042F0200202600E4B22221A600A6842F0C8
:1017B00020020A6000BF00BF00BF016841F02001A5
:1017C0000160016841F48071016000BF00BF00BF8B
:1017D000016841F40071016070470000280400486E
:1017E00014080048184B10B51A6842F400721A60C9
:1017F0001A6842F480721A60134A103A146844F06E
:1018000020041460114C2060186840F0200018601B
:1018100000BF00BF00BF106840F0200010601068DB
:1018200040F4807010602160186840F0200018605B
:1018300000BF00BF00BF106840F0200010601068BB
:1018400040F48070106010BD28040048140800485F
:1018500006490A6806480369D21AC82A04D30968E7
:101860000161007900F006B87047000024000020F4
:101870000000002070B5124D044601224FF47F4154
:101880002846FEF70CFE0F4E012204213046FEF7DB
:1018900006FE002204213046FEF701FE210200224E
:1018A0002846FEF7FCFD012204213046FEF7F7FD35
:1018B0003046BDE8704000220421FEF7F0BD000074
:1018C00000080048000C004810B5002220214FF00D
:1018D0009040FEF7E4FD04210A48FFF70FFC094998
:1018E000FA200968886308A11820FFF769FE4FF401
:1018F0007A60FEF7D9FCBDE8104004210148FFF7EB
:101900007BBC0000580000204C696674206973207D
:10191000636C6F73696E672E2E2E2E2E2E000000C4
:1019200010B5002210214FF09040FEF7B8FD0021C5
:101930001B48FFF7E3FB1A494FF416700968486328
:101940008020FFF797FF40F2DC542046FEF7ACFC06
:101950004020FFF78FFF2046FEF7A6FC2020FFF770
:1019600089FF2046FEF7A0FC1020FFF783FF2046EA
:10197000FEF79AFC0020FFF77DFF00210848FFF7E3
:101980003BFC08480178491ECAB2027006A10B4808
:1019900000F046FDBDE8104008496020FFF710BE8A
:1019A000A40000201400002020202020466C6F6F2F
:1019B000745F4E756D3A2564000000004100002000
:1019C00010B5012220214FF09040FEF768FD042160
:1019D0000A48FFF793FB09494FF49670096888633A
:1019E00007A11820FFF7ECFD4FF47A60FEF75CFCCE
:1019F000BDE8104004210148FFF7FEBB580000205D
:101A00004C696674206973204F70656E696E672E2D
:101A10002E2E2E2E2E0000002DE9F041254C0725FC
:101A2000204694F806C0437901790626224F01EA40
:101A3000030021EA0002BCF1080F15D2DFE80CF028
:101A40001404262B14140A31A07800280CD038680E
:101A5000E0602CE03D68E668AE1B0125B6F57A7FB4
:101A600010D369B110B12271BDE8F081994202D959
:101A70004FF0020002E0F7D24FF00300A071F3E74D
:101A8000A571F1E7E0780028FAD1EDE700F016F84B
:101A90006079400003E0FFF743FF60794008607120
:101AA000EEE720B12271FFF78BFFFFF70DFFA67164
:101AB000DAE70000000000202400002010B5012219
:101AC00010214FF09040FEF7EAFC00211B48FFF781
:101AD00015FB1A494FF44870096848631020FFF756
:101AE000C9FE40F2DC542046FEF7DEFB2020FFF763
:101AF000C1FE2046FEF7D8FB4020FFF7BBFE204684
:101B0000FEF7D2FB8020FFF7B5FE2046FEF7CCFBA8
:101B10000020FFF7AFFE00210848FFF76DFB0848E3
:101B20000178491CCAB2027006A10B4800F078FC8B
:101B3000BDE8104008496020FFF742BDA400002026
:101B40001400002020202020466C6F6F745F4E75BB
:101B50006D3A25640000000041000020FEE7FEE72A
:101B600010B594B01C210DA8FEF759FB342168462E
:101B7000FEF755FB20481F49002401604F21C0E9B2
:101B8000011440F2E731C0E9031444618461FFF7B6
:101B90005FF908B1FEF786FB1748FFF76AFA08B14C
:101BA000FEF780FB60200D904FF44870CDE90E04E5
:101BB00010941194129400220DA90F481394FFF76A
:101BC000C9F908B1FEF76EFB00944FF40050CDE95F
:101BD00004400194029403940694694606480C94C8
:101BE000FFF792F808B1FEF75DFB0348FFF776F9BF
:101BF00014B010BD00440140A400002010B58AB00C
:101C00000024079408941C2168460994FEF707FBFA
:101C10001648154901604F21C0E9011440F2F31143
:101C2000C0E903148461FFF724FA08B1FEF73AFB18
:101C3000079407A90D480994FFF7BCF808B1FEF70F
:101C400031FB6020CDE9000404200246049069467F
:101C500002940648FFF77EF908B1FEF723FB03481C
:101C6000FFF73CF90AB010BD000400405800002006
:101C7000704730B501210020FFF7B4FD4FF47A70B2
:101C8000FEF702FB00210120FFF7ACFD41F290714D
:101C90001020FFF7A7FD4FF41C516020FFF7A2FDB5
:101CA00001216120FFF79EFD02214620FFF79AFDEA
:101CB00048F210011320FFF795FD48F2FE011220B3
:101CC000FFF790FD4FF4A0610220FFF78BFD41F27A
:101CD00030010320FFF786FD40F203342146302017
:101CE000FFF780FD21463120FFF77CFD21463220A1
:101CF000FFF778FDE51E29463320FFF773FD03212A
:101D00003420FFF76FFD21463520FFF76BFD1421CE
:101D10003620FFF767FD21463720FFF763FD214698
:101D20003820FFF75FFD21463920FFF75BFD29468C
:101D30003A20FFF757FD03213B20FFF753FD2146D3
:101D40003C20FFF74FFD4FF4A0513D20FFF74AFD27
:101D50004FF400719220FFF745FD21469320FFF7D5
:101D600041FD40F60D019020FFF73CFD41F21801C6
:101D70000320FFF737FDBDE8304040F27311072024
:101D8000FFF730BD10B543F20801E320FFF72AFD4D
:101D90001221E720FFF726FD41F23121EF20FFF766
:101DA00021FD00210120FFF71DFD4FF4E06102201D
:101DB000FFF718FD41F230010320FFF713FD00216A
:101DC0000420FFF70FFD40F207210820FFF70AFD6E
:101DD00000210920FFF706FD00210A20FFF702FD80
:101DE00000210C20FFF7FEFC00210D20FFF7FAFC7C
:101DF00000210F20FFF7F6FC00211020FFF7F2FC76
:101E000007211120FFF7EEFC00211220FFF7EAFC6A
:101E100000211320FFF7E6FCC820FEF745FA41F247
:101E200090611020FFF7DEFC40F227211120FFF720
:101E3000D9FC3220FEF738FA1D211220FFF7D2FC20
:101E40003220FEF731FA4FF400611320FFF7CAFC8D
:101E500014212920FFF7C6FC0B212B20FFF7C2FC21
:101E60003220FEF721FA00212020FFF7BBFC0021E1
:101E70002120FFF7B7FC07213020FFF7B3FC40F229
:101E800007713120FFF7AEFC06213220FFF7AAFCD4
:101E900040F204713520FFF7A5FC41F604713620AD
:101EA000FFF7A0FC04213720FFF79CFC002138201D
:101EB000FFF798FC40F206713920FFF793FC40F2DF
:101EC00001713C20FFF78EFC0F213D20FFF78AFCBB
:101ED00000215020FFF786FCEF215120FFF782FC04
:101EE00000215220FFF77EFC40F23F115320FFF704
:101EF00079FC4FF41C516020FFF774FC0121612034
:101F0000FFF770FC00216A20FFF76CFC00218020A5
:101F1000FFF768FC00218120FFF764FC002182208C
:101F2000FFF760FC00218320FFF75CFC0021842088
:101F3000FFF758FC00218520FFF754FC102190206A
:101F4000FFF750FC00219220FFF74CFC0321932067
:101F5000FFF748FC4FF488719520FFF743FC002100
:101F60009720FFF73FFC00219820FFF73BFC41F250
:101F700018010320FFF736FCBDE8104040F2731152
:101F80000720FFF72FBC7047FEF794BA10B594B046
:101F900038216846FEF743F914210EA8FEF73FF9F1
:101FA0004FF40070FEF70AFB01200090000401903E
:101FB00002200324CDE907041421CDE90A100C9076
:101FC0000D9009946846FEF785FC08B172B6FEE7ED
:101FD0000F20CDE90E0400201090119012900948B6
:101FE000C16C41F02001C164C06C022100F02000EE
:101FF00013900EA8FEF748FB002801D072B6FEE74A
:1020000014B010BD001002400548016841F4700191
:10201000016003494FF0006080390860704700009C
:1020200088ED00E02DE9F0430268234B234D244E58
:10203000244C4FF08049984207D0484505D0A8422B
:1020400003D0B04201D0A04203D122F070074A6809
:102050003A431D4FDFF874C0DFF8748098420DD00A
:1020600048450BD0A84209D0B04207D0A04205D0C5
:10207000B84203D0604501D0404503D122F44075F9
:10208000CA682A434D6922F080022A4302608A68A6
:10209000C2620A688262984207D0A04205D0B84264
:1020A00003D0604501D0404501D109690163012198
:1020B0004161BDE8F0830000002C014000040040B5
:1020C000000800400034014000400140004401404D
:1020D0000048014010B501F01F030121046A994036
:1020E0008C430462016A9A401143016210BD0000F2
:1020F0002DE9F043026A22F001020262056A436898
:1021000082691C4C25F0020522400C6822F0030273
:1021100014438A68194E2A43174D194FDFF864C0DB
:10212000DFF86490A84207D0B04205D0B84203D08F
:10213000604501D0484506D122F00808CA6842EA45
:10214000080222F00402A84207D0B04205D0B842EB
:1021500003D0604501D0484505D14D6923F4407353
:102160001D438B692B43436084614968416302626C
:10217000BDE8F0838FFFFEFF002C014000340140DA
:10218000004001400044014000480140F0B5026AAF
:1021900022F010020262056A42688369194C1B4EE4
:1021A00023400C6823F4407343EA042425F0200301
:1021B0008D6843EA0513144DA84201D0B04206D100
:1021C000CF6823F0800343EA071323F04003A842BB
:1021D0000AD0B04208D00E4DA84205D00D4DA842FD
:1021E00002D00D4DA84207D14D6922F4406242EA67
:1021F00085028D6942EA8502426084614968816393
:102200000362F0BDFF8FFFFE002C0140003401404F
:10221000004001400044014000480140F0B5026A1E
:1022200022F480720262056A4368C269194C1B4E2F
:1022300022400C6822F00302144325F400728D68DA
:1022400042EA0522144DA84201D0B04206D1CF681F
:1022500022F4006242EA072222F48062A8420AD0F5
:10226000B04208D00E4DA84205D00E4DA84202D073
:102270000D4DA84207D14D6923F4405343EA05139D
:102280008D6943EA05134360C4614968C163026212
:10229000F0BD00008FFFFEFF002C01400034014024
:1022A000004001400044014000480140F0B5026A8E
:1022B00022F480520262056A4268C369194C1B4EBF
:1022C00023400C6823F4407343EA042425F40053AC
:1022D0008D6843EA0533144DA84201D0B04206D1BF
:1022E000CF6823F4004343EA073323F48043A84232
:1022F0000AD0B04208D00E4DA84205D00D4DA842DC
:1023000002D00D4DA84207D14D6922F4404242EA65
:1023100085128D6942EA85124260C4614968016490
:102320000362F0BDFF8FFFFE002C0140003401402E
:1023300000400140004401400048014030B5026ABD
:1023400022F480320262046A4268036D114D2B4010
:102350000D681D4324F400330C8943EA04430E4CFA
:10236000A0420BD00D4CA04208D00D4CA04205D08D
:102370000C4CA04202D00C4CA04204D14C6922F477
:10238000803242EA04224260056549688164036242
:1023900030BD00008FFFFEFF002C014000340140E3
:1023A00000400140004401400048014030B5026A4D
:1023B00022F480120262046A4268036D114D24F413
:1023C00000142B400D6843EA05230D8944EA0554A7
:1023D0000D4DA8420BD00D4DA84208D00C4DA8427F
:1023E00005D00C4DA84202D00B4DA84204D14D6936
:1023F00022F4802242EA8522426003654968C16472
:10240000046230BDFF8FFFFE002C0140003401400C
:10241000004001400044014000480140FEE7000048
:102420000FB4084B10B504A902AA039800F02CF8C9
:10243000044602A9002000F0D1F8204610BC5DF847
:1024400014FB0000DD2500080907090E002804DB45
:1024500000F1E02080F80014704700F00F0000F158
:10246000E02080F8141D704702E008C8121F08C160
:10247000002AFAD170477047002001E001C1121F05
:10248000002AFBD1704700002DE9FF4F89B09B4621
:102490000446002506E025280BD05A460B999047A4
:1024A000641C6D1C20780028F5D10DB02846BDE8CD
:1024B000F08F0027B8460122474900E0074314F88F
:1024C000013F203B02FA03F00842F7D120782E2882
:1024D00019D114F8010F47F004072A280ED06FF025
:1024E0002F022078A0F1300109290CD808EB8801CF
:1024F00002EB410100EB0108641CF2E70A98641C3E
:1025000050F8048B0A9020780028CED0642808D098
:10251000692806D075281ED05A460B9990476D1C25
:1025200058E00A994FF00A0901C90A91002802DA15
:1025300040422D2102E0390504D52B218DF82010D1
:10254000012103E0F90704D02021F7E78A4608AE0D
:102550000DE00021FAE70A994FF00A0901C90A9132
:10256000F7E74946FDF766FE303106F8011D002801
:10257000F7D1ADEB060000F12009780701D44FF048
:102580000108C84502DDA8EB090000E000208046F4
:10259000002706E008A85A46C05D0B9990476D1CBD
:1025A0007F1C5745F6DB04E030205A460B999047D4
:1025B0006D1CB8F10001A8F10108F5DC05E016F882
:1025C000010B5A460B9990476D1CB9F10001A9F116
:1025D0000109F4DC641C65E7092801000A68531C42
:1025E0000B60107070470000FDF76CFFFFF7CEFC2A
:1025F000FEF75AFEFFF726F80020FEF77BFF0020CB
:10260000FFF77AF84FF6FF70FFF78AF8FFF7A8FA9E
:10261000FFF7F4FA0A4801220BA1827109480270FF
:102620000E48FFF7FDFE0D496020FEF7C9FF00BF11
:10263000FEF7C0FEFFF70CF9FFF7EEF9F8E7000030
:10264000000000201400002020202020466C6F6F26
:10265000745F4E756D3A2564000000002C00002068
:10266000000000000000000000000000000000006A
:10267000000000000000000000000000000000005A
:10268000000000000000000000000000000000004A
:1026900000008001800180018001800180018001B3
:1026A0008001800180018001800180010000000024
:1026B0008001800100000000000000000000000018
:1026C00000000000CC00CC00CC00CC00CC00CC0042
:1026D00000000000000000000000000000000000FA
:1026E00000000000000000000000000000000000EA
:1026F000000000000000000000000000600C600C02
:10270000600C30063006FE1FFE1F30063807180327
:10271000FE1FFE1F180318038C018C018C010000A2
:1027200000008000E003F80F9C0E8C1C8C188C00BD
:102730009800F801E007800E801C8C188C189C18FB
:10274000B80CF00FE00380008000000000000000E3
:102750000000000000000E181B0C110C11061106E1
:10276000110311039B018E01C038C06C60446044AA
:10277000304430441844186C0C380000000000004D
:102780000000E001F0033807180618063003F001D6
:10279000F000F8009C310E33061E061C061C063F96
:1027A000FC73F021000000000000000000000000A9
:1027B000000000000C000C000C000C000C000C00D1
:1027C0000000000000000000000000000000000009
:1027D00000000000000000000000000000000000F9
:1027E0000000000200038001C000C0006000600023
:1027F0003000300030003000300030003000300059
:1028000060006000C000C000800100030002000002
:10281000000020006000C000800180010003000370
:102820000006000600060006000600060006000678
:102830000003000380018001C00060002000000050
:10284000000000000000000000000000C000C00008
:10285000D806F807E0013003380700000000000048
:102860000000000000000000000000000000000068
:102870000000000000000000000000008001800156
:10288000800180018001FC3FFC3F800180018001CC
:102890008001800100000000000000000000000036
:1028A0000000000000000000000000000000000028
:1028B0000000000000000000000000000000000018
:1028C0000000800180010001000180000000000084
:1028D00000000000000000000000000000000000F8
:1028E0000000000000000000E007E007000000001A
:1028F00000000000000000000000000000000000D8
:1029000000000000000000000000000000000000C7
:1029100000000000000000000000000000000000B7
:102920000000C000C0000000000000000000000027
:102930000000000C000C0006000600060003000367
:1029400000038003800180018001C000C000C0003E
:1029500060006000000000000000000000000000B7
:102960000000E003F007380E180C0C180C180C18B7
:102970000C180C180C180C180C180C18180C380E15
:10298000F007E0030000000000000000000000006D
:10299000000000018001C001F00198018801800160
:1029A000800180018001800180018001800180011F
:1029B0008001800100000000000000000000000015
:1029C0000000E003F80F180C0C180C180018001881
:1029D000000C000600038001C000600030001800F9
:1029E000FC1FFC1F000000000000000000000000B1
:1029F0000000E001F807180E0C0C0C0C000C00068F
:102A0000C003C007000C001800180C180C18180C94
:102A1000F807E003000000000000000000000000D4
:102A20000000000C000E000F000F800DC00C600CA9
:102A3000600C300C180C0C0CFC3FFC3F000C000C24
:102A4000000C000C0000000000000000000000006E
:102A50000000F80FF80F180018000C00EC03FC073A
:102A60001C0E001C0018001800180C181C0C180E66
:102A7000F807E00300000000000000000000000074
:102A80000000C007F00F381C181818000C00CC0309
:102A9000EC0F3C0E1C1C0C180C180C18181C380ED3
:102AA000F007E0030000000000000000000000004C
:102AB0000000FC1FFC1F000C000600060003800342
:102AC0008001C001C000E0006000600070003000C4
:102AD0003000300000000000000000000000000096
:102AE0000000E003F007380E180C180C180C38061C
:102AF000F007F007180C0C180C180C180C18380CF0
:102B0000F80FE003000000000000000000000000DB
:102B10000000E003F007380E1C0C0C180C180C1801
:102B20001C1C381EF81BE0190018000C000C1C0EB1
:102B3000F807F001000000000000000000000000A5
:102B40000000000000000000000000008001800183
:102B50000000000000000000000000000000000075
:102B60008001800100000000000000000000000063
:102B70000000000000000000000000008001800153
:102B80000000000000000000000000000000000045
:102B900080018001000100018000000000000000B1
:102BA0000000000000000000000000000000000025
:102BB0000010001C800FE003F8001800F800E0038C
:102BC000800F001C0010000000000000000000004A
:102BD00000000000000000000000000000000000F5
:102BE000F81F000000000000F81F000000000000B7
:102BF00000000000000000000000000000000000D5
:102C000000000000000000000000000000000000C4
:102C100008003800F001C007001F0018001FC0079F
:102C2000F001380008000000000000000000000073
:102C30000000E003F80F180C0C180C180018000C1A
:102C4000000600038001C000C000C00000000000BA
:102C5000C000C000000000000000000000000000F4
:102C600000000000E00718180420C229224A11447D
:102C700009440944094409221113E20C02400420CA
:102C80001818E0070000000000000000000000002D
:102C9000000080038003C006C006C006600C600C04
:102CA000301830183018F83FF83F1C700C600C607A
:102CB00006C006C000000000000000000000000088
:102CC0000000FC03FC0F0C0C0C180C180C180C0C5E
:102CD000FC07FC0F0C180C300C300C300C300C18AE
:102CE000FC1FFC07000000000000000000000000C6
:102CF0000000C007F01F38381C300C70066006005A
:102D00000600060006000600060006600C701C3077
:102D1000F01FE007000000000000000000000000BD
:102D20000000FE03FE0F060E0618061806300630D9
:102D30000630063006300630063006180618060E35
:102D4000FE0FFE0300000000000000000000000075
:102D50000000FC3FFC3F0C000C000C000C000C00C1
:102D6000FC1FFC1F0C000C000C000C000C000C00E5
:102D7000FC3FFC3F000000000000000000000000DD
:102D80000000F83FF83F180018001800180018005D
:102D9000F81FF81F18001800180018001800180075
:102DA00018001800000000000000000000000000F3
:102DB0000000E00FF83F3C780E6006E007C003001B
:102DC000030003FE03FE03C007C006C00EC03CF0B4
:102DD000F83FE00F000000000000000000000000CD
:102DE00000000C300C300C300C300C300C300C303F
:102DF000FC3FFC3F0C300C300C300C300C300C30F5
:102E00000C300C300000000000000000000000004A
:102E1000000080018001800180018001800180012B
:102E2000800180018001800180018001800180019A
:102E30008001800100000000000000000000000090
:102E40000000000600060006000600060006000658
:102E500000060006000600060006180618063807D9
:102E6000F003E0010000000000000000000000008E
:102E7000000006300618060C060606038601C6008A
:102E800066007600DE008E0106030606060C0618B4
:102E90000630066000000000000000000000000096
:102EA000000018001800180018001800180018007A
:102EB0001800180018001800180018001800180052
:102EC000F81FF81F000000000000000000000000D4
:102ED00000000EE01EF01EF01EF036D836D836D8B0
:102EE00036D866CC66CC66CCC6C6C6C6C6C6C6C60E
:102EF00086C386C300000000000000000000000040
:102F000000000C301C303C303C306C306C30CC302D
:102F1000CC308C310C330C330C360C360C3C0C3C66
:102F20000C380C3000000000000000000000000021
:102F30000000E007F81F1C380E70066003C003C0D5
:102F400003C003C003C003C003C006600E701C387A
:102F5000F81FE00700000000000000000000000073
:102F60000000FC0FFC1F0C380C300C300C300C3007
:102F70000C18FC1FFC070C000C000C000C000C00D3
:102F80000C000C0000000000000000000000000029
:102F90000000E007F81F1C380E70066003E003C055
:102FA00003C003C003C003C007E006630E3F1C3C20
:102FB000F83FE0F700C00000000000000000000043
:102FC0000000FE0FFE1F06380630063006300638B9
:102FD000FE1FFE0706030606060C06180618063036
:102FE0000630066000000000000000000000000045
:102FF0000000E003F80F1C0C0C180C180C001C004F
:10300000F803E00F001E0038063006300E301C1C9E
:10301000F80FE007000000000000000000000000C2
:103020000000FE7FFE7F8001800180018001800121
:103030008001800180018001800180018001800188
:10304000800180010000000000000000000000007E
:1030500000000C300C300C300C300C300C300C30CC
:103060000C300C300C300C300C300C300C3018188C
:10307000F81FE00700000000000000000000000052
:10308000000003600630063006300C180C180C18CF
:10309000180C180C380E30063006700760036003F9
:1030A000C001C0010000000000000000000000009E
:1030B00000000360C361C361C36166336633663376
:1030C0006633663366336C1B6C1B6C1B2C1A3C1E00
:1030D000380E380E00000000000000000000000064
:1030E00000000FE00C7018303018700C600EC00734
:1030F00080038003C003E006700C301C18180C30ED
:103100000E6007E00000000000000000000000006A
:10311000000003C006600C301C383818300C600604
:10312000E007C003800180018001800180018001EF
:10313000800180010000000000000000000000008D
:103140000000FC7FFC7F006000300018000C0006CF
:1031500000038001C0006000300018000C00060071
:10316000FE7FFE7F00000000000000000000000065
:103170000000E003E00360006000600060006000A9
:10318000600060006000600060006000600060003F
:1031900060006000600060006000E003E003000089
:1031A000000030003000600060006000C000C0001F
:1031B000C000C00180018001800100030003000302
:1031C00000060006000000000000000000000000F3
:1031D0000000E003E003000300030003000300031A
:1031E00000030003000300030003000300030003C7
:1031F00000030003000300030003E003E0030000FA
:1032000000000000C001C0016003600360033006DD
:103210003006180C180C0000000000000000000030
:10322000000000000000000000000000000000009E
:10323000000000000000000000000000000000008E
:10324000000000000000000000000000000000007E
:103250000000FFFFFFFF0000000000000000000072
:1032600000000C000C000C000C000C000C00000016
:10327000000000000000000000000000000000004E
:10328000000000000000000000000000000000003E
:10329000000000000000000000000000F003F8073C
:1032A0001C0C0C0C000FF00FF80C0C0C0C0C1C0F71
:1032B000F80FF018000000000000000000000000FF
:1032C000000018001800180018001800D803F80FA4
:1032D000380C181818181818181818181818380C46
:1032E000F80FD803000000000000000000000000FC
:1032F000000000000000000000000000C003F00714
:10330000300E180C1800180018001800180C300E99
:10331000F007C003000000000000000000000000F3
:10332000000000180018001800180018C01BF01F3B
:10333000301C181818181818181818181818301CD5
:10334000F01FC01B00000000000000000000000093
:10335000000000000000000000000000C003F00FAB
:10336000300C1818F81FF81F180018003818301CF7
:10337000F00FC00700000000000000000000000087
:103380000000800FC00FC000C000C000F007F007B1
:10339000C000C000C000C000C000C000C000C0002D
:1033A000C000C0000000000000000000000000009D
:1033B000000000000000000000000000E00DF80F19
:1033C000180E0C0C0C0C0C0C0C0C0C0C0C0C180E21
:1033D000F80FE00D000C0C0C1C06F807F0010000C3
:1033E000000018001800180018001800D807F80F7F
:1033F000381C181818181818181818181818181829
:10340000181818180000000000000000000000005C
:103410000000C000C000000000000000C000C000AC
:10342000C000C000C000C000C000C000C000C0009C
:10343000C000C0000000000000000000000000000C
:103440000000C000C000000000000000C000C0007C
:10345000C000C000C000C000C000C000C000C0006C
:10346000C000C000C000C000C000F800780000002C
:1034700000000C000C000C000C000C000C0C0C06E6
:103480000C038C01CC006C00FC009C018C030C0331
:103490000C060C0C00000000000000000000000002
:1034A0000000C000C000C000C000C000C000C000DC
:1034B000C000C000C000C000C000C000C000C0000C
:1034C000C000C0000000000000000000000000007C
:1034D0000000000000000000000000007C3CFF7EB7
:1034E000C7E383C183C183C183C183C183C183C156
:1034F00083C183C100000000000000000000000044
:103500000000000000000000000000009807F80F15
:10351000381C181818181818181818181818181807
:10352000181818180000000000000000000000003B
:10353000000000000000000000000000C003F00FC9
:10354000300C181818181818181818181818300CE3
:10355000F00FC003000000000000000000000000A9
:10356000000000000000000000000000D803F80F79
:10357000380C181818181818181818181818380CA3
:10358000F80FD803180018001800180018000000E1
:10359000000000000000000000000000C01BF01F41
:1035A000301C181818181818181818181818301C63
:1035B000F01FC01B001800180018001800180000A9
:1035C000000000000000000000000000B007F00351
:1035D000700030003000300030003000300030002B
:1035E000300030000000000000000000000000007B
:1035F000000000000000000000000000E003F003F5
:10360000380E180C3800F003C007000C180C380EE8
:10361000F007E003000000000000000000000000D0
:10362000000000008000C000C000C000F007F007EC
:10363000C000C000C000C000C000C000C000C0008A
:10364000C00780070000000000000000000000002C
:10365000000000000000000000000000181818180A
:103660001818181818181818181818181818381CB6
:10367000F01FE01900000000000000000000000042
:103680000000000000000000000000000C18180CF2
:10369000180C180C30063006300660036003600317
:1036A000C001C00100000000000000000000000098
:1036B000000000000000000000000000C141C14106
:1036C000C3616363636363633636363636361C1C08
:1036D0001C1C1C1C0000000000000000000000007A
:1036E0000000000000000000000000001C38381C32
:1036F000300C600660036003600360036006300CFA
:10370000381C1C3800000000000000000000000011
:103710000000000000000000000000001830301819
:1037200030187018600C600CE00CC006C0068003F6
:103730008003800380018001C001F0007000000060
:10374000000000000000000000000000FC1FFC1F43
:10375000000C000600038001C0006000300018006B
:10376000FC1FFC1F00000000000000000000000023
:10377000000000038001C000C000C000C000C00005
:10378000C00060006000300060004000C000C00069
:10379000C000C000C000C0008001000300000000A5
:1037A0000000800180018001800180018001800192
:1037B0008001800180018001800180018001800101
:1037C0008001800180018001800180018001000072
:1037D00000006000C000C001800180018001800104
:1037E0008001000300030006000300018001800146
:1037F0008001800180018001C000600000000000A5
:1038000000000000000000000000000000000000B8
:10381000F010F81F080F000000000000000000007A
:103820000000000000000000000000000000000098
:103830000000000000000000010203040607080960
:1038400060380008000000202C00000068240008F8
:103850008C3800082C000020C404000078240008E4
:103860000000000000010000000000000000000057
:103870000000000000000000FFFF0000100000003A
:0C38800001000000000000000024F40023
:04000005080001D915
:00000001FF
