:020000040800F2
:1000000028050020ED010008471E0008C31600085F
:10001000451E0008F9020008C92D00080000000074
:10002000000000000000000000000000F5210008B2
:10003000FB02000800000000C11E0008F7210008B4
:10004000070200080702000807020008070200086C
:10005000070200080702000807020008070200085C
:10006000070200080702000807020008070200084C
:10007000070200080702000807020008070200083C
:10008000070200080000000007020008070200083D
:10009000070200080702000807020008070200081C
:1000A000070200080702000807020008070200080C
:1000B00007020008070200080702000807020008FC
:1000C00007020008070200080702000807020008EC
:1000D00007020008BD2D00080702000807020008FB
:1000E00007020008070200080702000807020008CC
:1000F00007020008070200080702000800000000CD
:1001000000000000070200080000000007020008CD
:1001100007020008000000000702000807020008AC
:10012000070200080702000807020008070200088B
:10013000070200080000000000000000070200089D
:10014000070200080702000800000000000000008D
:10015000000000000000000000000000000000009F
:10016000000000000000000000000000070200087E
:10017000070200080000000000000000000000006E
:10018000000000000702000800000000000000005E
:10019000000000000000000000000000000000005F
:1001A000000000000000000007020008070200082D
:1001B000070200080702000807020008000000000C
:1001C000000000000702000800000000000000001E
:1001D0000702000807020008DFF80CD000F07AF8E8
:1001E00000480047152F00082805002006488047D2
:1001F00006480047FEE7FEE7FEE7FEE7FEE7FEE70C
:10020000FEE7FEE7FEE7FEE761220008D9010008ED
:100210002DE9F05F0546002092469B46884606463B
:10022000814640241BE0284641464746224600F0CE
:1002300041F853465A46C01A914110D31146184608
:10024000224600F028F82D1A67EB01084F46224697
:100250000120002100F01FF817EB00094E41201E7D
:10026000A4F10104DFDC484631462A464346BDE896
:10027000F09FD2B201E000F8012B491EFBD270477B
:100280000022F6E710B513460A4604461946FFF762
:10029000F0FF204610BD202A04DB203A00FA02F1CC
:1002A000002070479140C2F1200320FA03F3194364
:1002B00090407047202A04DB203A21FA02F0002106
:1002C000704721FA02F3D040C2F120029140084366
:1002D00019467047064C074D06E0E06840F0010300
:1002E00094E8070098471034AC42F6D3FFF778FF44
:1002F00090410008B0410008FEE77047002240F638
:10030000B83306E00021491C89B29942FBD3521C44
:1003100092B28242F6D3704772B6FEE770B590F89B
:100320002520002401212346022A07D00422C2638B
:1003300080F8251080F82430012429E0026815682F
:1003400025F00E0515600268156825F00105156099
:10035000826C156825F48075156090F84420056C52
:1003600002F01F0201FA02F26A60D0E9132555601B
:10037000426D32B1156825F480751560D0E91625F7
:10038000556080F8251080F82430816B01B18847D2
:10039000204670BD70B5044600F0FCF80546601CB0
:1003A00002D004484068044400F0F4F8401BA04226
:1003B000FAD370BD240000202DE9FC4FDFF8A0A186
:1003C000002301250AF1040B03244FF00F0C0BF15D
:1003D000040EBDE005FA03F632406FD04F68012FDE
:1003E00005D0022F03D0112F01D0122F17D1D0F832
:1003F00008905F0004FA07F829EA08090097D1F885
:100400000C8008FA07F848EA0908C0F8088047682D
:10041000B7430E79C6F300169E403E434660C66859
:100420004FEA430804FA08F7BE4301978F6807FABA
:1004300008F73743C7604E68022E01D0122E13D141
:10044000DE0800EB86060096366A5F07FF0E0CFAA0
:1004500007F926EA0906D1F8109009FA07F949EADE
:100460000609009EC6F820900668019FBE430F79DA
:1004700007F0030707FA08F7374307604E68F600EE
:1004800065D5384E376E47F001073766366E23F074
:10049000030706F001060096334E3E44B146B668A7
:1004A0009F074FEA17780CFA08F7BE43B0F1904F58
:1004B00005D02E4FB84204D1012717E047E00027AE
:1004C00014E02B4FB84201D102270FE0294FB84268
:1004D00001D103270AE0284FB84201D1042705E0E3
:1004E000264FB84201D1052700E0062707FA08F792
:1004F0003743C9F80870DAF800605746D1F804802D
:1005000096435FEAC83800D516433E60DBF80060CA
:100510005F46D1F8048096435FEA883800D51643D9
:100520003E60DEF800607746D1F8048096435FEACB
:10053000C82800D516433E60094F0C373E68D1F8F5
:10054000048096435FEA882800D516433E605B1C12
:100550000A6832FA03F67FF43DAFBDE8FC8F000075
:100560000004014000100240000001400004004867
:1005700000080048000C0048001000480014004823
:100580000069084000D0012070470AB181617047BE
:100590008162704701488068704700002400002095
:1005A000024881684268114481607047240000203D
:1005B00010B50024032000F073F8002000F008F8C4
:1005C00008B1012401E000F025F8204610BD00002C
:1005D00070B50E4E05460024706898B14FF47A71DC
:1005E000B1FBF0F00A490968B1FBF0F000F020FC23
:1005F00040B9102D06D200222946501E00F030F8D6
:10060000356000E00124204670BD00002400002079
:10061000300000200A4882B0016E41F001010166FD
:10062000016E01F001010091816D41F08051816501
:10063000806D00F08050009002B000F0A1B8000082
:1006400000100240002809DB00F01F020121914048
:100650004009800000F1E020C0F800117047000060
:10066000F0B40E4B1B680C46C3F30223C3F107051D
:10067000042D00D90425191D072901D2002300E00B
:10068000DB1E012606FA05F1491E214099409E40D5
:10069000761E16403143F0BC02F0ACBB0CED00E01E
:1006A000064900F0070208684FF6FF03184040EAC9
:1006B0000220034A10430860704700000CED00E080
:1006C0000000FA052B492C4B0A6832214A432B497A
:1006D00040B1B0F5007F086829D020F4C06040F434
:1006E00080602CE00868C0F34120022804D051F853
:1006F000800F20F4807022E0D1F8800020F4807018
:10070000C1F88000086820F4C06040F40070086000
:10071000B2FBF3F0401C00E0401E4A69520501D5CF
:100720000028F9D1486940050AD503207047C0F375
:100730004120022806D051F8800F40F480700860F4
:1007400000207047D1F8800040F48070C1F880002C
:10075000086820F4C06040F400700860B2FBF3F059
:10076000401C00E0401E4A695205DBD50028F9D143
:10077000D8E700003000002040420F000070004029
:100780000248816841F480418160704700700040F8
:100790002DE9F0470E4605004FF0000725D0DFF8A1
:1007A000AC81D8F8000000F00F00B0420CD2D8F8AD
:1007B000001021F00F013143C8F80010D8F80000F4
:1007C00000F00F00B04210D12968614CC80741F217
:1007D000883A5AD06868DFF87C91032808D002284C
:1007E00020682DD0400500282CDB0120BDE8F087D3
:1007F00020688001F9D5E06800F00302E068C0F3EA
:100800000310401C032A19D0534A00BFB2FBF0F07A
:10081000E268C2F306225043E268C2F34162521C0E
:100820005200B0FBF2F0484517D9A06810F0F00F65
:100830000CD0880711D5A86840B10EE0474AE5E71B
:100840008003D0E700F0B6F8484506D9A06820F04C
:10085000F00040F08000A0608027A068696820F068
:1008600003000843A060FFF795FE814606E000BF45
:10087000FFF790FEA0EB090151453AD8A0686968DE
:1008800000F00C00B0EB810FF2D12868810714D57D
:10089000400703D5A06840F4E060A0602878000716
:1008A00005D5A06820F4605040F4E060A060A06826
:1008B000A96820F0F000084304E0802F03D1A0686D
:1008C00020F0F000A060D8F80010404601F00F01C1
:1008D000B14216D9016821F00F0131430160FFF7E1
:1008E00059FE074607E000BFFFF754FEC11B514504
:1008F00001D903207AE7D8F8000000F00F00B042D9
:10090000F2D12878400705D5A068E96820F4E060B6
:100910000843A0602878000706D5A068296920F45C
:10092000605040EAC100A06000F044F8A1680C4AA1
:10093000C1F30311515C01F01F01C840094908606F
:1009400009480068BDE8F047FFF742BE00200240BA
:100950000010024000B4C4040024F40000366E010C
:100960007841000830000020240000200548064996
:1009700000688968054AC1F30221515C01F01F013A
:10098000C840704730000020001002408841000835
:100990000548064900688968054AC1F3C221515CCF
:1009A00001F01F01C84070473000002000100240D5
:1009B00088410008184910B58868C0F381021748BB
:1009C000012A0BD08A68164BC2F38102022A06D094
:1009D0008A68C2F38102032A03D0002010BD1846A2
:1009E00010BDCA6802F00304CA68C2F30312521CA5
:1009F000032C02D0B0FBF2F001E0B3FBF2F0CA68C6
:100A0000C968C2F306225043C1F34161491C490041
:100A1000B0FBF1F010BD0000001002400024F40013
:100A200000366E012DE9F84304007AD02078FA4DA3
:100A3000C00747D0A868E96800F00C0001F0030186
:100A40000C2802D0082817D001E0032914D06068D0
:100A5000B0F5803F17D0B0F5A02F286817D020F44C
:100A600080302860286820F4802028606068E0B129
:100A7000FFF790FD064614E02868800322D56068E1
:100A80000028D2D01EE0286840F48030EDE740F422
:100A900080202860F7E700BFFFF77CFD801B6428FB
:100AA00070D828688003F7D50CE0FFF773FD064681
:100AB00005E000BFFFF76EFD801B6428F0D82868B2
:100AC0008003F7D4207880074CD5A868E96800F047
:100AD0000C0001F003010C2802D004280DD001E025
:100AE00002290AD0E068002828682BD040F48070E2
:100AF0002860FFF74FFD064619E02868400502D53B
:100B0000E068002891D06868217C20F0FE4040EA2F
:100B100001606860C1480068FFF75AFD002800D1F5
:100B200020E076E1FFF736FD801B0228B8D8286860
:100B30004005F7D56868217C20F0FE4040EA01605E
:100B400068600FE020F480702860FFF723FD064600
:100B500005E000BFFFF71EFD801B0228A0D8286813
:100B60004005F7D42078000729D560690028D5F81A
:100B7000940013D040F00100C5F89400FFF70AFD7F
:100B8000064606E090E000BFFFF704FD801B022848
:100B900086D8D5F894008007F6D510E020F0010043
:100BA000C5F89400FFF7F6FC064604E0FFF7F2FCF8
:100BB000801B022878D8D5F894008007F6D42078D6
:100BC000400761D5A86D0026C00008D4A86D40F08C
:100BD0008050A865A86D012600F0805000909048D4
:100BE0000168C90511D40168804641F48071016033
:100BF000FFF7D0FC074604E0FFF7CCFCC01B02283F
:100C000052D8D8F80000C005F6D5A068012815D044
:100C10000528D5F8900016D020F00100C5F8900006
:100C2000D5F8900020F00400C5F89000A06841F2CB
:100C30008838B8B1FFF7AEFC07460EE0D5F8900053
:100C400040F00100F0E740F00400C5F89000F5E73F
:100C5000FFF7A0FCC11B414526D8D5F890008007BE
:100C6000F6D50CE0FFF796FC074604E0FFF792FC90
:100C7000C11B414518D8D5F890008007F6D41EB1A5
:100C8000A86D20F08050A8652078800629D5A0693D
:100C90000028D5F8980013D040F00100C5F898005E
:100CA000FFF778FC064606E077E000BFFFF772FC2E
:100CB000801B022877D8D5F898008007F6D510E079
:100CC00020F00100C5F89800FFF764FC064604E038
:100CD000FFF760FC801B022865D8D5F898008007D4
:100CE000F6D4E069F0B3A968C1F38101032961D0AA
:100CF0000228286820F0807028600BD0E86820F077
:100D00000300E860E86847490840E860FFF742FCF4
:100D100004464BE0FFF73EFC064604E0FFF73AFCD2
:100D2000801B02283FD828688001F7D4F4E9080125
:100D30006FF00F0202EB01110843218A52044908A7
:100D400002EB4151A26841EA02210843217D4FF0A4
:100D50007E42490802EB41610843217B40EAC160C1
:100D6000E96800E062E0304A11400843E860286822
:100D700040F080702860E86840F08070E860FFF71D
:100D800009FC044605E000BFFFF704FC001B022835
:100D900009D828688001F7D548E004E0FFF7FAFB9E
:100DA000001B022802D90320BDE8F88328688001CF
:100DB000F4D43BE00128F7D0E868226A00F0030190
:100DC000914226D1616A00F0F00209011039914286
:100DD0001FD1A26A00F4FE41B1EB022F19D194F8A1
:100DE0002C2000F07841B1EBC26F12D1218E00F4BB
:100DF000C00249084905A1F50011914209D194F8B2
:100E0000341000F0C06049084906A1F10071814228
:100E10000CD00120C8E70000001002402400002090
:100E200000700040FFFFEEFE0C809F010020BBE73A
:100E300010B5401EB0F1807F01D3012010BD4FF0EE
:100E4000E02460610F21601701F0D4FF0020A06151
:100E500007202061002010BDF0B590F83C20012A49
:100E60003AD0012580F83C50022280F83D200368EA
:100E70005A689C68194E1A4FB34201D0BB4204D144
:100E800022F4700C4A6842EA0C02DFF858C002EA09
:100E90000C02D1F800C04CEA020CC3F804C002688E
:100EA000B2420DD0B2F1804F0AD00F4B9A4207D018
:100EB0000E4B9A4204D0BA4202D00D4B9A4204D152
:100EC000896824F080031943916080F83D50002127
:100ED00080F83C100846F0BD0220F0BD002C014017
:100EE000003401408FFFFFFD000400400008004077
:100EF0000040014010B586B0044614216846FFF753
:100F0000BFF92068B0F1804F15D10C48C16C41F099
:100F10000101C164C06C002100F0010005900220B5
:100F20000090CDE9010103900120049069464FF043
:100F30009040FFF741FA06B010BD000000100240DB
:100F400070B5044690F83C000D4601280BD00120F6
:100F500084F83C000C2A45D007DC5AB1042A1BD087
:100F6000082A78D12CE0022070BD102A4ED0142A15
:100F700071D15DE0206801F0E7F92068816941F0F6
:100F8000080181612068816921F004018161206884
:100F900081692A69114311E0206801F023FA206871
:100FA000816941F4006181612068816921F4806177
:100FB0008161206881692A6941EA022181614AE0F0
:100FC000206801F057FA2068C16941F00801C16149
:100FD0002068C16921F00401C1612068C1692A69E2
:100FE000114311E0206801F08DFA2068C16941F4D5
:100FF0000061C1612068C16921F48061C16120681C
:10100000C1692A6941EA0221C16124E0206801F036
:10101000C1FA2068016D41F0080101652068016D89
:1010200021F0040101652068016D2A69114311E076
:10103000206801F0E7FA2068016D41F40061016564
:101040002068016D21F4806101652068016D2A69C5
:1010500041EA02210165002084F83C0070BD10B512
:10106000040003D094F83D0010B107E0012010BD4A
:10107000002084F83C00204600F022F8022084F88A
:101080003D00211D206801F0F9F8012084F8480096
:1010900084F83E0084F83F0084F8400084F8410062
:1010A00084F8420084F8430084F8440084F8450042
:1010B00084F8460084F8470084F83D00002010BD05
:1010C00008B50068B0F1804F08D10548816D41F046
:1010D00001018165806D00F00100009008BD0000F5
:1010E0000010024030B50446022269B1042912D032
:1010F000082917D00C291CD0102921D094F84300BE
:10110000012824D0012030BD94F83E000128F9D1F7
:1011100084F83E201DE094F83F000128F2D184F8C5
:101120003F2016E094F840000128EBD184F84020DD
:101130000FE094F841000128E4D184F8412008E050
:1011400094F842000128DDD184F8422001E084F8BF
:1011500043200122206801F0E9F8194B2068194961
:10116000194A984209D0884207D0904205D0174DBD
:10117000A84202D0164DA84203D1456C45F4004563
:101180004564206898420CD0B0F1804F09D0114BD3
:10119000984206D0104B984203D0884201D090422A
:1011A00007D181680D4A1140062906D0B1F5803F6C
:1011B00003D0016841F001010160002030BD000052
:1011C000002C014000340140004001400044014037
:1011D00000480140000400400008004007000100F2
:1011E00090F87C10012918D0012180F87C1024216E
:1011F000C0F8801050F8601B0A680B6823F00103E8
:101200000B6022F000510022426050F8603C1960EF
:101210002021016202771046704702207047704714
:1012200070B5044690F87C0001281DD0012084F898
:101230007C002420C4F8800020680568026822F041
:10124000010202602068826822F060620A438260C4
:10125000204601F043FA206805602020C4F8800091
:10126000002084F87C0070BD022070BD70B504467B
:1012700090F87C0001281DD0012084F87C002420F7
:10128000C4F8800020680568026822F0010202604C
:101290002068826822F060420A438260204601F0A2
:1012A0001DFA206805602020C4F88000002084F822
:1012B0007C0070BD022070BD704770477047000011
:1012C0002DE9F04103680446D86919689A6840F628
:1012D0000F0528424FF0000509D186067ED501F0A2
:1012E000200602F080573E4378D0E16E9EE0624EC9
:1012F000624F16400F40374370D0C70709D0CF0563
:1013000007D501271F62D4F8883043F00103C4F8E1
:10131000883083070AD5D30708D0276802233B62A9
:10132000D4F8883043F00403C4F8883043070AD562
:10133000D30708D0276804233B62D4F8883043F0F1
:101340000203C4F8883003070CD501F020033343AF
:1013500008D0266808233362D4F8883043F00803A5
:10136000C4F8883003050BD54B0109D526684FF426
:1013700000633362D4F8883043F02003C4F8883027
:10138000D4F88830002B34D0800609D501F0200035
:1013900002F08051084303D0E16E09B1204688472E
:1013A000D4F8880021688968490602D410F0280F13
:1013B00021D0204601F062FA20688168490615D5DF
:1013C000816821F040018160A06F78B12C49816370
:1013D000A06FFEF7A3FF00280BD000E011E0A06F84
:1013E000816B00E02046BDE8F04108472046FFF74A
:1013F00065FFBDE8F0812046FFF760FFC4F8885024
:10140000F7E7C60209D5560207D54FF480101862D7
:101410002046BDE8F041FFF750BF060609D501F0B0
:10142000800602F40002164303D0216F0029D9D1AF
:10143000DFE742060DD54A060BD51968204621F094
:10144000400119602021C4F88010256700F038F9A8
:10145000CFE7020206D54A0004D52046BDE8F04198
:10146000FFF72ABFC001C4D50029C2DA2046BDE873
:10147000F041FFF7D4BE000001000010200100047D
:101480006728000810B5040003D0D4F8800010B11C
:1014900007E0012010BD002084F87C00204600F009
:1014A00027F82420C4F880002068016821F0010199
:1014B0000160204601F0F4FA0128EBD0A06A10B1D7
:1014C000204601F03DF92068416821F490414160D7
:1014D0002068816821F02A0181602068016841F05C
:1014E000010101602046BDE8104001F08DB9000007
:1014F00010B586B0044614216846FEF7C1FE1749B0
:101500002068884227D11648016E41F48041016667
:10151000016E01F480410591C16C41F00101C1648B
:10152000C06C694600F0010005904FF4C060009067
:1015300002200190002002900390072004904FF0B9
:101540009040FEF739FF002211462520FFF788F86A
:101550002520FFF777F806B010BD000000380140E5
:101560000010024070B5D0F88430202B6DD1B9B195
:10157000B2B190F87C30012B67D0012380F87C3029
:101580008165A0F85C20A0F85E200021C166836818
:101590004FF48056FF24B34207D1036913B11CE016
:1015A000012070BD40F2FF131DE07F259BB1B3F118
:1015B000805F15D0A0F86010C0F888102223C0F812
:1015C000843003689C6844F001049C60436EB3F16E
:1015D000005F0ED027E0036943B9A0F86040EBE755
:1015E00003691BB13F23A0F86030E5E7A0F8605025
:1015F000E2E7B0F86830934215D88268B24201D170
:10160000026972B1124AC26680F87C1001680A68E9
:1016100042F480720A600068816841F08051816004
:101620000FE00C4AEFE78268B24201D1026952B181
:10163000094AC26680F87C100068016841F4907124
:101640000160002070BD054AF3E7022070BD000074
:10165000012A000801290008A1290008A128000882
:10166000154930B4884220D11448A0F10B0102780A
:101670000B789A4201D1012200E0002243784C7895
:10168000A34201D1012300E000231A4083788C7823
:10169000A34201D1012300E000231A4205D00279C0
:1016A0000A7042794A708079887030BC07220349F9
:1016B0000148FFF757BF00004C0000201400002035
:1016C0007047FEE7F0B587B014216846FEF7D8FDF5
:1016D0002F48C16C41F00401C164C16C01F00401E8
:1016E0000591C16C41F00101C164C16C01F00101BF
:1016F0000591C16C41F00201C164C16C01F00201AD
:101700000591C16C41F00801C164C06C214F00F02B
:1017100008004FF47F460590012231463846FEF717
:1017200034FF012500240096CDE90154694638466E
:101730000394FEF741FECDE9005469464FF0904016
:101740000294FEF739FE0720CDE9000469461248ED
:101750000294FEF731FE0420CDE900050220CDE918
:1017600002040E4C69462046FEF726FE0122314651
:101770003846FEF70AFF012204212046FEF705FF46
:10178000002204212046FEF700FF07B0F0BD000054
:10179000001002400008004800040048000C004807
:1017A000154810B50168154CE268891A962921D3AD
:1017B0000068E06000F0DAF82070627820EA020148
:1017C00042408243E170A2706070012901D100F0B3
:1017D00017F8E078022801D100F020F8E07803281B
:1017E00001D100F029F8E078042803D1BDE81040C9
:1017F00000F030B810BD00002C00002000000020D8
:10180000054930220878402801D0392801D30A70D0
:101810007047401C087070470600002005493022C0
:101820004878402801D0392801D34A707047401CBD
:10183000487070470600002005493022887840280B
:1018400001D0392801D38A707047401C88707047D6
:101850000600002070B5314CE01C217802789142DE
:1018600001D1012100E00021627843789A4201D140
:10187000012200E000221140A2788078824201D14A
:10188000012000E00020254D0142A5F106054FF0A2
:10189000400629D002202871002000F0B5F820A1D0
:1018A000302000F017F924A1602000F013F926A1E0
:1018B000782000F00FF9012000F09AFA41F2883008
:1018C000FEF768FD002000F093FA002000F09CF87D
:1018D00020A1302000F0FEF8A6706670267001206E
:1018E00028710020687170BDA670667026706879D6
:1018F000401CC0B268710328F5D30024022000F018
:1019000077FA6420FEF746FD002000F071FA6420AB
:10191000FEF740FD641C192CF0DD70BD06000020B0
:10192000202020202020202053544120202020202F
:1019300020202020000000002020202020463A32D5
:10194000303030487A0000002020202020443A31F6
:10195000302500002020202020202020505344202B
:1019600020202020202020200000000070B50E4DF7
:1019700001212846FEF704FE00B901240221284671
:10198000FEF7FEFD00B9022404212846FEF7F8FD0B
:1019900000B9032401214FF09040FEF7F1FD00B99A
:1019A0000424204670BD00000004004800B585B046
:1019B00014216846FEF764FC4FF6FF70009000208B
:1019C0000321CDE90201019069460248FEF7F4FCCB
:1019D00005B000BD0008004800B585B01421684678
:1019E000FEF74EFC4FF6FF7000900120019003209F
:1019F00003900020029069460248FEF7DDFC05B026
:101A000000BD00000008004870B5002406462146CD
:101A1000204600F003F900F041F94FF496353046C6
:101A200000F010F9641CAC42F9D370BD30B587B03A
:101A300014216846FEF724FC1E48C16C41F00401E5
:101A4000C164C16C01F004010591C16C41F0010158
:101A5000C164C16C01F001010591C16C41F002014A
:101A6000C164C06C012500F0020005904FF448707D
:101A7000CDE9000500240394694602940E48FEF760
:101A80009BFC280203940090CDE901544FF0904450
:101A900069462046FEF790FCFFF79EFFA06940F4E0
:101AA0008070A06104481830016841F40871016039
:101AB00007B030BD0010024000040048203AD2B206
:101AC000034B02EB420203EB021200F019B80000D4
:101AD000902F0008F0B50E460746002540F23F144F
:101AE00007E021463846FFF7E9FF103C6D1CA4B221
:101AF000761C3278002A01D0142DF2D3F0BD0000FC
:101B00002DE9F04791468A460026044600F086F803
:101B1000DFF84080012700BF00F0C0F85FF000054B
:101B200039F8160007FA05F10842404601D140880D
:101B300000E0008800F086F86D1C102DF0D3641CC6
:101B4000E4B25146204600F069F8761C182EE3D323
:101B5000BDE8F0871C00002010B5FFF767FF0020EC
:101B600000F014F8084CA080A088A0F5024130399C
:101B700006D000F02FFA002000F008F8A08010BD79
:101B800000F09FF9F7E700001C00002070B51D4928
:101B90000A6842F400720A600A6842F480720A60BD
:101BA000184C103C226842F020022260164A106055
:101BB000086840F02000086000BF00BF00BF206838
:101BC00040F020002060206840F480702060FFF723
:101BD000EDFE4FF09041886A40F48070886200BF4B
:101BE00000BF00BF0848001F006885B2886940F444
:101BF00080708861FFF7F0FE206840F4007020607C
:101C0000284670BD280400481408004801B5BDF8F6
:101C100000000149488008BD1C00002010B50C469A
:101C20000146202000F068F82146BDE81040212040
:101C300000F062B801B5BDF800000149088008BD98
:101C40001C000020134A116841F400711160114911
:101C500010390B6843F480730B600B6843F020036A
:101C60000B600D4B1860106840F02000106000BF42
:101C700000BF00BF086840F020000860086840F41A
:101C80008070086000BF00BF00BF086840F40070AB
:101C90000860704728040048140800481449086880
:101CA00040F400700860086840F4807008601048D4
:101CB0001038026842F0200202600E4B22221A60A5
:101CC0000A6842F020020A6000BF00BF00BF01683E
:101CD00041F020010160016841F48071016000BFA2
:101CE00000BF00BF016841F400710160704700004F
:101CF0002804004814080048184B10B51A6842F42C
:101D000000721A601A6842F480721A60134A103A1C
:101D1000146844F020041460114C2060186840F0EE
:101D20002000186000BF00BF00BF106840F0200016
:101D30001060106840F4807010602160186840F0F6
:101D40002000186000BF00BF00BF106840F02000F6
:101D50001060106840F48070106010BD28040048C6
:101D60001408004810B516490A6816480369D21AC3
:101D7000B2F5967F23D309680161007901281ED14D
:101D8000104C11A1A41D1348227801F01FF811492D
:101D90006020FFF79FFE62780FA10E4801F016F851
:101DA0000C497820FFF796FEA2780EA1094801F0B1
:101DB0000DF8BDE8104007499020FFF78BBE10BD1D
:101DC0002C000020000000202020202042313A2555
:101DD00063000000340000202020202042323A25F9
:101DE000630000002020202042333A2563000000D9
:101DF00070B5124D044601224FF47F412846FEF78C
:101E0000C4FB0F4E012204213046FEF7BEFB002228
:101E100004213046FEF7B9FB210200222846FEF7D6
:101E2000B4FB012204213046FEF7AFFB3046BDE88B
:101E3000704000220421FEF7A8BB00000008004803
:101E4000000C0048FEE7FEE710B58AB000240794B6
:101E500008941C2168460994FEF712FA17484FF0BF
:101E6000804101604F21C0E9011440F2E731C0E92F
:101E700003148461FFF7F3F808B1FEF74DFA0794F5
:101E800007A90E480994FEF7E7FF08B1FEF744FAE8
:101E90006020009040F2F310CDE9010404200246D6
:101EA000049069460548FFF74BF808B1FEF734FA8D
:101EB0000248FFF71FF80AB010BD0000D80000204C
:101EC000704730B501210020FFF716FF4FF47A70FC
:101ED000FEF714FA00210120FFF70EFF41F2907186
:101EE0001020FFF709FF4FF41C516020FFF704FF9B
:101EF00001216120FFF700FF02214620FFF7FCFED1
:101F000048F210011320FFF7F7FE48F2FE011220FD
:101F1000FFF7F2FE4FF4A0610220FFF7EDFE41F261
:101F200030010320FFF7E8FE40F203342146302061
:101F3000FFF7E2FE21463120FFF7DEFE2146322088
:101F4000FFF7DAFEE51E29463320FFF7D5FE032111
:101F50003420FFF7D1FE21463520FFF7CDFE1421B6
:101F60003620FFF7C9FE21463720FFF7C5FE214680
:101F70003820FFF7C1FE21463920FFF7BDFE294674
:101F80003A20FFF7B9FE03213B20FFF7B5FE2146BB
:101F90003C20FFF7B1FE4FF4A0513D20FFF7ACFE0F
:101FA0004FF400719220FFF7A7FE21469320FFF720
:101FB000A3FE40F60D019020FFF79EFE41F21801AE
:101FC0000320FFF799FEBDE8304040F2731107206F
:101FD000FFF792BE10B543F20801E320FFF78CFE35
:101FE0001221E720FFF788FE41F23121EF20FFF7B1
:101FF00083FE00210120FFF77FFE4FF4E061022005
:10200000FFF77AFE41F230010320FFF775FE002151
:102010000420FFF771FE40F207210820FFF76CFE55
:1020200000210920FFF768FE00210A20FFF764FE67
:1020300000210C20FFF760FE00210D20FFF75CFE61
:1020400000210F20FFF758FE00211020FFF754FE5B
:1020500007211120FFF750FE00211220FFF74CFE50
:1020600000211320FFF748FEC820FEF793F941F244
:1020700090611020FFF740FE40F227211120FFF76A
:102080003BFE3220FEF786F91D211220FFF734FEB9
:102090003220FEF77FF94FF400611320FFF72CFE8A
:1020A00014212920FFF728FE0B212B20FFF724FE07
:1020B0003220FEF76FF900212020FFF71DFE0021DE
:1020C0002120FFF719FE07213020FFF715FE40F20F
:1020D00007713120FFF710FE06213220FFF70CFEBA
:1020E00040F204713520FFF707FE41F604713620F7
:1020F000FFF702FE04213720FFF7FEFD0021382004
:10210000FFF7FAFD40F206713920FFF7F5FD40F2C6
:1021100001713C20FFF7F0FD0F213D20FFF7ECFDA2
:1021200000215020FFF7E8FDEF215120FFF7E4FDEB
:1021300000215220FFF7E0FD40F23F115320FFF74E
:10214000DBFD4FF41C516020FFF7D6FD012161201B
:10215000FFF7D2FD00216A20FFF7CEFD002180208D
:10216000FFF7CAFD00218120FFF7C6FD0021822074
:10217000FFF7C2FD00218320FFF7BEFD0021842070
:10218000FFF7BAFD00218520FFF7B6FD1021902052
:10219000FFF7B2FD00219220FFF7AEFD032193204F
:1021A000FFF7AAFD4FF488719520FFF7A5FD0021E8
:1021B0009720FFF7A1FD00219820FFF79DFD41F238
:1021C00018010320FFF798FDBDE8104040F273119D
:1021D0000720FFF791BD0000054808B5C16C41F02C
:1021E0002001C164C06C00F02000009008BD000018
:1021F000001002407047FEF7D3B910B594B03821F3
:102200006846FEF73DF814210EA8FEF739F84FF4A2
:102210000070FEF757FA01200090000401900220A0
:102220000324CDE907041421CDE90A100C900D9088
:1022300009946846FEF7F6FB08B172B6FEE70F2078
:10224000CDE90E04002010901190129002210EA8EA
:10225000FEF79EFA002801D072B6FEE714B010BD5A
:102260000548016841F47001016003494FF00060C6
:10227000803908607047000088ED00E02DE9F043E8
:102280000268234B234D244E244C4FF08049984242
:1022900007D0484505D0A84203D0B04201D0A042A3
:1022A00003D122F070074A683A431D4FDFF874C02B
:1022B000DFF8748098420DD048450BD0A84209D071
:1022C000B04207D0A04205D0B84203D0604501D04B
:1022D000404503D122F44075CA682A434D6922F073
:1022E00080022A4302608A68C2620A688262984257
:1022F00007D0A04205D0B84203D0604501D0404588
:1023000001D10969016301214161BDE8F083000049
:10231000002C01400004004000080040003401404F
:1023200000400140004401400048014010B501F068
:102330001F030121046A99408C430462016A9A4098
:102340001143016210BD00002DE9F043026A22F042
:1023500001020262056A436882691C4C25F002058D
:1023600022400C6822F0030214438A68194E2A4363
:10237000174D194FDFF864C0DFF86490A84207D00A
:10238000B04205D0B84203D0604501D0484506D1DF
:1023900022F00808CA6842EA080222F00402A842B1
:1023A00007D0B04205D0B84203D0604501D04845BF
:1023B00005D14D6923F440731D438B692B43436062
:1023C0008461496841630262BDE8F0838FFFFEFFCC
:1023D000002C014000340140004001400044014015
:1023E00000480140F0B5026A22F010020262056A5C
:1023F00042688369194C1B4E23400C6823F44073D8
:1024000043EA042425F020038D6843EA0513144DA4
:10241000A84201D0B04206D1CF6823F0800343EA3E
:10242000071323F04003A8420AD0B04208D00E4D53
:10243000A84205D00D4DA84202D00D4DA84207D1AB
:102440004D6922F4406242EA85028D6942EA8502C2
:1024500042608461496881630362F0BDFF8FFFFEC3
:10246000002C014000340140004001400044014084
:1024700000480140F0B5026A22F480720262056AE7
:102480004368C269194C1B4E22400C6822F00302BB
:10249000144325F400728D6842EA0522144DA842C7
:1024A00001D0B04206D1CF6822F4006242EA07228E
:1024B00022F48062A8420AD0B04208D00E4DA84251
:1024C00005D00E4DA84202D00D4DA84207D14D694E
:1024D00023F4405343EA05138D6943EA051343602F
:1024E000C4614968C1630262F0BD00008FFFFEFF56
:1024F000002C0140003401400040014000440140F4
:1025000000480140F0B5026A22F480520262056A76
:102510004268C369194C1B4E23400C6823F4407376
:1025200043EA042425F400538D6843EA0533144D2F
:10253000A84201D0B04206D1CF6823F4004343EA59
:10254000073323F48043A8420AD0B04208D00E4D8E
:10255000A84205D00D4DA84202D00D4DA84207D18A
:102560004D6922F4404242EA85128D6942EA8512A1
:102570004260C461496801640362F0BDFF8FFFFEE1
:10258000002C014000340140004001400044014063
:102590000048014030B5026A22F480320262046AC7
:1025A0004268036D114D2B400D681D4324F4003328
:1025B0000C8943EA04430E4CA0420BD00D4CA042C0
:1025C00008D00D4CA04205D00C4CA04202D00C4CBF
:1025D000A04204D14C6922F4803242EA04224260D3
:1025E000056549688164036230BD00008FFFFEFF0E
:1025F000002C0140003401400040014000440140F3
:102600000048014030B5026A22F480120262046A76
:102610004268036D114D24F400142B400D6843EA09
:1026200005230D8944EA05540D4DA8420BD00D4DEC
:10263000A84208D00C4DA84205D00C4DA84202D0AB
:102640000B4DA84204D14D6922F4802242EA852232
:10265000426003654968C164046230BDFF8FFFFEBC
:10266000002C014000340140004001400044014082
:1026700000480140184810B5164901604FF4165142
:102680004160002181600C22C160C0E904128161B7
:10269000C161016241628162FEF7F4FE08B1FDF79B
:1026A0003BFE00210C48FEF7E1FD08B1FDF734FECA
:1026B00000210948FEF7B4FD08B1FDF72DFE0648DC
:1026C000FEF78EFD002803D0BDE81040FDF724BEC4
:1026D00010BD0000003801404C0000203FB514A19F
:1026E000D1E90021CDE9002113A2D2E90012CDE900
:1026F0000212416EB9B1026891689268C1F34261F9
:10270000520F1DF80240E50002ACA25CB5FBF2F2EC
:10271000A0F86A201DF80120615CD200B2FBF1F143
:10272000A0F868103FBD0121A0F86A10F8E700008A
:10273000010101030701000008040204080101016E
:1027400090F82810C90706D001684A68C36A22F4C5
:1027500000321A434A6090F82810890706D50168AC
:102760004A68036B22F480321A434A6090F82810BA
:10277000490706D501684A68436B22F480221A4350
:102780004A6090F82810090706D501684A68836BEB
:1027900022F400421A434A6090F82810C90606D570
:1027A00001688A68C36B22F480521A438A6090F8E9
:1027B0002810890606D501688A68036C22F4005245
:1027C0001A438A6090F82810490611D501684A68B2
:1027D000436C22F480121A434A60416CB1F5801FA9
:1027E00006D101684A68836C22F4C0021A434A6029
:1027F00090F82810090606D501684A68C06C22F4D2
:10280000002202434A607047F8B500260446C0F82B
:102810008860FDF7BFFE0546206800686FF07E47C0
:10282000000708D52B4600224FF4001120460097E0
:1028300000F072FA60B92068006840070AD52B469C
:1028400000224FF480012046009700F065FA08B19D
:102850000320F8BD2020C4F88000C4F8840084F868
:102860007C600020F8BD10B5806A0021A0F85E10E1
:10287000A0F85610FEF722FD10BD000001680A689E
:1028800022F490720A6001688A68044B1A408A60D8
:102890002021C0F884100021C1667047FEFFFFEFC1
:1028A00010B5B0F86020D0F884300168222B04D035
:1028B000886940F00800886110BD496A836D114045
:1028C0001980816D891C8165B0F85E10491EA0F8E1
:1028D0005E10B0F85E100029EED101680A6822F49B
:1028E00090720A6001688A6822F001028A602021E1
:1028F000C0F884100021C166FEF7B2FE10BD0000D2
:1029000070B50446B0F86060D0F88400222805D085
:102910002068816941F00801816170BDB4F8685098
:1029200023E02068406AA16D30400880A06D801CC3
:10293000A065B4F85E00401EA4F85E00B4F85E0026
:1029400088B92068016821F480710160206881687D
:10295000114A114081602020C4F884000020E06604
:102960002046FEF77DFE6D1EADB2002DD9D1B4F824
:102970005E000028D1D0B4F868108142CDD920681B
:10298000816821F0805181600448E0662068016818
:1029900041F02001016070BDFEFFFFEFA12800089B
:1029A00010B5B0F86020D0F884300168222B04D034
:1029B000886940F00800886110BD496A1140826D45
:1029C0001170816D491C8165B0F85E10491EA0F838
:1029D0005E10B0F85E100029EED101680A6822F49A
:1029E00090720A6001688A6822F001028A602021E0
:1029F000C0F884100021C166FEF732FE10BD000051
:102A000070B50446B0F86060D0F88400222805D084
:102A10002068816941F00801816170BDB4F8685097
:102A200023E02068406AA16D30400870A06D401C12
:102A3000A065B4F85E00401EA4F85E00B4F85E0025
:102A400088B92068016821F480710160206881687C
:102A5000114A114081602020C4F884000020E06603
:102A60002046FEF7FDFD6D1EADB2002DD9D1B4F8A4
:102A70005E000028D1D0B4F868108142CDD920681A
:102A8000816821F0805181600448E0662068016817
:102A900041F02001016070BDFEFFFFEFA129000899
:102AA0002DE9F0410446026880682169E369084322
:102AB0006169002519430843616EDFF830C20143A4
:102AC00010688B4B18400843106020684168E2682A
:102AD00021F44051114341602168A069614501D052
:102AE000226A10438A68834B1A4002438A60206836
:102AF000C16A626A21F00F011143C1627E492368F5
:102B00007E488B420DD1D0F8880010F0030006D02B
:102B1000012855D0022842D003283FD152E001209D
:102B20003DE077498B420BD1D0F8880010F00C00C3
:102B300035D0042833D0082840D00C282ED141E0CD
:102B400070498B420BD1D0F8880010F0300026D0AD
:102B5000102835D0202831D030281FD132E06A49E2
:102B60008B420BD1D0F8880010F0C00017D040285D
:102B700026D0802822D0C02810D123E063450DD173
:102B8000D0F8880010F4406009D0B0F5806F17D0FD
:102B9000B0F5006F12D0B0F5406F13D010205B4934
:102BA0005B4F00264FF40042634539D160B10228E3
:102BB00013D004280BD0082831D10DE00220EEE715
:102BC0000420ECE70820EAE7FDF7D0FE01E0FDF77E
:102BD000F1FE010001D17EE01146606A37F8102055
:102BE0006768B1FBF2F007EB470383426FD8B0EBA5
:102BF000073F6CD8002308461946FDF709FB090278
:102C000041EA106102027808101871413A46002327
:102C1000FDF7FEFA3F4AA0F54071914259D956E0BE
:102C2000E3694FF6EF7893422DD109284FD2DFE8C0
:102C300000F00508114E0D4E4E4E1000FDF796FEA9
:102C400001E0FDF7A5FE010004D144E0FDF7B2FE6E
:102C5000F9E71146606A37F81000B1FBF0F0410067
:102C6000606801EB5001B1FBF0F080B2A0F11001FF
:102C700041452CD84FF6F0710140C0F342000143AA
:102C80002068C16027E0092821D2DFE800F00508AC
:102C900011200D2020201000FDF768FE01E0FDF757
:102CA00077FE010004D116E0FDF784FEF9E7114636
:102CB000606A37F81000B1FBF0F1606801EB500179
:102CC000B1FBF0F080B2A0F11001414501D901251E
:102CD00001E02168C8600120A4F86A0024F8680FA8
:102CE00028466660A660BDE8F081000000800040D4
:102CF000F369FFCFFFF4FF110038014000100240DC
:102D00000044004000480040004C00400024F40013
:102D100060410008FFFC0F002DE9F0479A46174676
:102D20000E4604464FF000094FF02008089D39E098
:102D3000681C37D0FDF72EFCA0EB0A00A84222D871
:102D40000DB32068016849072CD5C069C043000550
:102D500028D421684FF4006008622068016821F4DB
:102D6000D07101602068816821F001018160C4F8A0
:102D70008080C4F88480C4F8888000BF84F87C9088
:102D80000320BDE8F0872068016821F4D07101605C
:102D90002068816821F001018160C4F88080C4F856
:102DA0008480EBE72068C06936EA000004D0002088
:102DB000B842BDD00020E4E70120F9E70148FEF762
:102DC0007FBA00004C000020FEE700000FB4084B63
:102DD00010B504A902AA039800F02BF8044602A932
:102DE000002000F091F8204610BC5DF814FB0000B4
:102DF000092F00080907090E002804DB00F1E02074
:102E000080F80014704700F00F0000F1E02080F817
:102E1000141D704702E008C8121F08C1002AFAD129
:102E200070477047002001E001C1121F002AFBD14A
:102E300070472DE9F84F9946924688460546002787
:102E400006E025280AD051464A4690476D1C7F1C53
:102E500028780028F5D13846BDE8F88F002315F80A
:102E6000011F18462E2915D115F8011F04232A2900
:102E70000DD06FF02F022978A1F13004092C09D868
:102E800000EB800002EB400008446D1CF3E758F8AB
:102E9000040B6D1C2A78002ADDD0632A07D0732A20
:102EA0000FD0104651464A4690477F1C2AE018F83A
:102EB000042B8DF8002000218DF801106E460121B1
:102EC00003E058F8046B4FF0FF315A074FF000044D
:102ED00001D409E0641C84420BDA8C42FADB325DD7
:102EE000002AF7D105E0641C8C42FCDB305D002831
:102EF000F9D1274404E016F8010B51464A469047A1
:102F0000641EF8D26D1CA3E70A68531C0B60107096
:102F100070470000FDF74CFBFFF76FF9FFF75CF916
:102F2000FEF7D0FBFFF7A6FBFEF78EFFFEF714FEC1
:102F30000020FEF769FD0020FEF768FE4FF6FF70E7
:102F4000FEF778FE09A13020FEF7C4FD07220D49E7
:102F50000D48FEF707FB04210C48FEF7C3F800BF3D
:102F6000FEF71EFCFEF7FEFEFAE700002020202000
:102F700020202020505344202020202020202020CA
:102F800000000000140000204C000020D8000020A9
:102F90000000000000000000000000000000000031
:102FA0000000000000000000000000000000000021
:102FB0000000000000000000000000000000000011
:102FC000000080018001800180018001800180017A
:102FD00080018001800180018001800100000000EB
:102FE00080018001000000000000000000000000DF
:102FF00000000000CC00CC00CC00CC00CC00CC0009
:1030000000000000000000000000000000000000C0
:1030100000000000000000000000000000000000B0
:10302000000000000000000000000000600C600CC8
:10303000600C30063006FE1FFE1F300638071803EE
:10304000FE1FFE1F180318038C018C018C01000069
:1030500000008000E003F80F9C0E8C1C8C188C0084
:103060009800F801E007800E801C8C188C189C18C2
:10307000B80CF00FE00380008000000000000000AA
:103080000000000000000E181B0C110C11061106A8
:10309000110311039B018E01C038C06C6044604471
:1030A000304430441844186C0C3800000000000014
:1030B0000000E001F0033807180618063003F0019D
:1030C000F000F8009C310E33061E061C061C063F5D
:1030D000FC73F02100000000000000000000000070
:1030E000000000000C000C000C000C000C000C0098
:1030F00000000000000000000000000000000000D0
:1031000000000000000000000000000000000000BF
:103110000000000200038001C000C00060006000E9
:10312000300030003000300030003000300030001F
:1031300060006000C000C0008001000300020000C9
:10314000000020006000C000800180010003000337
:10315000000600060006000600060006000600063F
:103160000003000380018001C00060002000000017
:10317000000000000000000000000000C000C000CF
:10318000D806F807E001300338070000000000000F
:10319000000000000000000000000000000000002F
:1031A000000000000000000000000000800180011D
:1031B000800180018001FC3FFC3F80018001800193
:1031C00080018001000000000000000000000000FD
:1031D00000000000000000000000000000000000EF
:1031E00000000000000000000000000000000000DF
:1031F000000080018001000100018000000000004B
:1032000000000000000000000000000000000000BE
:103210000000000000000000E007E00700000000E0
:10322000000000000000000000000000000000009E
:10323000000000000000000000000000000000008E
:10324000000000000000000000000000000000007E
:103250000000C000C00000000000000000000000EE
:103260000000000C000C000600060006000300032E
:1032700000038003800180018001C000C000C00005
:10328000600060000000000000000000000000007E
:103290000000E003F007380E180C0C180C180C187E
:1032A0000C180C180C180C180C180C18180C380EDC
:1032B000F007E00300000000000000000000000034
:1032C000000000018001C001F00198018801800127
:1032D00080018001800180018001800180018001E6
:1032E00080018001000000000000000000000000DC
:1032F0000000E003F80F180C0C180C180018001848
:10330000000C000600038001C000600030001800BF
:10331000FC1FFC1F00000000000000000000000077
:103320000000E001F807180E0C0C0C0C000C000655
:10333000C003C007000C001800180C180C18180C5B
:10334000F807E0030000000000000000000000009B
:103350000000000C000E000F000F800DC00C600C70
:10336000600C300C180C0C0CFC3FFC3F000C000CEB
:10337000000C000C00000000000000000000000035
:103380000000F80FF80F180018000C00EC03FC0701
:103390001C0E001C0018001800180C181C0C180E2D
:1033A000F807E0030000000000000000000000003B
:1033B0000000C007F00F381C181818000C00CC03D0
:1033C000EC0F3C0E1C1C0C180C180C18181C380E9A
:1033D000F007E00300000000000000000000000013
:1033E0000000FC1FFC1F000C000600060003800309
:1033F0008001C001C000E00060006000700030008B
:10340000300030000000000000000000000000005C
:103410000000E003F007380E180C180C180C3806E2
:10342000F007F007180C0C180C180C180C18380CB6
:10343000F80FE003000000000000000000000000A2
:103440000000E003F007380E1C0C0C180C180C18C8
:103450001C1C381EF81BE0190018000C000C1C0E78
:10346000F807F0010000000000000000000000006C
:10347000000000000000000000000000800180014A
:10348000000000000000000000000000000000003C
:10349000800180010000000000000000000000002A
:1034A000000000000000000000000000800180011A
:1034B000000000000000000000000000000000000C
:1034C0008001800100010001800000000000000078
:1034D00000000000000000000000000000000000EC
:1034E0000010001C800FE003F8001800F800E00353
:1034F000800F001C00100000000000000000000011
:1035000000000000000000000000000000000000BB
:10351000F81F000000000000F81F0000000000007D
:10352000000000000000000000000000000000009B
:10353000000000000000000000000000000000008B
:1035400008003800F001C007001F0018001FC00766
:10355000F00138000800000000000000000000003A
:103560000000E003F80F180C0C180C180018000CE1
:10357000000600038001C000C000C0000000000081
:10358000C000C000000000000000000000000000BB
:1035900000000000E00718180420C229224A114444
:1035A00009440944094409221113E20C0240042091
:1035B0001818E007000000000000000000000000F4
:1035C000000080038003C006C006C006600C600CCB
:1035D000301830183018F83FF83F1C700C600C6041
:1035E00006C006C00000000000000000000000004F
:1035F0000000FC03FC0F0C0C0C180C180C180C0C25
:10360000FC07FC0F0C180C300C300C300C300C1874
:10361000FC1FFC070000000000000000000000008C
:103620000000C007F01F38381C300C700660060020
:103630000600060006000600060006600C701C303E
:10364000F01FE00700000000000000000000000084
:103650000000FE03FE0F060E0618061806300630A0
:103660000630063006300630063006180618060EFC
:10367000FE0FFE030000000000000000000000003C
:103680000000FC3FFC3F0C000C000C000C000C0088
:10369000FC1FFC1F0C000C000C000C000C000C00AC
:1036A000FC3FFC3F000000000000000000000000A4
:1036B0000000F83FF83F1800180018001800180024
:1036C000F81FF81F1800180018001800180018003C
:1036D00018001800000000000000000000000000BA
:1036E0000000E00FF83F3C780E6006E007C00300E2
:1036F000030003FE03FE03C007C006C00EC03CF07B
:10370000F83FE00F00000000000000000000000093
:1037100000000C300C300C300C300C300C300C3005
:10372000FC3FFC3F0C300C300C300C300C300C30BB
:103730000C300C3000000000000000000000000011
:1037400000008001800180018001800180018001F2
:103750008001800180018001800180018001800161
:103760008001800100000000000000000000000057
:10377000000000060006000600060006000600061F
:1037800000060006000600060006180618063807A0
:10379000F003E00100000000000000000000000055
:1037A000000006300618060C060606038601C60051
:1037B00066007600DE008E0106030606060C06187B
:1037C000063006600000000000000000000000005D
:1037D0000000180018001800180018001800180041
:1037E0001800180018001800180018001800180019
:1037F000F81FF81F0000000000000000000000009B
:1038000000000EE01EF01EF01EF036D836D836D876
:1038100036D866CC66CC66CCC6C6C6C6C6C6C6C6D4
:1038200086C386C300000000000000000000000006
:1038300000000C301C303C303C306C306C30CC30F4
:10384000CC308C310C330C330C360C360C3C0C3C2D
:103850000C380C30000000000000000000000000E8
:103860000000E007F81F1C380E70066003C003C09C
:1038700003C003C003C003C003C006600E701C3841
:10388000F81FE0070000000000000000000000003A
:103890000000FC0FFC1F0C380C300C300C300C30CE
:1038A0000C18FC1FFC070C000C000C000C000C009A
:1038B0000C000C00000000000000000000000000F0
:1038C0000000E007F81F1C380E70066003E003C01C
:1038D00003C003C003C003C007E006630E3F1C3CE7
:1038E000F83FE0F700C0000000000000000000000A
:1038F0000000FE0FFE1F0638063006300630063880
:10390000FE1FFE0706030606060C061806180630FC
:10391000063006600000000000000000000000000B
:103920000000E003F80F1C0C0C180C180C001C0015
:10393000F803E00F001E0038063006300E301C1C65
:10394000F80FE00700000000000000000000000089
:103950000000FE7FFE7F80018001800180018001E8
:10396000800180018001800180018001800180014F
:103970008001800100000000000000000000000045
:1039800000000C300C300C300C300C300C300C3093
:103990000C300C300C300C300C300C300C30181853
:1039A000F81FE00700000000000000000000000019
:1039B000000003600630063006300C180C180C1896
:1039C000180C180C380E30063006700760036003C0
:1039D000C001C00100000000000000000000000065
:1039E00000000360C361C361C3616633663366333D
:1039F0006633663366336C1B6C1B6C1B2C1A3C1EC7
:103A0000380E380E0000000000000000000000002A
:103A100000000FE00C7018303018700C600EC007FA
:103A200080038003C003E006700C301C18180C30B3
:103A30000E6007E000000000000000000000000031
:103A4000000003C006600C301C383818300C6006CB
:103A5000E007C003800180018001800180018001B6
:103A60008001800100000000000000000000000054
:103A70000000FC7FFC7F006000300018000C000696
:103A800000038001C0006000300018000C00060038
:103A9000FE7FFE7F0000000000000000000000002C
:103AA0000000E003E0036000600060006000600070
:103AB0006000600060006000600060006000600006
:103AC00060006000600060006000E003E003000050
:103AD000000030003000600060006000C000C000E6
:103AE000C000C001800180018001000300030003C9
:103AF00000060006000000000000000000000000BA
:103B00000000E003E00300030003000300030003E0
:103B1000000300030003000300030003000300038D
:103B200000030003000300030003E003E0030000C0
:103B300000000000C001C0016003600360033006A4
:103B40003006180C180C00000000000000000000F7
:103B50000000000000000000000000000000000065
:103B60000000000000000000000000000000000055
:103B70000000000000000000000000000000000045
:103B80000000FFFFFFFF0000000000000000000039
:103B900000000C000C000C000C000C000C000000DD
:103BA0000000000000000000000000000000000015
:103BB0000000000000000000000000000000000005
:103BC000000000000000000000000000F003F80703
:103BD0001C0C0C0C000FF00FF80C0C0C0C0C1C0F38
:103BE000F80FF018000000000000000000000000C6
:103BF000000018001800180018001800D803F80F6B
:103C0000380C181818181818181818181818380C0C
:103C1000F80FD803000000000000000000000000C2
:103C2000000000000000000000000000C003F007DA
:103C3000300E180C1800180018001800180C300E60
:103C4000F007C003000000000000000000000000BA
:103C5000000000180018001800180018C01BF01F02
:103C6000301C181818181818181818181818301C9C
:103C7000F01FC01B0000000000000000000000005A
:103C8000000000000000000000000000C003F00F72
:103C9000300C1818F81FF81F180018003818301CBE
:103CA000F00FC0070000000000000000000000004E
:103CB0000000800FC00FC000C000C000F007F00778
:103CC000C000C000C000C000C000C000C000C000F4
:103CD000C000C00000000000000000000000000064
:103CE000000000000000000000000000E00DF80FE0
:103CF000180E0C0C0C0C0C0C0C0C0C0C0C0C180EE8
:103D0000F80FE00D000C0C0C1C06F807F001000089
:103D1000000018001800180018001800D807F80F45
:103D2000381C1818181818181818181818181818EF
:103D30001818181800000000000000000000000023
:103D40000000C000C000000000000000C000C00073
:103D5000C000C000C000C000C000C000C000C00063
:103D6000C000C000000000000000000000000000D3
:103D70000000C000C000000000000000C000C00043
:103D8000C000C000C000C000C000C000C000C00033
:103D9000C000C000C000C000C000F80078000000F3
:103DA00000000C000C000C000C000C000C0C0C06AD
:103DB0000C038C01CC006C00FC009C018C030C03F8
:103DC0000C060C0C000000000000000000000000C9
:103DD0000000C000C000C000C000C000C000C000A3
:103DE000C000C000C000C000C000C000C000C000D3
:103DF000C000C00000000000000000000000000043
:103E00000000000000000000000000007C3CFF7E7D
:103E1000C7E383C183C183C183C183C183C183C11C
:103E200083C183C10000000000000000000000000A
:103E30000000000000000000000000009807F80FDC
:103E4000381C1818181818181818181818181818CE
:103E50001818181800000000000000000000000002
:103E6000000000000000000000000000C003F00F90
:103E7000300C181818181818181818181818300CAA
:103E8000F00FC00300000000000000000000000070
:103E9000000000000000000000000000D803F80F40
:103EA000380C181818181818181818181818380C6A
:103EB000F80FD803180018001800180018000000A8
:103EC000000000000000000000000000C01BF01F08
:103ED000301C181818181818181818181818301C2A
:103EE000F01FC01B00180018001800180018000070
:103EF000000000000000000000000000B007F00318
:103F000070003000300030003000300030003000F1
:103F10003000300000000000000000000000000041
:103F2000000000000000000000000000E003F003BB
:103F3000380E180C3800F003C007000C180C380EAF
:103F4000F007E00300000000000000000000000097
:103F5000000000008000C000C000C000F007F007B3
:103F6000C000C000C000C000C000C000C000C00051
:103F7000C0078007000000000000000000000000F3
:103F800000000000000000000000000018181818D1
:103F90001818181818181818181818181818381C7D
:103FA000F01FE01900000000000000000000000009
:103FB0000000000000000000000000000C18180CB9
:103FC000180C180C300630063006600360036003DE
:103FD000C001C0010000000000000000000000005F
:103FE000000000000000000000000000C141C141CD
:103FF000C3616363636363633636363636361C1CCF
:104000001C1C1C1C00000000000000000000000040
:104010000000000000000000000000001C38381CF8
:10402000300C600660036003600360036006300CC0
:10403000381C1C38000000000000000000000000D8
:1040400000000000000000000000000018303018E0
:1040500030187018600C600CE00CC006C0068003BD
:104060008003800380018001C001F0007000000027
:10407000000000000000000000000000FC1FFC1F0A
:10408000000C000600038001C00060003000180032
:10409000FC1FFC1F000000000000000000000000EA
:1040A000000000038001C000C000C000C000C000CC
:1040B000C00060006000300060004000C000C00030
:1040C000C000C000C000C00080010003000000006C
:1040D0000000800180018001800180018001800159
:1040E00080018001800180018001800180018001C8
:1040F0008001800180018001800180018001000039
:1041000000006000C000C0018001800180018001CA
:10411000800100030003000600030001800180010C
:104120008001800180018001C0006000000000006B
:10413000000000000000000000000000000000007F
:10414000F010F81F080F0000000000000000000041
:10415000000000000000000000000000000000005F
:10416000010002000400060008000A000C00100014
:10417000200040008000000100000000000000005E
:1041800001020304060708090000000001020304FD
:10419000B04100080000002034000000142E000888
:1041A000E441000834000020F4040000242E00083C
:1041B00000000000010040404031323300000000A8
:1041C0000000000000000000000000000000FFFFF1
:1041D00000000000100000000100000000000000CE
:0441E0000024F400C3
:04000005080001D915
:00000001FF
