:020000040800F2
:1000000078070020790200081F2200083D1F000821
:100010001D2200087F03000863280008000000007C
:100020000000000000000000000000002322000883
:10003000810300080000000021220008252200089A
:10004000930200089302000893020008930200083C
:10005000930200089302000893020008930200082C
:10006000930200089302000893020008930200081C
:10007000930200089302000893020008930200080C
:100080009302000800000000930200089302000899
:1000900093020008930200089302000893020008EC
:1000A00093020008930200089302000893020008DC
:1000B00093020008A122000893020008930200089E
:1000C00093020008930200089302000893020008BC
:1000D00093020008930200089302000893020008AC
:1000E000930200089302000893020008930200089C
:1000F0009302000893020008930200080000000029
:1001000000000000930200080000000093020008B5
:100110009302000800000000930200089302000808
:10012000930200089302000893020008930200085B
:100130009302000800000000000000009302000885
:100140009302000893020008000000000000000075
:10015000000000000000000000000000000000009F
:1001600000000000000000000000000093020008F2
:1001700093020008000000000000000000000000E2
:1001800000000000930200080000000000000000D2
:10019000000000000000000000000000000000005F
:1001A0000000000000000000930200089302000815
:1001B0009302000893020008930200080000000068
:1001C0000000000093020008000000000000000092
:1001D000930200089302000800F002F800F03CF8D7
:1001E0000AA090E8000C82448344AAF10107DA4592
:1001F00001D100F031F8AFF2090EBAE80F0013F0A8
:10020000010F18BFFB1A43F001031847AC2600008A
:10021000CC260000103A24BF78C878C1FAD852071B
:1002200024BF30C830C144BF04680C607047000070
:100230000023002400250026103A28BF78C1FBD8EF
:10024000520728BF30C148BF0B6070471FB502F08E
:1002500026FB1FBD10B510BD00F058F81146FFF782
:10026000F5FF02F00FFB00F076F803B4FFF7F2FFA2
:1002700003BC00F07DF800000948804709480047AA
:10028000FEE7FEE7FEE7FEE7FEE7FEE7FEE7FEE746
:10029000FEE7FEE704480549054A064B70470000A3
:1002A00091220008D9010008780100207807002079
:1002B00078030020780300204FF0000200B51346B9
:1002C00094469646203922BFA0E80C50A0E80C5076
:1002D000B1F12001BFF4F7AF090728BFA0E80C5027
:1002E00048BF0CC05DF804EB890028BF40F8042B20
:1002F00008BF704748BF20F8022B11F0804F18BF8D
:1003000000F8012B7047704770477047754600F042
:100310002BF8AE4605006946534620F00700854697
:1003200018B020B5FFF7B6FFBDE820404FF000063B
:100330004FF000074FF000084FF0000B21F00701CD
:10034000AC46ACE8C009ACE8C009ACE8C009ACE810
:10035000C0098D46704710B50446AFF300802046B3
:10036000BDE81040FFF781BF00487047140100202E
:1003700001491820ABBEFEE7260002007047FEE7E9
:10038000704772B6FEE700002DE9F047044690F88A
:1003900058009CB00E464FF00009012815D00120EE
:1003A00084F8580000251795189520684FF0A0484C
:1003B00040450ED1284F0097384601F0CEFD8246C9
:1003C000206801F0CAFD60B10EE002201CB0BDE85B
:1003D000F087E06D40F02000E06584F8585001207F
:1003E000F4E7BAF1000F09D0E06D40F02000E065BD
:1003F0004FF0010984F858504846E7E7174832683B
:1004000040F61F71002A826822F4604216D094F8E8
:10041000383042EA433273681A438260D8F80820C1
:10042000BB6802F0010203F001031A43E2D1B36892
:1004300032681A4383688B431A430BE08260D8F812
:100440000820BB6802F0010203F001031A43D1D176
:1004500082688A438260CDE70001005000030050AB
:100460002DE9F84F00270446009790F85800DFF870
:10047000E0930D46B846012811D0012684F8586053
:10048000206801F066FD60B1E06D40F02000E0659D
:100490005FF0010784F858803846BDE8F88F0220E5
:1004A000FBE7D5E900210C23206803EA91131844E7
:1004B000036B01F01F014FF01F0C0CFA01FCC2F39B
:1004C000846223EA0C038A4013430363206801F02B
:1004D00040FD8246206801F038FD5AEA00003CD118
:1004E000AA6829682068B2F1004F37D001F039FDC1
:1004F0002068416921F00041416120686969C26852
:10050000C2F3C102520091402A69042A31D000EBA3
:1005100082002B68026EDFF83CC303F0F84302EA66
:100520000C020B431A4342F00041016620682A691D
:10053000A96900EB8200026E22F080720A43026613
:10054000297F22682869012910D0002102EB800050
:10055000026E22F000720A4302667DE0002201F082
:1005600000FD2068416941F00041C5E74FF000718E
:10057000ECE7002101F0E3FC400320684FF00001AC
:1005800072D001F0DCFC90FAA0F0B0FA80F128689B
:1005900042036ED090FAA0F0B0FA80F0814204D10C
:1005A00000221146206801F0EBFC0121206801F0D7
:1005B000C6FC400320684FF001015DD001F0BFFC94
:1005C00090FAA0F0B0FA80F12868420359D090FA6E
:1005D000A0F0B0FA80F0814204D10022012120680D
:1005E00001F0CEFC0221206801F0A9FC4003206844
:1005F0004FF0020148D001F0A2FC90FAA0F0B0FA4E
:1006000080F12868420344D090FAA0F0B0FA80F05C
:10061000814204D100220221206801F0B1FC0321B3
:10062000206801F08CFC400320684FF0030133D0B8
:1006300001F085FC90FAA0F0B0FA80F1286842033E
:100640002FD090FAA0F0B0FA80F0814204D10022BD
:100650000321206801F094FC2068816811F0010FEB
:1006600022D0ACE000E004E001F069FCC0F384615A
:100670008DE7C0F3846091E701F061FCC0F3846111
:10068000A2E7C0F38460A6E701F059FCC0F38461DF
:10069000B7E7C0F38460BBE701F051FCC0F38461AD
:1006A000CCE7C0F38460D0E72A7B296850F8B03FDC
:1006B000C1F3120C23EA0C0302F0180C664A22FA6A
:1006C0000CF20A4013430360E968494577D1286872
:1006D00041031CD090FAA0F1B1FA81F1491C01F05C
:1006E0001F0109294FEA403132D8002912D000BF3A
:1006F00090FAA0F1B1FA81F101F1010101F01F01BD
:1007000006FA01F609D100BFC0F3846109E0C0F325
:100710008461E3E7C0F38461EEE790FAA0F1B1FAF7
:1007200081F101F1010101F01F0146EA816102D16D
:10073000C0F3846003E090FAA0F0B0FA80F000F11A
:10074000010000F01F0000EB400041EA005132E0E0
:1007500000290ED090FAA0F1B1FA81F101F1010166
:1007600001F01F0106FA01F606D100BFC0F3846153
:1007700006E0C0F38461F1E790FAA0F1B1FA81F1EB
:1007800001F1010101F01F0146EA816102D1C0F3CC
:10079000846003E090FAA0F0B0FA80F000F101006C
:1007A00000F01F002D4A00EB400002EB005041EA30
:1007B000000141F00071AA68206801F0D2FB2848CE
:1007C0002A6802423FF466AE26488168264B01F053
:1007D000E0719A4202D0254B9A421CD10B021AD4E6
:1007E0002268B2F1A04F7FF455AE826841F4000157
:1007F00022F0E0720A4382601D481E490068B0FB87
:10080000F1F0401C00EB4000800000E0401E009032
:100810000028FBD13EE6184D184BAA4207D1CD0166
:1008200005D422689A42F5D041F0807109E0144D58
:10083000AA42EFD14A02EDD422689A42EAD041F4AA
:100840008001826822F0E0720A43826022E60000A2
:1008500000007F4000F0FF03FFFF0700000020FEC4
:100860000000088000030050000021C31000C09069
:100870000C000020400D0300000052C70001005092
:10088000000084CBF8B54FF0000504002E4600951B
:1008900002D0E06D10B107E00120F8BD204600F065
:1008A000EBF8266684F8586020688168C1F34071CF
:1008B00019B18168684A1140816020688168C1F37C
:1008C000007189B98168654A114041F080518160A9
:1008D000634864490068B0FBF1F04000801C00E010
:1008E000401E00900028FBD120688168C1F3007190
:1008F00041B9E16D41F01001E165216E41F0010166
:100900002166012501F025FBE16DC90600D430B157
:10091000E06D40F01000E06501252846F8BDE06D6F
:1009200020F4807040F00200E0652068806810F0DC
:10093000010F11D14FF0A04080684B4900F0010039
:10094000896801F00101084306D14848616882685E
:1009500022F47C120A438260E168E06B627F084304
:10096000A16841EA4231084394F8241040EA01406A
:10097000012904D1218D3E4A02EB41410843E16A3D
:1009800029B101F47871226B014342EA0100226827
:10099000D168384B19400143D16020680169626B0E
:1009A00021F0406111430161206801F0CEFA70BB73
:1009B000207F94F83810800340EA41022168C8681B
:1009C00044F2020398431043C8602069002820685D
:1009D00001690AD041F480310161206850F8C01FDC
:1009E00022696FF30D01114307E021F480310161A9
:1009F000206850F8C01F6FF30D01016094F84000AB
:100A000001280CD02068016921F0010101616069B1
:100A100001282068016B21F00F0111D013E0D4E907
:100A200011010843D4E913121143084321680A69EC
:100A300040F2FC739A43104340F001000861E6E77E
:100A4000226A521E11430163E06D20F0020040F063
:100A50000100E06561E70000C0FFFF5FC0FFFF7FAE
:100A60000C000020400D0300000100500003005066
:100A70000000FEFF0740F0FF10B598B004461421B7
:100A800011A8FFF719FC44216846FFF715FC206800
:100A9000B0F1A04F26D14FF40040009080030F909A
:100AA000684600F04DFA08B1FFF76BFC0E48C16CC8
:100AB00041F40051C164C16C01F400511691C16C44
:100AC00041F00201C164C06C11A900F0020016904F
:100AD0004FF480501190032012900020139003488F
:100AE00000F006F818B010BD0010024000040048E5
:100AF0002DE9F04FDFF82092002301260324A9F10D
:100B0000040B85B00F2709F1040AABF1040EFAE0DB
:100B100006FA03F52A407CD091F804C00CF0030CCF
:100B2000BCF1010F02D0BCF1020F26D1D0F808C0F1
:100B3000CDF800C04FEA430C04FA0CF8CDF810C011
:100B4000DDF800C02CEA080CCDF800C0D1F80C800C
:100B5000DDF810C008FA0CF8DDF800C048EA0C080F
:100B6000C0F80880D0F804C02CEA050C0D79C5F354
:100B700000159D4045EA0C0545600D79ED43AD0734
:100B80000ED0C5684FEA430804FA08FC25EA0C05B4
:100B9000D1F808C00CFA08FC4CEA050CC0F80CC0EF
:100BA0000D7905F00305022D16D1DD0800EB850C4B
:100BB000CDF808C0DCF820805D074FEAD56C07FA55
:100BC0000CF528EA05080D6905FA0CF5DDF808C0F2
:100BD00045EA0805CCF8205005684FEA430CCDF8EB
:100BE00008C004FA0CFC25EA0C0591F804C00CF0CE
:100BF0000308DDF808C008FA0CF848EA0508C0F850
:100C000000804D6815F4403F7CD0444DD5F860C05D
:100C100000E077E04CF0010CC5F860C02D6E23F0C9
:100C2000030C05F0010500953D4D65440295AD6846
:100C30004FEA837C4FEA1C7807FA08FC25EA0C058A
:100C4000B0F1904F06D0DFF8DCC0604505D14FF021
:100C5000010C20E04FF0000C1DE0DFF8CCC0604537
:100C600002D14FF0020C16E0DFF8C0C0604502D19F
:100C70004FF0030C0FE0DFF8B8C0604502D14FF031
:100C8000040C08E0DFF8ACC0604502D14FF0050C61
:100C900001E04FF0060C0CFA08FC4CEA050C029D32
:100CA000C5F808C0D9F80050CC46D1F80480954367
:100CB0005FEAC82800D51543CCF80050DAF8005098
:100CC000D446D1F8048095435FEA882800D51543BF
:100CD000CCF80050DBF80050DC46D1F80480954396
:100CE0005FEA883800D51543CCF80050DEF8005094
:100CF000F446D1F8048095435FEAC83800D515431F
:100D0000CCF800505B1C0A6832FA03F57FF400AFA0
:100D100005B0BDE8F08F000008040140001002405B
:100D2000000001400004004800080048000C004892
:100D300000100048001400480AB1816170478162C8
:100D400070470000014880687047000000000020E4
:100D500002488168426811448160704700000020A9
:100D600010B50024032000F073F80F2000F008F8FD
:100D700008B1012401E000F025F8204610BD000074
:100D800070B50E4E05460024706898B14FF47A7124
:100D9000B1FBF0F00A490968B1FBF0F000F03CFD4E
:100DA00040B9102D06D200222946501E00F030F81E
:100DB000356000E00124204670BD000000000020E6
:100DC0000C0000200A4882B0016E41F0010101666A
:100DD000016E01F001010091816D41F0805181654A
:100DE000806D00F08050009002B000F0A1B80000CB
:100DF00000100240002809DB00F01F020121914091
:100E00004009800000F1E020C0F8001170470000A8
:100E1000F0B40E4B1B680C46C3F30223C3F1070565
:100E2000042D00D90425191D072901D2002300E053
:100E3000DB1E012606FA05F1491E214099409E401D
:100E4000761E16403143F0BC01F00CBD0CED00E005
:100E5000064900F0070208684FF6FF03184040EA11
:100E60000220034A10430860704700000CED00E0C8
:100E70000000FA052B492C4B0A6832214A432B49C2
:100E800040B1B0F5007F086829D020F4C06040F47C
:100E900080602CE00868C0F34120022804D051F89B
:100EA000800F20F4807022E0D1F8800020F4807060
:100EB000C1F88000086820F4C06040F40070086049
:100EC000B2FBF3F0401C00E0401E4A69520501D518
:100ED0000028F9D1486940050AD503207047C0F3BE
:100EE0004120022806D051F8800F40F4807008603D
:100EF00000207047D1F8800040F48070C1F8800075
:100F0000086820F4C06040F400700860B2FBF3F0A1
:100F1000401C00E0401E4A695205DBD50028F9D18B
:100F2000D8E700000C00002040420F000070004095
:100F30000248816841F48041816070470070004040
:100F40002DE9F8430446006800269D4D00035ED558
:100F5000A86D0027C00008D4A86D40F08050A86597
:100F6000A86D012700F080500090DFF85892D9F862
:100F7000001041F48071C9F80010FFF7E3FE8046CD
:100F800006E000BFFFF7DEFEA0EB080002282BD82A
:100F9000D9F80000C005F5D5D5F8900010F44070E0
:100FA00014D0216C814211D0D5F89000D5F8901062
:100FB00020F4407041F48031C5F89010D5F89010BD
:100FC00021F48031C5F89010C5F89000C00711D009
:100FD000FFF7B8FE804641F2883907E0FFF7B2FE1E
:100FE000A0EB0801494501D903260BE0D5F8900094
:100FF0008007F3D5D5F89000216C20F440700843A9
:10100000C5F890001FB1A86D20F08050A865207829
:10101000C00707D0D5F88800616820F003000843B6
:10102000C5F888002078800707D5D5F88800A16822
:1010300020F00C000843C5F888002078400707D549
:10104000D5F88800E16820F030000843C5F8880032
:101050002078000707D5D5F88800216920F0C00066
:101060000843C5F888002078800607D5D5F88800A1
:10107000616920F440600843C5F888002078400684
:1010800007D5D5F88800A16920F440500843C5F879
:1010900088002078000607D5D5F88800E16920F49B
:1010A00040400843C5F888002088C00507D5D5F81A
:1010B0008800216A20F440300843C5F88800208861
:1010C000800507D5D5F88800616A20F440200843E0
:1010D000C5F88800208840050FD5D5F88800A16A9A
:1010E00020F440100843C5F88800A06AB0F5801FBE
:1010F00003D1E86840F48010E860208800050FD52F
:10110000D5F88800E16A20F440000843C5F888005B
:10111000E06AB0F5800F03D1E86840F48010E86021
:101120002088C0040FD5D5F88800216B20F04070CE
:101130000843C5F88800206BB0F1807F03D1E868D0
:1011400040F48010E86020884FF0006180040ED5E4
:10115000D5F88800626B20F040601043C5F8880025
:10116000606B884203D1E86840F48010E860208812
:1011700040040ED5D5F88800A26B20F040601043E3
:10118000C5F88800A06B884203D1E86840F480105D
:10119000E860208800040FD5D5F88800E16B20F0C6
:1011A00040500843C5F88800E06BB0F1805F03D180
:1011B000E86840F48030E8603046BDE8F88300001D
:1011C00000100240007000402DE9F0470E46050077
:1011D0004FF0000725D0DFF8AC81D8F8000000F010
:1011E0000F00B0420CD2D8F8001021F00F013143AB
:1011F000C8F80010D8F8000000F00F00B04210D17D
:101200002968614CC80741F2883A5AD06868DFF80B
:101210007C91032808D0022820682DD040050028A2
:101220002CDB0120BDE8F08720688001F9D5E0685B
:1012300000F00302E068C0F30310401C032A19D039
:10124000534A00BFB2FBF0F0E268C2F306225043FB
:10125000E268C2F34162521C5200B0FBF2F0484512
:1012600017D9A06810F0F00F0CD0880711D5A86826
:1012700040B10EE0474AE5E78003D0E700F092F87E
:10128000484506D9A06820F0F00040F08000A0603A
:101290008027A068696820F003000843A060FFF77A
:1012A00051FD814606E000BFFFF74CFDA0EB0901B0
:1012B00051453AD8A068696800F00C00B0EB810F86
:1012C000F2D12868810714D5400703D5A06840F4FF
:1012D000E060A0602878000705D5A06820F4605081
:1012E00040F4E060A060A068A96820F0F000084326
:1012F00004E0802F03D1A06820F0F000A060D8F8AF
:101300000010404601F00F01B14216D9016821F0EA
:101310000F0131430160FFF715FD074607E000BFED
:10132000FFF710FDC11B514501D903207AE7D8F81A
:10133000000000F00F00B042F2D12878400705D538
:10134000A068E96820F4E0600843A06028780007FE
:1013500006D5A068296920F4605040EAC100A06069
:1013600000F020F8A1680C4AC1F30311515C01F0B0
:101370001F01C8400949086009480068BDE8F047F6
:10138000FFF7FEBC002002400010024000B4C4047D
:101390000024F40000366E01A82800080C0000208C
:1013A00000000020184910B58868C0F38102174872
:1013B000012A0BD08A68164BC2F38102022A06D09A
:1013C0008A68C2F38102032A03D0002010BD1846A8
:1013D00010BDCA6802F00304CA68C2F30312521CAB
:1013E000032C02D0B0FBF2F001E0B3FBF2F0CA68CC
:1013F000C968C2F306225043C1F34161491C490048
:10140000B0FBF1F010BD0000001002400024F40019
:1014100000366E012DE9F84304007AD02078F84DAB
:10142000C00747D0A868E96800F00C0001F003018C
:101430000C2802D0082817D001E0032914D06068D6
:10144000B0F5803F17D0B0F5A02F286817D020F452
:1014500080302860286820F4802028606068E0B12F
:10146000FFF770FC064614E02868800322D5606808
:101470000028D2D01EE0286840F48030EDE740F428
:1014800080202860F7E700BFFFF75CFC801B642822
:1014900070D828688003F7D50CE0FFF753FC0646A8
:1014A00005E000BFFFF74EFC801B6428F0D82868D9
:1014B0008003F7D4207880074CD5A868E96800F04D
:1014C0000C0001F003010C2802D004280DD001E02B
:1014D00002290AD0E068002828682BD040F48070E8
:1014E0002860FFF72FFC064619E02868400502D562
:1014F000E068002891D06868217C20F0FE4040EA36
:1015000001606860BF480068FFF73AFC002800D11E
:1015100020E072E1FFF716FC801B0228B8D828688B
:101520004005F7D56868217C20F0FE4040EA016064
:1015300068600FE020F480702860FFF703FC064627
:1015400005E000BFFFF7FEFB801B0228A0D828683B
:101550004005F7D42078000729D560690028D5F820
:10156000940013D040F00100C5F89400FFF7EAFBA7
:10157000064606E090E000BFFFF7E4FB801B022870
:1015800086D8D5F894008007F6D510E020F0010049
:10159000C5F89400FFF7D6FB064604E0FFF7D2FB40
:1015A000801B022878D8D5F894008007F6D42078DC
:1015B000400761D5A86D0026C00008D4A86D40F092
:1015C0008050A865A86D012600F0805000908E48DC
:1015D0000168C90511D40168804641F48071016039
:1015E000FFF7B0FB074604E0FFF7ACFBC01B022887
:1015F00052D8D8F80000C005F6D5A068012815D04B
:101600000528D5F8900016D020F00100C5F890000C
:10161000D5F8900020F00400C5F89000A06841F2D1
:101620008838B8B1FFF78EFB07460EE0D5F890007A
:1016300040F00100F0E740F00400C5F89000F5E745
:10164000FFF780FBC11B414526D8D5F890008007E5
:10165000F6D50CE0FFF776FB074604E0FFF772FBD8
:10166000C11B414518D8D5F890008007F6D41EB1AB
:10167000A86D20F08050A8652078800629D5A06943
:101680000028D5F8980013D040F00100C5F8980064
:10169000FFF758FB064606E075E000BFFFF752FB78
:1016A000801B02286FD8D5F898008007F6D510E087
:1016B00020F00100C5F89800FFF744FB064604E05F
:1016C000FFF740FB801B02285DD8D5F89800800703
:1016D000F6D4E069F0B3A968C1F3810103295DD0B4
:1016E0000228286820F08070286003D0FFF72AFBCA
:1016F00004464BE0FFF726FB064604E0FFF722FB1B
:10170000801B02283FD828688001F7D4F4E908013B
:101710006FF00F0202EB01110843218A52044908BD
:1017200002EB4151A26841EA02210843217D4FF0BA
:101730007E42490802EB41610843217B40EAC160D7
:10174000E968324A11400843E860286840F0807038
:10175000286000E05EE0E86840F08070E860FFF735
:10176000F1FA044605E000BFFFF7ECFA001B02287F
:1017700009D828688001F7D54CE000BFFFF7E2FAEE
:10178000001B022802D90320BDE8F88328688001E5
:10179000F4D4E8681E490840E8603BE00128F3D033
:1017A000E868226A00F00301914226D1616A00F0E4
:1017B000F0020901103991421FD1A26A00F4FE41E2
:1017C000B1EB022F19D194F82C2000F07841B1EB45
:1017D000C26F12D1218E00F4C00249084905A1F55B
:1017E0000011914209D194F8341000F0C06049080A
:1017F0004906A1F1007181420CD00120C4E700002C
:101800000010024000000020007000400C809F018A
:10181000FCFFEEFE0020B7E710B5401EB0F1807F60
:1018200001D3012010BD4FF0E02460610F2160174B
:1018300001F018F80020A06107202061002010BDF1
:10184000704770477047704770477047F0B590F821
:101850003C20012A3AD0012580F83C50022280F831
:101860003D2003685A689C68194E1A4FB34201D054
:10187000BB4204D122F4700C4A6842EA0C02DFF841
:1018800058C002EA0C02D1F800C04CEA020CC3F8BE
:1018900004C00268B2420DD0B2F1804F0AD00F4BA3
:1018A0009A4207D00E4B9A4204D0BA4202D00D4B56
:1018B0009A4204D1896824F080031943916080F82A
:1018C0003D50002180F83C100846F0BD0220F0BDDC
:1018D000002C0140003401408FFFFFFD0004004058
:1018E0000008004000400140704710B5040003D0DC
:1018F00094F83D0010B107E0012010BD002084F8ED
:101900003C00204600F022F8022084F83D00211D12
:10191000206800F0CBFC012084F8480084F83E00E9
:1019200084F83F0084F8400084F8410084F84200C5
:1019300084F8430084F8440084F8450084F84600A5
:1019400084F8470084F83D00002010BD10B586B033
:10195000044614216846FEF7AFFC16492068884209
:1019600025D11548816D41F002018165816D01F03D
:1019700002010591C16C41F00101C164C06C0021FC
:1019800000F001000590802000900220CDE90101C7
:10199000CDE9031069464FF09040FFF7A9F8002207
:1019A00011461D20FFF734FA1D20FFF723FA06B079
:1019B00010BD0000000400400010024070472DE9F7
:1019C000F041054690F83C0000260C46012810D056
:1019D000012085F83C0072B1042A1CD0082A2CD0C2
:1019E0000C2A50D00126002085F83C003046BDE886
:1019F000F0810220FBE7D4E90012E368286800F0D8
:101A0000CDFE2868816921F00C0181612868816917
:101A1000A26811430FE0D4E90012E368286800F0DF
:101A200005FF2868816921F4406181612868816926
:101A3000A26841EA02218161D5E72868D4E9002C37
:101A4000277B036A016A21F480710162C16923F472
:101A5000206321F0030141EA0C0121F0F00C390769
:101A60004FF420674CEA116107EA02221A43C16170
:101A700002622868C16921F00C01C1612868C1694E
:101A8000A26811432BE02868D4E90021E768036AC3
:101A9000D0F820C02CF4805CC0F820C0D0F81CC066
:101AA00023F420432CF4407C4CEA012121F4704CB7
:101AB0004FF6FF7101EA07314FF4204741EA0C016C
:101AC00007EA02321A43C16102622868C16921F43F
:101AD0004061C1612868C169A26841EA0221C1610F
:101AE00081E710B5040003D094F83D0010B107E081
:101AF000012010BD002084F83C00204600F022F8B0
:101B0000022084F83D00211D206800F0CFFB012059
:101B100084F8480084F83E0084F83F0084F84000D0
:101B200084F8410084F8420084F8430084F84400BB
:101B300084F8450084F8460084F8470084F83D00A6
:101B4000002010BD70472DE9F04104460068C668CA
:101B500005694FF00007A90713D5B10711D5F91E84
:101B6000016101202077206880698007204602D02B
:101B7000FFF724FF04E000F0DDF8204600F0B0F9A4
:101B80002777680716D5700714D521686FF0040011
:101B90000861022020772068806910F4407F204689
:101BA00002D0FFF70BFF04E000F0C4F8204600F07D
:101BB00097F92777280715D5300713D521686FF0D7
:101BC00008000861042020772068C069800720464B
:101BD00002D0FFF7F3FE04E000F0ACF8204600F07E
:101BE0007FF92777E80616D5F00614D521686FF03F
:101BF00010000861082020772068C06910F4407F39
:101C0000204602D0FFF7DAFE04E000F093F8204609
:101C100000F066F92777E80708D0F00706D02168BA
:101C20006FF001000861204600F05BF9280601D43E
:101C3000A80408D5300606D521686FF40250086163
:101C40002046FFF7FEFDE80508D5300606D52168D9
:101C50006FF4807008612046FFF7F2FD680608D532
:101C6000700606D521686FF040000861204600F03C
:101C700064F9A80608D5B00606D521686FF02000E3
:101C800008612046FFF7DEFDE80208D5F00206D520
:101C900021686FF4801008612046FFF7D5FDA80287
:101CA00008D5B00206D521686FF4001008612046FF
:101CB000FFF7C9FD680208D5700206D521686FF4E8
:101CC000800008612046FFF7C0FD28020AD53002D7
:101CD00008D521686FF4000008612046BDE8F04196
:101CE000FFF702BEBDE8F08110B586B004461421AE
:101CF0006846FEF7E1FA2068B0F1804F15D10C4834
:101D0000C16C41F00101C164C06C694600F0010082
:101D10000590022000900190002002900390012085
:101D200004904FF09040FEF7E3FE06B010BD0000B7
:101D300000100240704770B5044690F83C00002641
:101D40000D4601280BD0012084F83C000C2A4AD013
:101D500007DC82B1042A20D0082A06D131E0022013
:101D600070BD102A53D0142A63D00126002084F8B5
:101D70003C00304670BD206800F000FB206881699F
:101D800041F0080181612068816921F004018161CD
:101D9000206881692A69114311E0206800F03CFB4A
:101DA0002068816941F4006181612068816921F4C2
:101DB00080618161206881692A6941EA022181612B
:101DC000D4E7206800F070FB2068C16941F0080189
:101DD000C1612068C16921F00401C1612068C16945
:101DE0002A69114311E0206800F0A6FB2068C16950
:101DF00041F40061C1612068C16921F48061C16161
:101E00002068C1692A6941EA0221C161AEE7206800
:101E100000F0DAFB2068016D41F0080101652068DF
:101E2000016D21F0040101652068016D2A691143EB
:101E300011E0206800F000FC2068016D41F40061B1
:101E400001652068016D21F4806101652068016DE4
:101E50002A6941EA0221016588E710B5040003D030
:101E600094F83D0010B107E0012010BD002084F877
:101E70003C00204600F022F8022084F83D00211D9D
:101E8000206800F013FA012084F8480084F83E002E
:101E900084F83F0084F8400084F8410084F8420050
:101EA00084F8430084F8440084F8450084F8460030
:101EB00084F8470084F83D00002010BD08B5006894
:101EC000B0F1804F08D10548816D41F00101816575
:101ED000806D00F00100009008BD0000001002407D
:101EE0007047704770B5044690F83C00012812D046
:101EF000012584F83C50022084F83D00204600F083
:101F0000D3FB01004FF0000007D084F83D5084F867
:101F10003C00012070BD022070BD2168CA6822F01B
:101F20004002CA602168CA6822F48042CA6084F80C
:101F30003D5084F83C00002070BD7047FEE700EB88
:101F40008100006E00F0F84070478068C0F3C00068
:101F500070478068C0F3800070478068C0F38000DD
:101F60007047042303EAD15310B518444369C1F301
:101F7000045107248C40A3438A401343436110BD9E
:101F800000EB8100016E21F00041114301667047B2
:101F900030B58BB0002408940994202168460A9437
:101FA000FEF78AF91D484FF0A041042501604FF467
:101FB0008021C0E90114C4600461C0E905450477CB
:101FC00044770121016280F82440C462046380F8F0
:101FD0003840C46380F84040FEF754FC08B1FEF777
:101FE000D0F908A90D480894FEF7CEF908B1FEF71C
:101FF000C8F90B48009006200190072002907F202E
:102000000594CDE9030569460448FEF729FA00283E
:1020100001D0FEF7B6F90BB030BD00001000002073
:102020000008302EF0B587B014216846FEF744F959
:102030002D48C16C41F00401C164C16C01F0040180
:102040000591C16C41F02001C164C16C01F0200117
:102050000591C16C41F00101C164C16C01F0010145
:102060000591C16C41F00201C164C16C01F0020133
:102070000591C16C41F00801C164C06C1B4E00F0B9
:1020800008004FF47F440590012221463046FEF7B8
:1020900053FE174F002204213846FEF74DFE01255E
:1020A000CDE9004500240294694630460394FEF7CA
:1020B0001FFDCDE9005469464FF090400294FEF7B1
:1020C00017FD0720CDE9000469460A480294FEF78F
:1020D0000FFD04200090CDE9015469463846039471
:1020E000FEF706FD07B0F0BD0010024000080048F2
:1020F000000C00480004004830B58BB00024079461
:1021000008941C2168460994FEF7D6F815484FF04C
:102110008041FA2502C04F2132C040F81049846145
:102120001048FFF79AFE08B1FEF72BF9079407A9AC
:102130000C480994FFF78AFB08B1FEF722F96020EA
:102140000090CDE901540422694606480494FFF743
:10215000F2FD08B1FEF715F90248FFF7C5FD0BB017
:1021600030BD00007C00002030B58DB0142104A8E3
:10217000FEF7A2F8002428480A940B9409940094CE
:10218000019402942349039401604F21C0E9011492
:102190004FF6FF71C0E903148461FFF7A6FB08B195
:1021A000FEF7EFF81C48FFF79CFC08B1FEF7E9F8D2
:1021B00004200490602002250894CDE9050504A9B7
:1021C0001548FFF78FFE08B1FEF7DBF8099409A95F
:1021D00011480B94FFF73AFB08B1FEF7D2F8CDE9AE
:1021E00000450294002269460B480394FFF7E7FB81
:1021F00008B1FEF7C6F80120CDE900500422694677
:102200000548FFF7DCFB002801D0FEF7BAF80DB057
:1022100030BD000000040040C8000020FEE7FEE7DB
:1022200070477047FEF794BD10B594B038216846EA
:10223000FEF742F814210EA8FEF73EF84FF40070A6
:10224000FEF718FE012000900004019002200324F4
:10225000CDE907041421CDE90A100C900D900994E2
:102260006846FFF7D7F808B172B6FEE70F20CDE950
:102270000E04002010901190129002210EA8FEF77B
:10228000A3FF002801D072B6FEE714B010BD000015
:102290000248016841F470010160704788ED00E078
:1022A0000148FFF750BC0000C80000202DE9F043B2
:1022B0000268264B264D274E274C4FF08049984206
:1022C00007D0484505D0A84203D0B04201D0A04273
:1022D00003D122F070074A683A43204FDFF880C0EC
:1022E000DFF8808098420DD048450BD0A84209D035
:1022F000B04207D0A04205D0B84203D0604501D01B
:10230000404503D122F44075CA682A434D6922F042
:1023100080022A4302608A68C2620A688262984226
:1023200007D0A04205D0B84203D0604501D0404557
:1023300001D109690163012141610169C90703D024
:10234000016921F001010161BDE8F083002C014029
:1023500000040040000800400034014000400140FB
:10236000004401400048014010B5846842EA03225D
:1023700024F47F440A432243826010BD2DE9F043D8
:10238000056A026A22F001020262436882691C4CFB
:1023900025F0020522400C6822F0030214438A68EB
:1023A000194E2A43174D194FDFF864C0DFF86490C7
:1023B000A84207D0B04205D0B84203D0604501D052
:1023C000484506D122F00808CA6842EA080222F00D
:1023D0000402A84207D0B04205D0B84203D06045FD
:1023E00001D0484505D14D6923F440731D438B69E5
:1023F0002B4343608461496841630262BDE8F08316
:102400008FFFFEFF002C01400034014000400140DE
:102410000044014000480140F0B5056A026A22F01C
:102420001002026242688369194C1B4E23400C68FB
:1024300023F4407343EA042425F020038D6843EA23
:102440000513144DA84201D0B04206D1CF6823F045
:10245000800343EA071323F04003A8420AD0B042A6
:1024600008D00E4DA84205D00D4DA84202D00D4D0A
:10247000A84207D14D6922F4406242EA85028D6983
:1024800042EA850242608461496881630362F0BD6B
:10249000FF8FFFFE002C014000340140004001404E
:1024A0000044014000480140F0B5056A026A22F488
:1024B000807202624368C269194C1B4E22400C684C
:1024C00022F00302144325F400728D6842EA0522CB
:1024D000144DA84201D0B04206D1CF6822F4006268
:1024E00042EA072222F48062A8420AD0B04208D011
:1024F0000E4DA84205D00E4DA84202D00D4DA84267
:1025000007D14D6923F4405343EA05138D6943EA2B
:1025100005134360C4614968C1630262F0BD0000F5
:102520008FFFFEFF002C01400034014000400140BD
:102530000044014000480140F0B5056A026A22F4F7
:10254000805202624268C369194C1B4E23400C68DA
:1025500023F4407343EA042425F400538D6843EACE
:102560000533144DA84201D0B04206D1CF6823F400
:10257000004343EA073323F48043A8420AD0B04221
:1025800008D00E4DA84205D00D4DA84202D00D4DE9
:10259000A84207D14D6922F4404242EA85128D6972
:1025A00042EA85124260C461496801640362F0BD79
:1025B000FF8FFFFE002C014000340140004001402D
:1025C000004401400048014030B5056A026A22F427
:1025D000803202624268036D114C23400C681C4338
:1025E00025F400330D8943EA05430E4DA8420BD074
:1025F0000D4DA84208D00D4DA84205D00C4DA84263
:1026000002D00C4DA84204D14D6922F4803242EA36
:1026100005224260046549688164036230BD0000A0
:102620008FFFFEFF002C01400034014000400140BC
:10263000004401400048014030B5046A026A22F4B7
:10264000801202624268036D114D24F400142B4085
:102650000D6843EA05230D8944EA05540D4DA8424F
:102660000BD00D4DA84208D00C4DA84205D00C4D02
:10267000A84202D00B4DA84204D14D6922F4802219
:1026800042EA8522426003654968C164046230BD44
:10269000FF8FFFFE002C014000340140004001404C
:1026A000004401400048014070B505680024AA6854
:1026B0002E4B1A404B6813432D4A13400A681A43A5
:1026C000AA604A68602A4AD00DDC302A1FD005DC97
:1026D000EAB1102A1BD0202A18D118E0402A1FD0B6
:1026E000502A13D135E0234D531BAA420FD009DCE9
:1026F000702A0ED0B2F1101F09D0203AB2F5801F17
:1027000004D104E0102B02D0402B00D0012420463D
:1027100070BD0B69D1E902210068FFF725FEF6E7DD
:102720000A68052A13D0B2F1011F10D00268136A9B
:10273000156A25F00105156202689569096925F099
:10274000F00545EA0111916100680362DFE70120AD
:1027500070BD0A698968006800F00EF8D7E70A6959
:102760008968006800F050F8D1E700008FFFCFFFC4
:10277000F8FFFEFF3000100010B5036A046A24F071
:1027800001040462846924F0F00444EA021423F092
:102790000A020A438461026210BD000070B5056A36
:1027A000046A24F0010404628469124EB0420ED01F
:1027B000B0F1804F0BD0104EB04208D00F4EB04257
:1027C00005D00F4EB04202D00E4EB04203D124F0DD
:1027D0000304144301E044F001041A0724F0F00458
:1027E00044EA126225F00A0301F00A0119438261EA
:1027F000016270BD002C0140000400400008004050
:10280000003401400040014010B5036A046A24F01E
:1028100010040462846923F0A00324F4704444EAA1
:10282000023243EA01118261016210BD30B5046ACF
:10283000056A25F010050562856925F4407545EAAD
:10284000022222F470454FF6FF7202EA033224F0AE
:10285000A0032A43A02404EA011119438261016202
:1028600030BDFEE70907090E002804DB00F1E02077
:1028700080F80014704700F00F0000F1E02080F8AD
:10288000141D7047FEF76CFAFFF7CEFCFFF7CAFB8A
:10289000FFF77EFBFFF730FCFFF766FCFEE74FF02B
:1028A0004070E1EE100A70470000000000000000D8
:1028B0000102030406070809D828000800000020C8
:1028C0001000000014020008E82800081000002092
:1028D000680700003002000810000000010000003E
:0828E000000000000024F400D8
:04000005080001D915
:00000001FF
